:020000040800F2
:10000000F84E00205D020008732F000881230008CD
:10001000712F0008070800089F3600080000000044
:100020000000000000000000000000009D0100082A
:100030002509000800000000F9010008A5300008AB
:1000400077020008770200087702000877020008AC
:10005000770200087702000877020008770200089C
:10006000770200087702000877020008770200088C
:10007000770200087702000877020008770200087C
:10008000770200087702000877020008770200086C
:10009000770200087702000877020008770200085C
:1000A00077020008ED3100087702000877020008A7
:1000B000770200087702000877020008770200083C
:1000C000770200087702000877020008770200082C
:1000D000770200087702000877020008770200081C
:1000E000770200087702000877020008770200080C
:1000F00077020008770200087702000877020008FC
:1001000077020008770200087702000877020008EB
:1001100077020008770200087702000877020008DB
:1001200077020008770200087702000877020008CB
:1001300077020008770200087702000877020008BB
:1001400077020008770200087702000877020008AB
:10015000770200087702000877020008770200089B
:10016000770200087702000877020008770200088B
:1001700077020008770200087702000800000000FC
:100180007702000877020008DFF80CD000F0BAFA16
:1001900000480047E53F0008F84E00202C4B196846
:1001A0000868B0E8F04F80F30988BFF36F8F4FF015
:1001B000000080F3118870470000000008480068C4
:1001C000006880F308884FF0000080F3148862B65E
:1001D00061B6BFF34F8FBFF36F8F00DF00BF00BF6B
:1001E00008ED00E0DFF80C00016841F470010160E7
:1001F000704700BF88ED00E0EFF30980BFF36F8F19
:10020000134B1A681EF0100F08BF20ED108A20E96A
:10021000F04F106009B44FF0500080F31188BFF325
:100220004F8FBFF36F8F04F0B1FD4FF0000080F3EC
:10023000118809BC19680868B0E8F04F1EF0100F6B
:1002400008BFB0EC108A80F30988BFF36F8F704746
:100250001C000020EFF3058070470000064880472F
:1002600006480047FEE7FEE7FEE7FEE7FEE7FEE79B
:10027000FEE7FEE7FEE7FEE75531000889010008CA
:100280002DE9F05F0546002092469B4688460646CB
:10029000814640241BE0284641464746224600F05E
:1002A00069F853465A46C01A914110D31146184670
:1002B000224600F050F82D1A67EB01084F462246FF
:1002C0000120002100F047F817EB00094E41201EE5
:1002D000A4F10104DFDC484631462A464346BDE826
:1002E000F09F40EA01039B0703D009E008C9121FF1
:1002F00008C0042AFAD203E011F8013B00F8013BE0
:10030000521EF9D27047D2B201E000F8012B491E0B
:10031000FBD270470022F6E710B513460A460446A2
:100320001946FFF7F0FF204610BD30B50B460146D9
:1003300000202022012409E021FA02F59D4205D384
:1003400003FA02F5491B04FA02F52844151EA2F12E
:100350000102F1DC30BD202A04DB203A00FA02F170
:10036000002070479140C2F1200320FA03F31943A3
:1003700090407047202A04DB203A21FA02F0002145
:10038000704721FA02F3D040C2F1200291400843A5
:10039000194670472DE9FE4F804681EA0300C00FE1
:1003A0000C46009021F0004123F00045B8EB02001C
:1003B000A94105D24046214690461C460B460246BE
:1003C00023F00040104347D0270DC7F30A00C3F3C2
:1003D0000A510290401A019040286BDAC3F31300CF
:1003E00040F4801B0098924620B10023D2EB030A10
:1003F00063EB0B0B01985946C0F140025046FFF7E2
:10040000AAFF06460D4650465946019A00F08CF95F
:1004100010EB08006141002487EA115284EAE77377
:100420001A4340D0009A62B3019A012A4FEA075258
:1004300015DC001B61EB02014FF0004202EA07529B
:10044000CDE90042001C41F5801132462B4600F0F8
:100450008CF903B0BDE8F08F40462146F9E7001B58
:1004600061EB0201001C41F5801300185B4120186C
:10047000A2F5001747EB030140EAD570B6196D41AC
:1004800011E06D084FEA360645EAC0754FEA07529B
:10049000001B61EB0201001C41F5801149084FEA85
:1004A00030000019514132462B4603B0BDE8F04FF1
:1004B00000F04CB90098012240000023D0EB02026A
:1004C00063EBE073009821464FEAE074B8EB00005C
:1004D00061EB0401E9E783F000435BE781F0004151
:1004E00058E72DE9FE4F81EA030404F0004421F0AF
:1004F000004100944FF0000B23F0004350EA010448
:100500005ED052EA03045BD0C3F30A54C1F30A5528
:100510002C44A4F2F3340194A0FB0254C1F3130160
:1005200041F48011C3F3130343F4801301FB02442D
:1005300000FB034E840A970A44EA815447EA835732
:10054000A4FB076802958D0A05FB07854FEA932CEB
:1005500004FB0C542705029D4FEA065847EA16375C
:10056000B5EB08056EEB070C870E920E47EA811774
:1005700042EA8312A7FB0201B6EB0B0164EB000415
:100580002B0D43EA0C335E1844EB1C50DA465146FF
:10059000E7FB0201C5F313044FEA0B3343EA14539C
:1005A0004FEA0432019C43EA0603A4F10C040294CE
:1005B000009CCDE900B400F0D8F803B0BDE8F08F9E
:1005C00000200146F9E72DE9F04D81EA030404F02B
:1005D000004B21F0004514464FF0000A23F0004183
:1005E00050EA050220D054EA01021DD0C5F30A5793
:1005F0000246C5F31303C1F31300C1F30A5640F4D6
:10060000801543F48013A7EB0608101BD64608F2AA
:10061000FD3873EB050002D308F1010801E09218E0
:100620005B41B8F1000F03DA00200146BDE8F08D10
:1006300000204FF48011064684460EE0171B73EB32
:10064000050705D3121B63EB050306434CEA010CB7
:1006500049084FEA300092185B4150EA0107EDD19A
:1006600052EA030012D082EA040083EA050108433B
:1006700005D0101BAB4106D20122002306E0002268
:100680004FF0004302E06FF0010253101AEB060036
:100690004CEB085110EB0A0041EB0B01BDE8F04DAB
:1006A00000F054B8C1F30A52C1F3130140F2FF3312
:1006B00041F480119A4202DA00200146704740F26C
:1006C00033439A42A2F2334202DC5242FFF752BE57
:1006D000FFF741BE30B5041E71F1000404DB4FF09A
:1006E0000044404264EB0101141E73F1000405DB79
:1006F0001C464FF00043524263EB0403994208BF8B
:10070000904230BD064C074D06E0E06840F0010322
:1007100094E8070098471034AC42F6D3FFF738FD51
:100720003C5800085C580008202A06DBCB17203A0A
:1007300041FA02F043EAE07306E041FA02F3D040E6
:10074000C2F12002914008431946704710B5141EAB
:1007500073F1000408DA401C41F1000192185B417A
:100760001A4301D120F0010010BD2DE9F04D924651
:100770009B4611B1B1FA81F202E0B0FA80F2203268
:100780009046FFF7E8FD04460F4640EA0A0041EABA
:100790000B0153465A46084313D0114653EA010051
:1007A00019D0C8F140025046FFF7E4FD05460E4659
:1007B000504659464246FFF7CEFD084305D001207A
:1007C00004E020463946BDE8F08D0020054346EAA6
:1007D000E0762C4337430A986305E40AA0EB08004F
:1007E0000022FD0A44EA47540A3002D5002001469F
:1007F000E9E7010510196941DDE90845001969417A
:10080000BDE8F04DA2E7FEE73EB5002001900BA049
:100810004FF47A7400680290012302AA2A210094FE
:10082000074800F05DFB012301AA2B210448009436
:1008300000F05EFA9DF804003EBD0000A700000035
:100840009C00002070B50A4D4FF4807400222146B0
:10085000284600F07DF90A2000F068F801222146C0
:10086000284600F075F9BDE87040322000F05EB80F
:100870000004024030B585B00C46054664220621CE
:1008800003A88DE8070001231A462B210F4800F02A
:10089000BDFB10B1002005B030BD9DF80D0010F07B
:1008A0000F00F8D09DF80E109DF80F0001F00F0119
:1008B00040EA012028809DF810109DF8110001F0F9
:1008C0000F0140EA012020800120E4E79C00002085
:1008D00010B5012210210A4800F03AF9094C012212
:1008E0001146204600F034F901220221204600F092
:1008F0002FF90421044801F01BFC002010BD00006A
:1009000000000240000402404801002001B54FF4FD
:10091000FA7301226946024801F0C4F808BD0000DC
:10092000F0000020704772B6FEE7000070B5044684
:1009300000F014F90546601C02D004480078044415
:1009400000F00CF9401BA042FAD370BD0400002057
:100950002DE9F84FDFF8BCA10022012503264FF056
:100960000F090AF1040BAAF1040E00BF0B6805FA87
:1009700002F42340A34270D10F7907F00307012F3F
:1009800001D0022F16D187684FEA420806FA08FC08
:1009900027EA0C07D1F80CC00CFA08FC4CEA070C4B
:1009A000C0F808C04768A7430C79C4F3001494400A
:1009B0003C4344600C79E443A4070AD0C4684FEA7E
:1009C000420C06FA0CF7BC438F6807FA0CF7274372
:1009D000C7600C7904F00304022C12D1D40800EB98
:1009E000840CDCF820405707FF0E09FA07F824EAC8
:1009F0000804D1F8108008FA07F848EA0408CCF88F
:100A0000208004684FEA420C06FA0CF7BC430F79C9
:100A100007F0030707FA0CF7274307604C6814F444
:100A2000403F70D03C4C276847F4804727602468DB
:100A300022F0030704F480440094384C07EB040CC4
:100A4000DCF8084897074FEA177809FA08F7BC431B
:100A5000334FB84202D1002724E054E0314FB8426E
:100A600001D101271EE0304FB84201D1022719E021
:100A70002E4FB84201D1032714E02D4FB84201D1C7
:100A800004270FE02B4FB84201D105270AE02A4F77
:100A9000B84201D1062705E0284FB84201D1072707
:100AA00000E0082707FA08F72743CCF80878DAF8B7
:100AB00000405746D1F804C09C435FEACC2C00D5D7
:100AC0001C433C60DBF800405F46D1F804C09C4307
:100AD0005FEA8C2C00D51C433C60DEF80040774672
:100AE000D1F804C09C435FEA8C3C00D51C433C60B9
:100AF000084F083F3C68D1F804C09C435FEACC3CF7
:100B000000D51C433C60521C102AFFF42FAFBDE8F7
:100B1000F88F0000083C014044380240003001409A
:100B2000000002400004024000080240000C0240A5
:100B3000001002400014024000180240001C024055
:100B4000426921EA02030A4043EA02418161704797
:100B50000AB1816170470904FBE700000148806821
:100B6000704700000400002070B5040025D094F800
:100B70003D00002520B984F83C50204600F048FB99
:100B8000242084F83D002068016821F00101016003
:100B90002068016841F4004101602068016821F487
:100BA0000041016000F0E6FC4D4A6168914201D8C5
:100BB0004C4900E04C49884201D2012070BD4B49AC
:100BC0002368B0FBF1F15E6826F03F060E435E60DD
:100BD0006368934206D94FF4967359434FF47A737E
:100BE000B1FBF3F12368491C1E6A26F03F0631432E
:100BF00019626168914210D84900401EB0FBF1F2C1
:100C0000521CC2F30B02042A01D2042022E0B0FBE2
:100C1000F1F0401CC0F30B001CE0A268F2B301EB42
:100C2000C10303EB0116431EB3FBF6F35B1C43F455
:100C300080431B0549D092B301EBC10202EB0111C5
:100C4000401EB0FBF1F0401CC0F30B0040F48040AC
:100C500040F400402168CA694CF6FF739A43104380
:100C6000C861D4E9071001432068026822F0C0027D
:100C700011430160D4E9030101432068826848F20E
:100C8000FF339A4311438160D4E905010843216889
:100C9000CA6822F0FF021043C86001E00EE016E0CF
:100CA0002068016841F0010101602564202084F87A
:100CB0003D00256384F83E50002070BD01EB4106E5
:100CC000431EB3FBF6F35B1CB3E70120C2E701EB65
:100CD0004101401EB0FBF1F0401CC0F30B00B7E730
:100CE000A086010080841E0000093D0040420F00E4
:100CF0002DE9F84F1F4690468A460446DDF82890B5
:100D0000FFF72CFF054694F83D00202871D11923E8
:100D1000012270492046009501F0B8FC0028F5D169
:100D200094F83C00012864D0012084F83C0020683D
:100D30000168C90703D1016841F001010160206821
:100D4000016821F400610160222084F83D00102038
:100D500084F83E0000262664C4F824806785608DF0
:100D600020855D48E0622B464A465146204601F008
:100D70001FFB002876D1208D584F68B1012814D070
:100D800002282068016816D041F480610160206863
:100D90004169806900908EE0206841698169009115
:100DA000016841F40071016085E02068016821F468
:100DB00080610160F0E721F48061016020680168D2
:100DC00041F40061E2E7032846D801280AD002284E
:100DD00010D04B46002239462046009501F056FCC3
:100DE000C8BB25E02A464946204601F0F5FC90BBE9
:100DF00054E06CE04B46002239462046009501F055
:100E000045FC40BB2068016841F400710160206826
:100E10000069616A0870606A401C6062218D491E29
:100E20002185618D491E618521680969017039E05C
:100E30002068016821F48061016020680069616AAE
:100E40000870606A401C6062208D401E2085608DA5
:100E5000401E6085CEE705E02A464946204601F05F
:100E6000BBFC10B10120BDE8F88F20680069616A01
:100E70000870606A401C6062208D401E81B221852E
:100E8000608D401E608520684269D243520712D4AB
:100E9000032903D1016821F48061016020680069A1
:100EA000616A0870606A401C6062208D401E208567
:100EB000608D401E6085208D002884D1202084F81C
:100EC0003D0084F83E6084F83C600020CBE70220BF
:100ED000C9E70000020010000000FFFF040001004D
:100EE0002DE9F84F1F4690468A460446DDF82890C3
:100EF000FFF734FE054694F83D0020287FD11923E2
:100F0000012240492046009501F0C0FB002876D11F
:100F100094F83C00012872D0012084F83C0020683D
:100F20000168C90703D1016841F00101016020682F
:100F3000016821F400610160212084F83D00102047
:100F400084F83E0000262664C4F824806785608DFE
:100F500020852D48E0622B464A465146204601F046
:100F60009DFA90B9206841698069009036E02A4670
:100F70004946204601F068FC50B1206C042804D199
:100F80002068016841F4007101600120BDE8F88F1C
:100F9000606A216800780861606A401C6062618D47
:100FA000491E6185218D491E89B2218522685369B8
:100FB000DB435B070BD451B100781061606A401CC1
:100FC0006062608D401E6085208D401E20852A460F
:100FD0004946204601F02EFB0028CED1208D002866
:100FE000C5D154F83D0B016841F400710160202027
:100FF00004F81E09E67766770020C7E7FFE70220BE
:10100000C4E70000020010000000FFFF2DE9FF4FC1
:1010100083B09A46DDE9118793460446DDF8409097
:10102000FFF79CFD054694F83D00202870D1192358
:10103000012274492046009501F028FB0028F5D1D3
:1010400094F83C00012863D0012084F83C0020681B
:101050000168C90703D1016841F0010101602068FE
:10106000016821F400610160222084F83D004020E5
:1010700084F83E0000262664C4F82490A4F82A8050
:10108000608D20856048E062CDE9007553465A4680
:101090002046049901F050FA002879D1208DD0B172
:1010A000012821D00228206824D04169806900905D
:1010B000208D032866D801282BD0544902283B46AE
:1010C0004FF00002009557D08846204601F0DEFA26
:1010D00000285DD13AE0206841698169009101688A
:1010E00041F4007101607DE02068016821F48061B5
:1010F0000160F0E7016821F4806101602068016807
:1011000041F400610160206841698069009069E0F4
:1011100075E02A463946204601F05EFB88BB54E064
:101120002068016841F40071016020680069616A0B
:101130000870606A401C6062218D491E2185618DA6
:10114000491E618521680969017042E020680168D3
:1011500021F48061016020680069616A0870606A3A
:10116000401C6062208D401E2085608D401E608581
:101170003B46002241460095204601F087FA00B91F
:10118000CEE705E02A463946204601F025FB18B196
:10119000012007B0BDE8F08F20680069616A08701F
:1011A000606A401C6062208D401E81B22185608D86
:1011B000401E608520684269D243520712D4032939
:1011C00003D1016821F48061016020680069616ACF
:1011D0000870606A401C6062208D401E2085608D12
:1011E000401E6085208D00287FF462AF202084F8A7
:1011F0003D0084F83E6084F83C600020C9E702208E
:10120000C7E70000020010000000FFFF040001001B
:1012100010B586B0044614216846FFF77BF81349E1
:101220002068884220D112480021026842F0020260
:101230000260006800F002000590C02000901220BB
:10124000CDE9010103200390042004906946094878
:10125000FFF77EFB06481030016841F40011016081
:10126000006800F40010059006B010BD0054004066
:10127000303802400004024002488168027811447C
:1012800081607047040000200B4810B5016841F4EC
:1012900000710160016841F480610160016841F4FE
:1012A00080710160032000F099F80F2000F006F82B
:1012B00000F04AF8002010BD003C024030B5054661
:1012C0001C4887B00024016841F0010101600068FA
:1012D00006A900F00100009001A800F02BF900F031
:1012E00059F915494000B0FBF1F11548134A491E60
:1012F000026040F2E732C0E90324C0E901148461CE
:1013000000F0CEFC040012D10D4800F00BFD0400EB
:101310000DD1192000F034F8102D07D200222946F3
:10132000192000F03BF80748056000E0012407B0F1
:10133000204630BD4438024040420F0000000140CA
:10134000D8010020080000200C4882B0016841F458
:1013500080410160006800F4804000900748001F51
:10136000016841F0805101600068002200F0805067
:1013700000900F21901E02B000F010B844380240D7
:10138000002809DB00F01F02012191404009800084
:1013900000F1E020C0F8001170470000F0B40E4BDF
:1013A0001B680C46C3F30223C3F10705042D00D9C3
:1013B0000425191D072901D2002300E0DB1E0126A8
:1013C00006FA05F1491E214099409E40761E1640BE
:1013D0003143F0BC02F078B90CED00E0064900F0B2
:1013E000070208684FF6FF03184040EA0220034A4C
:1013F00010430860704700000CED00E00000FA05A3
:101400002DE9F0470E46050065D0DFF81481D8F8C5
:101410000000F7B200F00700B04207D288F8007071
:10142000D8F8000000F00700B04254D128683D4CC5
:10143000810712D5400703D5206840F4E0502060B2
:101440002878000703D5206840F4604020602068B9
:10145000A96820F0F000084320602878C0072DD04C
:10146000304968680839012812D0022813D00328AF
:1014700011D00968890700292DDA216821F00301BC
:1014800001432160FFF76AFB814641F2883A0EE092
:1014900009688903EFE709688901ECE7FFF75EFB5C
:1014A000A0EB0901514502D90320BDE8F08720686F
:1014B000696800F00C00B0EB810FEFD1D8F8001094
:1014C000404601F00701B14207D90770006800F0FB
:1014D0000700B04201D00120E7E72878400705D592
:1014E0002068E96820F4E05008432060287800076D
:1014F00006D52068296920F4604040EAC1002060D8
:1015000000F058F82168084AC1F30311515CC84043
:101510000649086006480068FFF7D0FE0020C4E7CF
:10152000003C024008380240185800081000002013
:10153000080000200F2202600C4A136803F0030326
:101540004360136803F0F0038360136803F4E0530F
:10155000C36012684FF4E05303EAD2020261044808
:10156000006800F00700086070470000083802407B
:10157000003C02400448054900680968044AC1F378
:101580008221515CC840704710000020083802409A
:10159000285800080448054900680968044AC1F34E
:1015A0004231515CC84070471000002008380240AA
:1015B00028580008154810B5006810F00C021448AF
:1015C00013D04110042A0FD0082A0ED10F4C241F2B
:1015D0002268236802F03F025B0207D52068C0F34F
:1015E0008810A0FB010106E0084610BD2168C1F388
:1015F0008811A1FB00010023FEF742FE2168C1F320
:101600000141491C4900B0FBF1F010BD083802400F
:101610000024F4002DE9F84F04006ED02078DFF8A4
:101620004C93C007A9F104054AD009F104000168F0
:10163000C1F38101012908D00068C0F381000228AC
:101640000AD1D9F80000400206D52868800337D5B2
:1016500060680028E1D033E06068B0F5803F10D0CA
:10166000B0F5A02F286810D020F4803028602868BA
:1016700020F4802028606068A8B1FFF76FFA064662
:101680000DE0286840F48030F4E740F480202860C2
:10169000F7E700BFFFF762FA801B642873D8286859
:1016A0008003F7D50CE0FFF759FA064605E000BFC6
:1016B000FFF754FA801B6428F0D828688003F7D419
:1016C0002078DFF8AC8280074FF0000A3ED5A748AB
:1016D000001D016811F00C0F08D00068C0F38100F4
:1016E00002280BD1D9F80000400207D428688007EF
:1016F00016D5E068012800D112E033E1E068B8B106
:101700000120C8F80000FFF729FA064605E000BFEF
:10171000FFF724FA801B0228C0D828688007F7D575
:101720002868216920F0F80040EAC10028600DE037
:10173000C8F800A0FFF712FA064604E0FFF70EFA19
:10174000801B02281FD828688007F7D4207800075C
:1017500022D5864F87486169703771B101210160D8
:10176000FFF7FCF9064604E0FFF7F8F9801B0228B2
:1017700009D838688007F7D50EE0C0F800A0FFF759
:10178000EDF9064605E082E0FFF7E8F9801B022844
:101790007DD838688007F7D42078400768D5DFF80F
:1017A000CCB100270BF13C0BDBF80000C0000BD4E0
:1017B000DBF8001041F08051CBF80010DBF800009E
:1017C000012700F0805000906B4E3068C00510D4A7
:1017D000306840F480703060FFF7C0F9009005E099
:1017E000FFF7BCF90099401A022850D83068C005AC
:1017F000F6D55E4EA0686C3601280FD005283068FB
:1018000010D020F001003060306820F0040030601B
:10181000A068B8B1FFF7A2F900900FE0306840F07F
:101820000100F4E740F004003060F7E7FFF796F9B5
:101830000099411A41F28830814266D830688007A9
:10184000F4D50EE0FFF78AF9009007E0FFF786F97C
:101850000099411A41F28830814256D83068800799
:10186000F4D42FB1DBF8001021F08051CBF8001038
:10187000A069C8B33D49091D0968C1F38101022966
:101880004AD00228504607D0C8F8600000E03CE08B
:10189000FFF764F904463BE04746C8F86000FFF7ED
:1018A0005DF9064605E000BFFFF758F9801B0228E6
:1018B0002BD828688001F7D4D4E907010843A16A2E
:1018C0002E4A490802EB0141626A41EA821108434B
:1018D00094F82C1040EA0161C9F800100120386624
:1018E000FFF73CF9044606E03EE000BFFFF736F99B
:1018F000001B022809D828688001F7D534E000BF12
:10190000FFF72CF9001B022802D90320BDE8F88F4D
:1019100028688001F4D427E00128F7D0D9F8000026
:10192000E26900F4800191421CD1226A00F03F017B
:10193000914217D147F6C071626A0140B1EB821F34
:1019400010D1A26A4FF0FF3300F4403103EB520292
:10195000B1EB024F06D194F82C1000F07060B0EBA0
:10196000016F01D00120D1E70020CFE70438024009
:1019700000004742800E4742007000400000FFFF19
:1019800070B5040009D0606A002540B12561656129
:10199000A56294F8510040B10CE0012070BD606870
:1019A000B0F5827FF4D0E561F2E784F8505020462C
:1019B00000F044F8022084F851002068016821F00A
:1019C00040010160A088218900F4827001F4044183
:1019D0000843A18901F400610843217C01F0020160
:1019E0000843217D01F001010843218B01F40071BE
:1019F0000843217F01F03801084394F8201001F0DA
:101A000080010843218D01F40051084321680860DA
:101A1000A069042101EA104094F8241001F010019B
:101A20000843216848602068C16921F40061C161F0
:101A30006565012084F85100002070BD10B586B0A6
:101A4000044614216846FEF765FC13492068884265
:101A500020D112480021026842F4805202600068DE
:101A600000F4805005900D481438026842F00102DD
:101A70000260006800F001000590A02000900220A4
:101A8000CDE9010103200390052004906946044834
:101A9000FEF75EFF06B010BD003001404438024042
:101AA000000002402DE9F84F984616468A46044643
:101AB000FFF754F8814694F8510001281ED1BAF17D
:101AC000000F73D0002E71D094F85000012815D06B
:101AD000012784F85070032084F8510000256565C3
:101AE000C4F830A0A686E686A563A587E587656469
:101AF0002564A068B0F5004F03D00CE00220BDE8DB
:101B0000F88F2068016821F04001016020680168B9
:101B100041F48041016020680168490603D40168EE
:101B200041F040010160E068B0F5006F606803D0EB
:101B300048B3012E27D047E008B1012E1FD1206BFA
:101B400021680088C86006E020688168890709D597
:101B5000216B0988C160206B801C2063E08E401ED1
:101B6000E0860CE0FEF7FAFFA0EB0901414503D344
:101B7000B8F1FF3F03D035E0B8F1000F32D0E08E6E
:101B80000028E1D123E0206B21680078087306E08B
:101B90002068816889070AD5216B09780173206B59
:101BA000401C2063E08E401EE0860DE02BE0FEF737
:101BB000D5FFA0EB0901414503D3B8F1FF3F03D0A6
:101BC00010E0B8F1000F0DD0E08E0028E0D14A46B9
:101BD0004146204601F0CEF908B120206065A0689A
:101BE00030B109E084F8517084F85050032086E742
:101BF0002068C1688068009084F8517004F8505FD4
:101C000060680028F3D0012079E770477047000032
:101C100070B590F83C20012A32D0012480F83C4075
:101C2000022280F83D2003685A689D6822F0700601
:101C30000A6832435A60134B02689A4214D0B2F1D8
:101C4000804F11D0104B9A420ED0104B9A420BD0BD
:101C50000F4B9A4208D00F4B9A4205D00E4B9A4236
:101C600002D00E4B9A4204D1496825F080031943F3
:101C7000916080F83D40002180F83C10084670BD1E
:101C8000022070BD00000140000400400008004038
:101C9000000C0040000401400040014000180040DA
:101CA00010B5040003D094F83D0010B107E0012006
:101CB00010BD002084F83C00204600F01FF80220F0
:101CC00084F83D00211D206801F096FA012084F877
:101CD000460084F83E0084F83F0084F8400084F811
:101CE000410084F8420084F8430084F8440084F8FA
:101CF000450084F83D00002010BD000008B50068D4
:101D00000649884208D10648016841F00201016095
:101D1000006800F00200009008BD000000040040D0
:101D20004038024090F83D10012901D00120704751
:101D3000022180F83D100168CA6842F00102CA60C1
:101D400000681149884214D0B0F1804F11D00F497A
:101D500088420ED00E4988420BD00E49884208D0E6
:101D60000D49884205D00D49884202D00C4988426D
:101D700004D1816801F00701062903D0016841F010
:101D80000101016000207047000001400004004094
:101D900000080040000C00400004014000400140E9
:101DA0000018004070B5044690F83C00002501285A
:101DB00017D0012684F83C60022084F83D0020689A
:101DC000826822F0770222F47F42826008685028FD
:101DD00038D00DDC20284FD005DC90B3102811D16D
:101DE0004AE0022070BD302846D040280AD13BE0AE
:101DF00060282FD070280DD0B0F5805F03D0B0F5EB
:101E0000005F12D0012584F83D60002084F83C007A
:101E1000284670BDCB68D1E90121206801F061FA44
:101E20002068816841F0770109E0CB68D1E90121A0
:101E3000206801F056FA2068816841F48041816091
:101E4000E1E719E0CA684968206801F01FFB5021EA
:101E5000206806E0CA684968206801F028FB602114
:101E6000206801F048FACEE7CA684968206801F0A6
:101E70000DFB40212068F4E7226801461046F0E798
:101E800070472DE9F04104460068C66805694FF0C7
:101E90000007A90713D5B10711D5F91E016101206B
:101EA0002077206880698007204602D0FFF7E8FF8E
:101EB00004E000F0A7F8204600F039F9277768071A
:101EC00016D5700714D521686FF004000861022050
:101ED00020772068806910F4407F204602D0FFF709
:101EE000CFFF04E000F08EF8204600F020F92777BD
:101EF000280715D5300713D521686FF00800086151
:101F0000042020772068C0698007204602D0FFF7B0
:101F1000B7FF04E000F076F8204600F008F92777D4
:101F2000E80616D5F00614D521686FF01000086198
:101F3000082020772068C06910F4407F204602D036
:101F4000FFF79EFF04E000F05DF8204600F0EFF898
:101F50002777E80708D0F00706D021686FF0010066
:101F60000861204600F048F9280608D5300606D555
:101F700021686FF0800008612046FFF746FE680682
:101F800008D5700606D521686FF04000086120462C
:101F900000F03CF9A8060AD5B00608D521686FF014
:101FA000200008612046BDE8F041FFF72FBEBDE8E4
:101FB000F081000010B586B0044614216846FEF793
:101FC000A9F90D492068884214D10C480021026803
:101FD00042F004020260006800F004000590402016
:101FE00000900220CDE90101CDE9031069460448C3
:101FF000FEF7AEFC06B010BD0004004030380240D1
:1020000000080240704770B5044690F83C00002676
:102010000D4601280FD0012084F83C006AB1042A43
:102020001DD0082A2FD00C2A3FD00126002084F88A
:102030003C00304670BD022070BD206801F064F99C
:102040002068816941F0080181612068816921F07F
:1020500004018161206881692A69114311E02068C7
:1020600001F082F92068816941F400618161206892
:10207000816921F480618161206881692A6941EA6E
:1020800002218161D2E7206801F0A4F92068C169CA
:1020900041F00801C1612068C16921F00401C161FA
:1020A0002068C1692A69114311E0206801F0C6F96E
:1020B0002068C16941F40061C1612068C16921F4EF
:1020C0008061C1612068C1692A6941EA0221C16158
:1020D000ACE710B5040003D094F83D0010B107E060
:1020E000012010BD002084F83C00204600F01EF8BE
:1020F000022084F83D00211D206801F07DF80120B8
:1021000084F8460084F83E0084F83F0084F84000DC
:1021100084F8410084F8420084F8430084F84400C5
:1021200084F8450084F83D00002010BD70477047DA
:1021300010B50446022249B104290ED0082913D053
:1021400094F84100012816D0012010BD94F83E00FB
:102150000128F9D184F83E200FE094F83F000128CF
:10216000F2D184F83F2008E094F840000128EBD138
:1021700084F8402001E084F841200122206801F029
:10218000A3F816492068164A884201D0904203D12C
:10219000436C43F4004343642068884213D0B0F199
:1021A000804F10D00F4988420DD00F4988420AD085
:1021B0000E49884207D0904205D00D49884202D08E
:1021C0000C49884204D1816801F00701062903D037
:1021D000016841F001010160002010BD00000140D4
:1021E000000401400004004000080040000C0040D2
:1021F000004001400018004000680349884201D1B6
:10220000FFF73AB87047000000000140704770B512
:10221000040004D094F84100002510B106E001202C
:1022200070BD84F84050204600F024F8242084F843
:1022300041002068C16821F40051C160204601F0CE
:102240006FF92068016921F49041016120684169BA
:1022500021F02A0141612068C16841F40051C16048
:102260006564202084F8410084F842006563002002
:1022700070BD000010B586B0044614216846FEF714
:1022800049F814492068884221D113480021026886
:1022900042F010020260006800F0100005900E4845
:1022A0001438026842F001020260006800F0010088
:1022B00005904FF4C06000900220CDE90101032099
:1022C00003900720049069460448FEF741FB06B0DE
:1022D00010BD0000001001404438024000000240E0
:1022E0002DE9F843044690F84100984616460D46FD
:1022F000202802D00220BDE8F88385B17EB10020FD
:102300006064212084F84100FEF728FCA684814601
:10231000E684A0682027B0F5805F02D003E00120AA
:10232000E9E7206910B12E4600250EE000260CE0FA
:102330008021204601F07AF9A8B9C6B116F8010B40
:1023400021684860E08C401EE084E08C4B464FF0F2
:102350000002CDF800800028EAD14FF0400120466D
:1023600001F064F940B184F841700320C3E735F807
:10237000020BC0F30800E3E784F841700020BAE7DD
:10238000FEE701684A69D24352050FD46FF48062B8
:102390004A61002140F8301F202242738173026994
:1023A00042F004020261017301207047002070476F
:1023B0002DE9F84F0446C06A1E4693460D46216833
:1023C0000A6842F480620A60082807D0012805D014
:1023D00010F5803F02D0206B112804D120680168DD
:1023E00041F4807101604FF001195B4600224946BB
:1023F0002046009600F04AF94FF4007840B120687A
:102400000068C00501D5C4F840800320BDE8F88FFE
:102410002069DFF884A0B0F5804F0FD00620216836
:1024200000EAD51747F0F000086133465A460AF132
:102430000601204600F072F958BB03E0E8B240F014
:1024400001001CE02168E8B2086133465A46514653
:10245000204600F063F9E0B9206841698169009184
:10246000016841F4807101605B46002249462046C4
:10247000009600F00BF90028C1D147F0F100216867
:10248000086133465A465146204600F047F9002875
:10249000BCD00120BAE7000002000100F8B50446F4
:1024A000C06A1E460D461746082807D0012805D0E9
:1024B00010F5803F02D0206B122804D120680168FB
:1024C00041F480710160134600224FF00111204653
:1024D000009600F0DBF840B120680068C00502D526
:1024E0004FF4007020640320F8BD2069B0F5804FE0
:1024F0000ED00620216800EAD51040F0F0000861F7
:1025000033463A460B49204600F008F978B902E014
:1025100005F0FE0000E0E8B2216808610549334695
:102520003A46891F204600F0F9F80028DCD0012047
:10253000F8BD0000080001002DE9F84F04460068CE
:1025400089460B9D01689846174641F480610160F9
:102550002068016841F48071016000954FF0011B13
:102560000022594620460A9B00F090F84FF4007A6A
:1025700040B120680068C00501D5C4F840A0032020
:10258000BDE8F88F216809F0FE0008612B46284954
:1025900020460A9A00F0C2F8F0BB206841698069C1
:1025A00000902A4620460A9900F04EF940B1206C6E
:1025B00004283AD12068016841F40071016034E0D8
:1025C000FEB2B8F1010F09D02168380A08612A4625
:1025D00020460A9900F038F90028E8D12068066101
:1025E0002A4620460A9900F02FF90028DFD12068FA
:1025F000016841F48071016000950022594620462F
:102600000A9B00F043F80028B3D1216809F0FF00CD
:1026100040F00100086100E007E02B460449204635
:102620000A9A00F07BF80028AAD00120A8E7000051
:102630000200010070B516460D4604461EE0204615
:10264000FFF79FFE08B1012070BD681C16D0FEF791
:1026500085FA801BA84200D885B920684069C0432C
:1026600040070BD5002044F8300F20216173A07380
:10267000216941F0200121612073E4E7206840696D
:10268000C0434007DBD4002070BD00002DE9F047B7
:10269000984617460D460446C1F30746DDF82090DC
:1026A0002AE000BFB8F1FF3F26D0FEF757FAA0EBB3
:1026B0000901414502D8B8F1000F1DD12068012E53
:1026C00016D0806925EA00000004000C12D000201A
:1026D000B84211D1002044F8300F20216173A0735B
:1026E000216941F02001216120730120BDE8F087BC
:1026F0004069E7E70120EBE72068012E0AD08069F6
:1027000025EA00000004000C06D00020B842C9D021
:102710000020EBE74069F3E70120F7E72DE9F047F8
:10272000984616460D4604464FF000094FF0200A21
:10273000C1F3074723E020684069C043400515D432
:102740002068016841F40071016021686FF48060C5
:102750004861C4F8309084F83DA084F83E90216C24
:1027600041F00401216484F83C9021E0701C06D003
:10277000FEF7F4F9A0EB0800B04203D816B1012F20
:102780001FD021E02068012F15D0806925EA0000C4
:102790000004000C18D000BF44F8309F84F80DA04E
:1027A00084F80E90216941F02001216184F80C9099
:1027B0000120BDE8F087406925EA00000004000C14
:1027C000EAD12068406901E02068806925EA0000BC
:1027D0000004000CAFD1ECE72DE9F0410025904654
:1027E0000E460446202728E04069C043C0060CD4AA
:1027F00054F8301B6FF01000486144F810596777A7
:10280000A577206A2062257714E0FEF7A7F9A0EBF0
:102810000800B04200D886B920684069C04340062D
:102820000BD544F8305F6773A573206940F0200032
:10283000206125730120BDE8F08120684169C9430A
:102840004906D1D40020F6E770B516460D46044679
:102850001EE02046FFF795FD08B1012070BD681C01
:1028600016D0FEF77BF9801BA84200D885B92068F6
:102870004069C04300060BD5002044F8300F2021EA
:102880006173A073216941F0200121612073E4E7A5
:1028900020684069C0430006DBD4002070BD000002
:1028A0002DE9F04106461148002143880288084678
:1028B00000F04CF9012210210D48FEF749F90025DE
:1028C0004FF48C774FEA162800244046FEF71EF896
:1028D000F0B2FEF71BF8641CA4B2BC42F5D36D1C29
:1028E000ADB2F02DF0D3BDE8F0810000140000205F
:1028F0000000024070B5184D04460122022128460E
:10290000FEF726F96420FEF711F80022022128467E
:10291000FEF71EF96420FEF709F80122022128467D
:10292000FEF716F96420FEF701F80C490025F020A7
:102930000C714FF48C725CB14A800880362000F034
:10294000DBF8284600F0EEF8BDE8704000F008B86B
:1029500048800A807025F1E700040240140000203E
:1029600010B5362000F0C8F8002000F0DBF83A205F
:1029700000F0C2F8052000F0D5F8B22000F0BCF855
:102980000B2000F0CFF80B2000F0CCF8002000F076
:10299000C9F8332000F0C6F8352000F0C3F8B7209E
:1029A00000F0AAF8112000F0BDF8BB2000F0A4F858
:1029B000352000F0B7F8C02000F09EF82C2000F081
:1029C000B1F8C22000F098F8012000F0ABF8C32065
:1029D00000F092F80D2000F0A5F8C42000F08CF86B
:1029E000202000F09FF8C62000F086F8132000F0A9
:1029F00099F8D02000F080F8A42000F093F8A120EE
:102A000000F090F8D62000F077F8A12000F08AF8C6
:102A1000E02000F071F8F02000F084F8062000F0CB
:102A200081F80B2000F07EF80A2000F07BF80920E6
:102A300000F078F8262000F075F8292000F072F8F0
:102A4000332000F06FF8412000F06CF8182000F0FF
:102A500069F8162000F066F8152000F063F82920C8
:102A600000F060F82D2000F05DF8E12000F044F85F
:102A7000F02000F057F8042000F054F8082000F08F
:102A800051F8082000F04EF8072000F04BF8032022
:102A900000F048F8282000F045F8322000F042F815
:102AA000402000F03FF83B2000F03CF8192000F0F7
:102AB00039F8182000F036F82A2000F033F82E20DC
:102AC00000F030F8E42000F017F8252000F02AF894
:102AD000002000F027F8002000F024F8212000F06A
:102AE0000BF8112000F008F87820FDF71FFFBDE873
:102AF00010402920AFF3008010B5044600221021B9
:102B00000648FEF725F8002201210548FEF720F8C7
:102B10002046BDE81040FDF7F9BE0000000002406D
:102B20000004024010B50446012210210348FEF7BC
:102B30000FF82046BDE81040FDF7E8BE0000024057
:102B40000149096848637047480100202DE9F041B8
:102B5000064627481C46154600790F4601284FF0C7
:102B60002A0027D0FFF7C8FF1436C6F30720FFF767
:102B7000D9FFF0B2FFF7D6FF1335C5F30720FFF7F3
:102B8000D1FFE8B2FFF7CEFF2B20FFF7B5FF380AE1
:102B9000FFF7C8FFF8B2FFF7C5FF641EC4F30720B4
:102BA000FFF7C0FFE0B2FFF7BDFFBDE8F0412C200A
:102BB000FFF7A2BFFFF7A0FF300AFFF7B3FFF0B2A5
:102BC000FFF7B0FF6D1EC5F30720FFF7ABFFE8B2BC
:102BD000FFF7A8FF2B20FFF78FFF1437C7F307205D
:102BE000FFF7A0FFF8B2FFF79DFF1334D6E7000010
:102BF000140000202DE9F047151AAEB25D1AAFB2ED
:102C0000089CFFF7A3FF012210210D48FDF7A0FF4C
:102C10004FEA142904F0FF0800250DE0002407E026
:102C20004846FDF773FE4046FDF770FE641CA4B2F3
:102C3000B442F5D36D1CADB2BD42EFD3BDE8F08711
:102C4000000002401FB5184A01AB002407CA83E800
:102C50000700FDF73DFE4FF47A70FFF771FF01208A
:102C6000FFF748FE4FF6FF70FFF71AFE00203223F1
:102C70001E2100901A460846FFF7BCFF4FF4FA7079
:102C800001F0CCF901AD4FF48C76641CE4B2062C53
:102C900000D30024002135F8140000903346F022C0
:102CA0000846FFF7A7FFF0E70C5800087CB5134A69
:102CB0000021134801F0EEF9124900242346086070
:102CC0001720CDE900044FF400620FA1114802F073
:102CD0007DFB1825CDE900544FF4007600233246E1
:102CE0000DA1104802F072FBCDE9005400233246DA
:102CF0000DA1104802F06AFB7CBD0000E8570008F7
:102D00009D300008000000204C43445F5461736B09
:102D100000000000452C00085443485F5461736B69
:102D200000000000653100086C65645F5461736BDE
:102D300000000000C53F00082DE9F04387B01421D2
:102D40006846FDF7E7FA2F480024016841F00401C6
:102D50000160016801F004010591016841F0800102
:102D60000160016801F080010591016841F00101F5
:102D70000160016801F001010591016841F0020163
:102D800001600068204F00F002004FF400550590EC
:102D9000002229463846FDF7DBFEDFF8708000226E
:102DA00010214046FDF7D4FEDFF8649040F2031690
:102DB000002231464846FDF7CBFE00950125CDE9BE
:102DC0000154694638460394FDF7C2FD1020009077
:102DD000CDE90154694640460394FDF7B9FD0096DC
:102DE000CDE90154694648460394FDF7B1FD202022
:102DF000CDE90004694648460294FDF7A9FD07B0F5
:102E0000BDE8F08330380240000802400000024074
:102E1000000402400D4810B50B4901600C494160A7
:102E200000214FF480428160C0E903124161816159
:102E3000C1610162FDF798FE002803D0BDE8104093
:102E4000FDF771BD10BD0000005400409C00002043
:102E5000A0860100104810B50E4901604FF4827140
:102E600041604FF4004181600021C1604FF4007265
:102E70000161C0E90512C1610162416281620A21FA
:102E8000C162FEF77DFD002803D0BDE81040FDF7CC
:102E90004ABD10BD00300140F000002010B58EB0DA
:102EA00000240794089409940A940B941C21684602
:102EB0000C94FDF72FFA1F481D490160A721C0E9B6
:102EC000011440F6B731C0E903148461FEF7E8FE4F
:102ED00008B1FDF728FD4FF48050079007A9154869
:102EE000FEF760FF08B1FDF71EFD1248FFF7F1F88D
:102EF00008B1FDF718FD0B940BA90E480C94FEF7D2
:102F000087FE08B1FDF70FFD6020009040F2DC5015
:102F1000CDE901040022694606480494FFF773F8DE
:102F200008B1FDF700FD0348FFF744F80EB010BDEF
:102F300000040040480100200C4810B50A49016017
:102F40004FF4E1314160002181600C22C160C0E991
:102F500004128161C161FFF75AF9002803D0BDE86E
:102F60001040FDF7E0BC10BD0010014090010020B2
:102F7000FEE7FEE7F8B515460E460B4600920446FE
:102F80000122022100F02CF8A0B91348134900686F
:102F9000B0FBF1F04FF47A71484300906068B0F5EF
:102FA000827F0DD13346002280212046009500F01B
:102FB00017F870B1606D40F0200060650320F8BD27
:102FC000009830B1401E009020688068C043000621
:102FD000F6D50020F8BD00001000002000366E017C
:102FE0002DE9F8431E46914688460446089DFDF7A4
:102FF000B5FD401B351AFDF7B1FD074626480068B0
:10300000C0F3CB3068430AE0701C09D0FDF7A6FD81
:10301000C01BA8420FD275B10098B8B3401E0090F3
:103020002068816838EA010033D000214945EBD19E
:103030000020BDE8F8832068416821F0E00141608C
:103040006068B0F5827F0BD1A068B0F5004F02D068
:10305000B0F5806F04D12068016821F04001016063
:10306000A06AB0F5005F09D12068016821F4005121
:1030700001602068016841F400510160012084F87A
:103080005100002084F850000320D2E7FFE700251C
:10309000C6E70121CAE7000010000020012000F06F
:1030A000BDFFFBE710B54FF0E020006902F0E6F944
:1030B000012803D0BDE8104001F014BF10BD00008E
:1030C00030B593B030216846FDF724F914210CA8DF
:1030D000FDF720F91D480025016841F0805101608D
:1030E000006800F0805011901948016841F4804157
:1030F00001600068022400F48040119001200090DB
:10310000000401908001CDE9064008AA0420A8210E
:1031100082E813000B906846FEF77CFA08B172B69D
:10312000FEE70CA90F2081E831004FF4A0500F906A
:103130004FF48050109005210CA8FEF761F900288B
:1031400001D072B6FEE713B030BD00004038024037
:10315000007000400248016841F47001016070474E
:1031600088ED00E088B00020ADF80000ADF8040064
:103170000290039004900590FDF764FBFDF744FB7B
:10318000024612A102A800F08BFA82B20A2302A919
:103190001148FFF7A5F84FF4FA600EE0BDF80030D3
:1031A000BDF804200DA102A800F07AFA82B20A2329
:1031B00002A90948FFF794F8322000F02FFF694672
:1031C00001A8FDF757FB0028F6D0E7E769643A202D
:1031D00025580D0A0000000090010020583A2025D3
:1031E00064202C593A2025640D0A00000148FEF79E
:1031F00048BE0000D8010020F0B50268274B284DDA
:10320000284E294F294C4FF0804C984209D06045F8
:1032100007D0A84205D0B04203D0B84201D0A042A6
:1032200004D122F0700E4A6842EA0E0298421BD086
:10323000604519D0A84217D0B04215D0B84213D07B
:10324000A04211D01A4DA8420ED01A4DA8420BD060
:10325000194DA84208D0194DA84205D0184DA842D2
:1032600002D0184DA84203D122F44075CA682A43FF
:103270004D6922F080022A438D68C5620D6885621F
:10328000984201D0A04201D109690163016841F06F
:1032900004010160012141610260F0BD00000140B4
:1032A0000004004000080040000C00400004014001
:1032B0000040014000440140004801400018004027
:1032C000001C00400020004010B501F01F03012148
:1032D000046A99408C430462016A9A401143016276
:1032E00010BD10B5846842EA032224F47F440A43E7
:1032F0002243826010BD826822F070020A4342F0CD
:103300000701816070470000F0B5036A026A22F08D
:103310000102026242688469124E24F073050C684F
:103320002C4323F002058B682B430D4DA84201D09E
:10333000B04205D123F00807CB683B4323F00403D8
:10334000A84201D0B04205D14D6922F44072154324
:103350008A692A4342608461496841630362F0BD1F
:103360000000014000040140F0B5026A036A23F046
:1033700010030362436884690D6824F4E64444EA58
:1033800005248D6822F0200242EA05120F4D104EEE
:10339000A84201D0B04206D1CF6822F0800242EAB2
:1033A000071222F04002A84201D0B04207D14D6975
:1033B00023F4406343EA85038D6943EA8503436050
:1033C0008461496881630262F0BD00000000014031
:1033D00000040140F0B5026A036A23F480730362BB
:1033E0004368C46922F4007224F073050C68124E1D
:1033F0002C438D6842EA05220E4DA84201D0B0420E
:1034000006D1CF6822F4006242EA072222F48062E9
:10341000A84201D0B04207D14D6923F4405343EA9A
:1034200005138D6943EA05134360C4614968C163AC
:103430000262F0BD000001400004014030B5046AA2
:10344000026A22F4805202624268C3690D6823F462
:10345000E64343EA05238D6824F4005444EA053426
:10346000084DA84202D0084DA84204D14D6922F46B
:10347000804242EA85124260C36149680164046285
:1034800030BD0000000001400004014010B5036A97
:10349000046A24F001040462846924F0F00444EA1C
:1034A000021423F00A020A438461026210BD10B5BF
:1034B000036A046A24F010040462846923F0A00300
:1034C00024F4704444EA023243EA01118261016249
:1034D00010BD01680C3151E8002F22F4907241E8D0
:1034E0000023002BF5D10168143151E8002F22F0A0
:1034F000010241E80023002BF5D1016B012909D11C
:1035000001680C3151E8002F22F0100241E800233D
:10351000002BF5D1202180F8421000210163704773
:1035200070B5044600680169E26821F44051114316
:1035300001612169A068E269084361691143084398
:103540002168CA6849F20C639A430243CA60206842
:103550004169A26921F440711143416131492068F8
:10356000884202D03049884202D1FEF713F801E0C8
:10357000FEF700F8E2690023192164253226B2F52E
:10358000004F626828D0A0FB0101930F9200FCF766
:1035900077FE0146B0FBF5F06FF01802504301EBE7
:1035A000800006EB0010B0FBF5F000F0F002B1FB7C
:1035B000F5F002EB0012B1FBF5F06FF01803584381
:1035C00001EB800006EB0010B0FBF5F000F00F00FF
:1035D00021681044886070BDA0FB010192185B4116
:1035E000FCF74EFE0146B0FBF5F00201B1FBF5F031
:1035F0006FF01803584301EB800006EBC000B0FBEE
:10360000F5F000F0F80002EB4002B1FBF5F0584392
:1036100001EB800006EBC000B0FBF5F000F0070006
:10362000D6E7000000100140001401402DE9F843E6
:10363000984617460D460446089E24E0701C22D08A
:10364000FDF78CFAA0EB0800B0421AD8CEB1206882
:10365000C168490717D5802D15D0402D13D00168BA
:10366000C94309070FD4016800254068009020462F
:10367000FFF72FFF0820606484F840500120BDE868
:10368000F8830320FBE72068006835EA000004D0D7
:103690000020B842D2D00020F1E70120F9E7FEE790
:1036A0000FB4084B10B504A902AA039800F0EEF875
:1036B000044602A9002000F080FC204610BC5DF802
:1036C00014FB0000BB3F00080907090E002804DBBB
:1036D00000F1E02080F80014704700F00F0000F1C6
:1036E000E02080F8141D704702E008C8121F08C1CE
:1036F000002AFAD170477047002001E001C1121F73
:10370000002AFBD1704700002DE9FF5F82B0002145
:10371000DDE90430020DDDF840B0034318D044F673
:103720001050A2F2FF3242431514119801281FD005
:10373000A5EB0B00401C5FEA000A4FF000064E4F5D
:10374000DFF83891B046504615D5CAF1000413E0B1
:10375000119801244AA3012801D16FEA0B010298B4
:10376000119AC0E90031C0E9024206B0BDE8F09FFD
:10377000CBF10000DFE704460021404A491842EB44
:103780000450CDE9001012E0E00707D032463B4676
:1037900040464946FCF7A5FE8046894632463B46F0
:1037A00010461946FCF79DFE06460F466410002C95
:1037B000EAD1DDE90401DDE90023BAF1000F06DA00
:1037C000FCF78FFE42464B46FCF78BFE05E0FCF70C
:1037D000FAFE42464B46FCF7F6FE04460E46002231
:1037E000284BFCF777FF03D84FF0FF30014607E086
:1037F0000022254B20463146FCF7CCFDFCF752FF5A
:10380000102409E0002C0ADB0A220023FCF738FD13
:10381000039B30321A55641E50EA0102F2D1641C37
:10382000039AC4F111031444119A012A03D001220E
:1038300008430DD10AE0084304D000204FF0110BDB
:10384000119072E7A3EB0B056D1E0DE05B4504DDE7
:103850004FF0000205F1010504E003DA4FF0000229
:10386000A5F10105002AECD002981199C0E90231B6
:10387000C0E9004579E70000000014400000F03F77
:10388000300000000000F0430000E03F2DE9FF4F52
:1038900095B09B468946064600250FE2252877D13C
:1038A00000242746F84A0121059400E0044316F855
:1038B000013F203B01FA03F01042F7D130782A286B
:1038C00011D06FF02F033078A0F13002092A16D8FA
:1038D000059A44F0020402EB820203EB4202104418
:1038E000761C0590EFE759F8042B0592002A03DABD
:1038F000504244F40054059044F00204761C3078A1
:103900002E2816D116F8010F44F004042A280DD0F1
:103910006FF02F023078A0F13003092B09D807EBA4
:10392000870302EB4303C718761CF3E759F8047BBF
:10393000761C30786C280FD006DC4C2817D068280D
:103940000DD06A2814D104E0742810D07A280FD141
:103950000DE044F400140AE044F4801401E044F45F
:1039600040147278824202D104F58014761C761CD1
:10397000307866280BD013DC582877D009DC002873
:1039800075D04528F6D04628F4D047281AD19DE1B5
:1039900018E0632835D0642879D0652812D195E1E4
:1039A000702873D008DC6728F1D069286FD06E28A2
:1039B0000DD06F2806D1B5E073282CD0752875D0AE
:1039C000782874D05A46179990476D1C75E1C4F356
:1039D0000250022809D003280DD0D9F8001004287D
:1039E0000DD00D6009F1040967E1D9F80010EA175C
:1039F000C1E90052F6E7D9F800100D80F2E70D702A
:103A0000F0E719F8041B8DF8001000208DF8010074
:103A1000EA46012003E059F804AB4FF0FF3061079C
:103A20004FF0000102D40DE008F101018846B942CF
:103A30000FDA8045F8DB1AF808100029F4D108E005
:103A400008F1010188468142FADB1AF808100029C2
:103A5000F6D105985B46A0EB080721463846179A31
:103A600000F094FA284400EB080507E04DE029E156
:103A70000DE01AF8010B5A4617999047B8F1010862
:103A8000F7D25B4621463846179A13E142E00A22F4
:103A90000092C4F302524FF0000A022A08D059F8EB
:103AA00004CB032A4FEAEC710AD00DE029E02AE0AA
:103AB00009F1070121F00702F2E802C1914609E08D
:103AC0000FFA8CFC4FEAEC71042A03D14FFA8CFCFC
:103AD0004FEAEC71002907DA0A460021DCF1000CFC
:103AE00061EB02012D2202E0220504D52B228DF884
:103AF0000420012203E0E20701D02022F7E79046EC
:103B000059E00A2102E010220DE010214FF0000AD6
:103B100000910BE010224FF0000A44F00404082743
:103B2000009203E008224FF0000A0092C4F3025210
:103B3000022A05D059F804CB0021032A08D009E055
:103B400009F1070121F00702F2E802C1914605E000
:103B50001FFA8CFC042A01D10CF0FF0C4FF0000876
:103B6000220728D5702806D0009B83F0100353EA63
:103B70000A0305D00EE040228DF80420012208E05F
:103B80005CEA010206D030228DF804208DF8050091
:103B900002229046009B83F0080353EA0A030AD1ED
:103BA0005CEA010201D1620705D530228DF80420BC
:103BB0004FF001087F1E582804D034A003900EA8AF
:103BC00002900DE036A0F9E753466046009AFCF7F4
:103BD00057FB84460398825C0298401E0290027054
:103BE0005CEA0100F0D1029806A9081A00F1200A47
:103BF000600702D524F4803400E00127574502DD38
:103C0000A7EB0A0000E0002000EB0A0100900598F5
:103C10004144401A0590E00306D45B462146179ABA
:103C2000059800F0B3F90544002706E001A85A46BC
:103C3000C05D179990476D1C7F1C4745F6DBE0037C
:103C40000CD55B462146179A059800F09FF905446C
:103C500004E030205A46179990476D1C0099481E81
:103C600000900029F5DC08E0029802995A46007895
:103C7000491C0291179990476D1CBAF10001AAF1F5
:103C8000010AF1DC65E1000009280100303132331E
:103C90003435363738396162636465660000000088
:103CA0003031323334353637383941424344454672
:103CB0000000000000F058F90544761C3078002818
:103CC0007FF4ECAD19B02846BDE8F08F620700D450
:103CD000062709F1070222F0070CFCE80223E1465F
:103CE00003F000485FEA080C02D00FF2702C0DE0E0
:103CF0005FEA045C02D50FF2682C07E05FEAC47C3F
:103D000002D00FF2602C01E0AFF2700C4FF0FF38E0
:103D100023F00043CDF850C065280CD006DC4528C0
:103D200009D046281DD047283DD13DE0662818D04F
:103D300067287ED138E00021112F01DB112000E03F
:103D4000781CCDE9000106A90EA8FFF7DDFCDDE92E
:103D50000F010E9A03910021009207F1010A0491CC
:103D60004DE04FF000400097CDE9011006A90EA8E4
:103D7000FFF7CAFCDDE90F0203920E9B11990022A6
:103D8000DDF80CA00093049211B9791C00EB010A34
:103D9000B7EB0A0004D4C0F1FF3007F1010A049028
:103DA000AAEB0700019044E0012F00DA012700216F
:103DB000112F01DD112000E03846CDE9000106A9F0
:103DC0000EA8FFF7A1FCDDE90F010E9A0391002177
:103DD00004910092BA4621070CD40399514500DAA8
:103DE0008A46BAF1010F05DD009AAAF10101515C82
:103DF000302908D0B84202DA10F1040F06DA0121A6
:103E0000CDE9011015E0AAF10101E9E7002805DC80
:103E1000049901440491AAEB000102E0411C5145C0
:103E200000DD8A460499401A401C01904FF0004082
:103E30000290200704D40198504501DBCDF804809E
:103E400000208DF84F0002980DF14F07B0F1004FA0
:103E500025D02B200E9002984FF0020800280CDA93
:103E6000404202902D200E9007E00A210298FCF7B4
:103E70005CFA3031029007F8011DB8F10001A8F199
:103E80000108F2DC02980028EFD1791E0E98087024
:103E9000307800F0200040F0450007F8020D12A82D
:103EA000C01B00F107081498007800B1012000EB56
:103EB0000A01019801EBE07105984144401A401E47
:103EC0000590E00306D45B462146179A059800F05A
:103ED0005DF805441498007818B15A461799904730
:103EE0006D1CE00324D55B462146179A059800F027
:103EF0004DF805441CE00498002807DBDDE90301C8
:103F0000884203DD0098405C179901E01799302042
:103F10005A469047049805F10105401C0490019809
:103F2000401E019004D12E205A46179990476D1CCF
:103F3000BAF10001AAF1010ADDDC05E017F8010B76
:103F40005A46179990476D1CB8F10001A8F1010875
:103F5000F4DC5B462146179A0598ABE62D0000007D
:103F60002B000000200000002DE9F0410446002550
:103F70001E461746880404D405E039462020B04781
:103F80006D1C641EF9D52846BDE8F0812DE9F0418D
:103F9000044600251E469046C80301D5302700E0A0
:103FA0002027880404D505E041463846B0476D1CFB
:103FB000641EF9D52846BDE8F0810A68531C0B60E1
:103FC00010707047064D4FF400544FF4FA762146B6
:103FD0002846FCF7B5FD304600F020F8F7E7000072
:103FE00000080240FDF750F9FFF76AF8FEF7A4FE5B
:103FF000FEF754FFFEF72EFFFEF70CFFFEF79CFFC7
:1040000000210548FEF794F800F016F8FEF74EFE82
:1040100000F024F8FEE700004801002010B5EFF39F
:10402000058111B16FF0050403E0002408B100F030
:10403000F9FD204610BD0000EFF3058010B16FF0D0
:10404000050070470448016811B14FF0FF30704718
:1040500001210160002070476C00002010B5EFF3D3
:10406000058010B16FF0050010BD084801680129F6
:1040700002D04FF0FF3010BD054A002182F8141D18
:104080000221016000F036FE002010BD6C0000200F
:104090000BE000E02DE9FF414FEA01034FF000057E
:1040A000EFF30581039549BB40B380271821002415
:1040B0004AB3166806B1344696691EB13146761E7B
:1040C000382E02D21679F60703D0002004B0BDE8DE
:1040D000F081566906B1B708D2F808C0BCF1000FEC
:1040E0000DD0D5685C2D18D312693AB136B18DE880
:1040F00006103A46214601F096F903900DE0D66885
:104100005EB912694AB903AACDE90012BAB22146D2
:1041100001F05CF9012800D003950398D6E7000070
:104120002DE9F041134C0F460546E6682068001D56
:1041300000F044FC681C07D137B12168BDE8F041AC
:104140000D48091D00F08ABC20683544B542456021
:10415000216805D2A06BBDE8F041091D00F066BCE6
:10416000606B091D00F062FCA06A854200D2A56266
:10417000BDE8F0811C000020100700202DE9F0416F
:10418000054600F077FC2D4CA068401CA06020681C
:104190002B4F10B1606930B32BE02560A068012877
:1041A00027D1002606EB860007EB800000F030FCEC
:1041B000761C382EF6D3234800F02AFC2148143010
:1041C00000F026FC1F48283000F022FC1D483C303F
:1041D00000F01EFC1B48503000F01AFC19486063C8
:1041E0001430A06305E02068E96AC06A884200D8FC
:1041F0002560606A401C60626864E86A21698842E0
:1042000000D9206100EB800007EB8000291D00F041
:1042100025FC00F04FFC606900280CD02068E96A9A
:10422000C06A884207D208494FF080500860BFF347
:104230004F8FBFF36F8FBDE8F08100001C0000209E
:1042400060020020C006002004ED00E038B500F058
:1042500011FC104C2068C8B90F4800F0D9FB0E487B
:10426000143000F0D5FB0C48E060143020610A4B9C
:104270000020F03B009003F1500210210A2000F0D2
:1042800047FE206010B105A100F096FCBDE8384063
:1042900000F010BC5800002014080020546D72512A
:1042A0000000000030B4026C0B46002A0BD0C1683D
:1042B0001144C1608468A14201D30168C16030BC6F
:1042C0001846FCF70EB830BC70472DE9F041856BFD
:1042D000174604460026026C82B1C7B1E068FCF7BD
:1042E00000F8E168206C091AE1602268914202D26C
:1042F000A168081AE060022F16D017E02068A8B95C
:10430000A06801F033F906460020A0600EE0606866
:10431000FBF7E7FF216C606808446060A168884291
:1043200004D32068606001E005B16D1E6D1CA563BB
:104330003046BDE8F08110B5044690F8590058B1F8
:1043400001280CD002280FD0502080F31188BFF331
:104350004F8FBFF36F8FFEE7206B00F0BFFB20464F
:10436000BDE8104000F0BABB10BD000010484FF48B
:104370007051420706D0C01D0D4920F00700411AB8
:10438000C1F570510B4A00230144C2E9000308390A
:10439000183A21F0070111604B600B600B1AC0E95D
:1043A000001393604FF0004053605061704700006D
:1043B000F40E002088000020144E154CA6F29C47F5
:1043C0004FF08058DFF84C9012E000BF00F052FB35
:1043D000F068C568281D00F0F1FAA068401EA060D2
:1043E0006068401E606000F065FB2846FFF7A3FF91
:1043F00060680028EAD138680128F9D9C9F8008036
:10440000BFF34F8FBFF36F8FF2E70000FC06002071
:104410001C00002004ED00E070B51D46049C51B165
:10442000C4F80020C4E90F010121204600F0A4FDDA
:1044300084F84C5070BD2460F4E700002DE9F05F73
:104440008846DDE90B941546834691009A460A9EFC
:10445000A522206BFBF757FF6FF00301206B01EBE8
:104460008501084420F00707780707D0502080F323
:104470001188BFF34F8FBFF36F8FFEE70025B8F1B0
:10448000000F0FD05FF00000221818F8001082F81B
:10449000341018F8001011B1401C1028F4D384F81F
:1044A000435001E084F83450382E00D33726E662BA
:1044B000C4E91365201D00F0B6FA04F1180000F0FD
:1044C000B2FA2461C6F138006462A061656584F8BF
:1044D000585052465946384600F05AFA2060B9F111
:1044E000000F01D0C9F80040BDE8F09F30B5114978
:1044F00000E011460A688242FBD34B685C18844294
:1045000003D1406818444860084643681C18944228
:1045100009D1084C183C2468A24209D052681A44B8
:1045200042600A6812680260814200D0086030BDB3
:104530000460F9E78800002070B5002441600B4D4D
:104540000061914206D8D11A8269914206D2011DBA
:10455000286907E09A4203D2994201D3012403E07B
:10456000011DE86800F062FA204670BD5800002086
:1045700010B5044600F07EFAA06B28B15FF000048D
:1045800000F098FA204610BD0124F9E730B589B053
:104590003C4D6EE00498002806DADDE90601059A34
:1045A00090470498002864DB069C606910B1201DC8
:1045B00000F004FA03A800F0D7F8024604980A288D
:1045C00057D2DFE800F00505052D334A05052D33E8
:1045D00094F8280040F0010084F828000599A069AB
:1045E000059B01442046FFF7A7FF68B3216A2046D8
:1045F000884794F8280040073BD500200090059894
:10460000A169002342181946204601F0B9F8D8B92B
:10461000502080F31188BFF34F8FBFF36F8FFEE7F9
:1046200014F8280F20F00100207022E094F82800F0
:1046300040F0010084F828000598A06128B1811895
:1046400013462046FFF778FF13E0502080F31188CF
:10465000BFF34F8FBFF36F8FFEE794F828008107F9
:1046600003D4204600F03AFA03E020F0010084F879
:104670002800002204A9286800F0D2FD002889D172
:1046800009B030BD580000202DE9FC410F46054619
:1046900000F074FB01A800F067F80446019818B117
:1046A00000F0DCFFBDE8FC81254EAFB13069006849
:1046B000D0B30027291B3A46306800F091FA00F089
:1046C000CDFF0028EED11F494FF080500860BFF3A6
:1046D0004F8FBFF36F8FE5E7A542EBD800F0BEFF29
:1046E000F0682746C068C468201D00F067F994F898
:1046F0002800410719D5A0692B4641193A462046A2
:10470000FFF71AFFA8B100200346014600902A4691
:10471000204601F035F860B9502080F31188BFF3CE
:104720004F8FBFF36F8FFEE707E020F0010084F8A2
:104730002800216A20468847B4E70127BAE700002D
:104740005800002004ED00E00648416B096829B1DB
:10475000416BC968C9684968816270474FF0FF3191
:10476000FAE700001C00002070B5054600F094FE3A
:10477000064E0446B068844203D200F009F80120D6
:1047800000E0002028602046B46070BD5800002082
:10479000F8B5194D20E0C068C4680668201D00F017
:1047A0000DF9216A2046884794F82800400713D560
:1047B000A0693044B04206D924616060211DE868D8
:1047C00000F034F908E0002003460146009032462C
:1047D000204600F0D5FF38B1E86801680029DAD139
:1047E0002969C5E90310F8BD502080F31188BFF393
:1047F0004F8FBFF36F8FFEE75800002008484068D6
:10480000401C4FF0500080F3118804D0BFF34F8F4D
:10481000BFF36F8FFEE7BFF34F8FBFF36F8FFEE7DE
:1048200090000020074CE068016841B1C068002199
:10483000D0F80000FFF728FFFFF7A8FEF3E70121FB
:104840000020F7E7580000202DE9F041044600F071
:1048500011F994F9455004F1240609E0606A48B161
:10486000304600F0C3FE08B100F00AFA6D1E6DB2CA
:10487000002DF3DC4FF0FF3684F8456000F01AF9A4
:1048800000F0F8F894F9445004F1100709E02069A9
:1048900048B1384600F0AAFE08B100F0F1F96D1EEB
:1048A0006DB2002DF3DC84F84460BDE8F04100F007
:1048B00001B900002DE9F0410546002700F05EFA3D
:1048C000324E306808B9FFF751FD706905424ED18C
:1048D000C5B3083568070ED005F00700C0F1080021
:1048E0000544680707D0502080F31188BFF34F8F2D
:1048F000BFF36F8FFEE72DB37068854237D823482A
:10490000183001460C6801E020460C466168A94257
:1049100002D221680029F7D131688C4227D007687C
:104920002168016060680837411B10290FD96019A0
:10493000420708D0502080F31188BFF34F8FBFF398
:104940006F8FFEE713E041606560FFF7CFFD6168A0
:104950007068401A7060B268904200D2B0607069AE
:1049600001430020C4E90001F068401CF06000F041
:1049700075FE780707D0502080F31188BFF34F8F62
:10498000BFF36F8FFEE73846BDE8F081700000206E
:1049900010B5031F4FF080741C601B1F21F0010134
:1049A0001960191F044B0B6014390A60091F6FF05E
:1049B000020244380A6010BDFD470008D0E9013208
:1049C00001699A60D0E901235A604A68824201D1A4
:1049D00082684A60002202610868401E0860086818
:1049E00070470000034B036003F15C000860802007
:1049F000106070473C080020044B036003F15C002A
:104A000008604FF48070106070470000980A002022
:104A100000F108014FF0FF32C0E90112C1600161ED
:104A200000210160704700210161704730B50B68BB
:104A30005A1C02D000F1080202E0026904E022469A
:104A4000546825689D42FAD953684B6099608A6022
:104A5000516008610168491C016030BD42684A60CC
:104A600093688B6093685960916008610168491C84
:104A700001607047502080F31188BFF34F8FBFF360
:104A80006F8F0A494868401C486001280CD10848CB
:104A9000006810F0FF0F07D0502080F31188BFF39B
:104AA0004F8FBFF36F8FFEE770470000900000202C
:104AB00004ED00E00849486828B1401E486001D173
:104AC00080F311887047502080F31188BFF34F8F17
:104AD000BFF36F8FFEE700009000002070B5002844
:104AE0002AD0164DA0F1080460686969084207D110
:104AF000502080F31188BFF34F8FBFF36F8FFEE715
:104B000022683AB1502080F31188BFF34F8FBFF372
:104B10006F8FFEE78843606000F030F96068696875
:104B2000084468602046FFF7E1FC2869401C2861C2
:104B3000BDE8704000F092BD70BD00007000002024
:104B40004FF0E02000210161816105494FF47A7244
:104B50000968B1FBF2F1491E41610721016170470B
:104B60001000002010B5FBF775FB114910280ED37B
:104B700000F1E02090F8F0030A78904207D250202C
:104B800080F31188BFF34F8FBFF36F8FFEE70948A3
:104B90000068896800F4E060884207D9502080F3FB
:104BA0001188BFF34F8FBFF36F8FFEE710BD00007A
:104BB000900000200CED00E010B5084B002200BF73
:104BC00053F832401CB1521C082AF9D310BD43F8E7
:104BD000321003EBC201486010BD0000200200202B
:104BE00070B515460E460446FFF744FF94F944108D
:104BF0000020491C01D184F8440094F94510491C57
:104C000001D184F84500FFF755FFA06B28B92A466B
:104C1000314604F1240000F051F82046BDE8704010
:104C2000FFF712BE10B5020014D00F48006B38B168
:104C3000502080F31188BFF34F8FBFF36F8FFEE7D3
:104C400000F09CF800211046FFF76AFA00F006FD1C
:104C5000002807D105494FF080500860BFF34F8FFF
:104C6000BFF36F8F10BD00001C00002004ED00E0BA
:104C700002490A6A0260C968416070471C0000204E
:104C800001490120C86170471C00002010B50C4686
:104C900050B1094909681831FFF7C8FE2046BDE840
:104CA00010400121FFF73CBA502080F31188BFF378
:104CB0004F8FBFF36F8FFEE71C00002070B51446C6
:104CC0000D4668B10A4909681831FFF7C7FE0CB1F3
:104CD0004FF0FF3521462846BDE87040FFF720BA67
:104CE000502080F31188BFF34F8FBFF36F8FFEE723
:104CF0001C00002030B587B00024039405AA04A945
:104D000003A80494FFF76EFEDDE903010094CDE9EA
:104D10000110002315A11748059A00F084FB164DD9
:104D20000028E8621FD000F0FBFC012809D0401CDD
:104D300019D1502080F31188BFF34F8FBFF36F8FCD
:104D4000FEE7502080F31188BFF34F8FBFF36F8FC2
:104D50004FF0FF30A86201206861EC6007B0BDE849
:104D6000304000F045B807B030BD000049444C4524
:104D700000000000B94300081C0000200248016B3D
:104D8000491C0163704700001C000020164810B544
:104D9000016B11B10121C16110BD0021C161016927
:104DA000124A01E0B9B1491E01EB810352F82330E8
:104DB000002BF7D001EB810302EB830202F1080420
:104DC00053685B685360A34201D15B685360DA6843
:104DD0000260016110BD502080F31188BFF34F8F36
:104DE000BFF36F8FFEE700001C0000206002002070
:104DF0001CB537480168374A914207D1502080F3EB
:104E00001188BFF34F8FBFF36F8FFEE70068314902
:104E1000491E884207D1502080F31188BFF34F8F7D
:104E2000BFF36F8FFEE72C4908780190FF200870D0
:104E300008788DF800009DF800009DF8002000F033
:104E4000F000904207D0502080F31188BFF34F8FBD
:104E5000BFF36F8FFEE79DF80000204C00F050007C
:104E600020700720A06005E09DF8002052008DF81A
:104E70000020401E9DF800201206F5D4A0600328F3
:104E800007D0502080F31188BFF34F8FBFF36F8F8F
:104E9000FEE74FF44070A060019808700C48203085
:104EA000016841F470010160016841F070410160E6
:104EB000FFF746FE00206060FBF794F908480168A0
:104EC00041F040410160FBF779F900201CBD000072
:104ED00000ED00E071C20F4100E400E0900000200E
:104EE00034EF00E010B5502080F31188BFF34F8FEE
:104EF000BFF36F8F00F0D6FA18B104494FF080501D
:104F00000860002080F3118810BD000004ED00E06F
:104F100038B5049D18B153B1CAB181B120E0502019
:104F200080F31188BFF34F8FBFF36F8FFEE75020E0
:104F300080F31188BFF34F8FBFF36F8FFEE75020D0
:104F400080F31188BFF34F8FBFF36F8FFEE739B146
:104F5000502080F31188BFF34F8FBFF36F8FFEE7B0
:104F600050241C46012384F846302B460094FFF75A
:104F700053FA204638BD000070B50D46040025D018
:104F8000FFF778FDD4E90F20216802FB0011A16032
:104F90000021A163216861600A46D4E90F01401E27
:104FA00000FB0121E16021464FF0FF3001F8440F82
:104FB000487004F110008DB1FFF72AFD04F12400C0
:104FC000FFF726FDFFF776FD012070BD502080F32E
:104FD0001188BFF34F8FBFF36F8FFEE72169002960
:104FE000F0D000F003FB0028ECD004494FF08050D3
:104FF0000860BFF34F8FBFF36F8FE3E704ED00E06E
:105000002DE9FF4782B01D468A464FF00008040094
:1050100003D0BAF1000F08D011E0502080F31188BE
:10502000BFF34F8FBFF36F8FFEE7206C38B1502076
:1050300080F31188BFF34F8FBFF36F8FFEE7022D10
:105040000AD1E06B012807D0502080F31188BFF30C
:105050004F8FBFF36F8FFEE700F010FA3F4F4FF016
:1050600000094FF0805648B9049838B1502080F3B9
:105070001188BFF34F8FBFF36F8FFEE7FFF7FAFC86
:10508000A06BE16B884207D3022D05D00498D0B104
:10509000B8F1000F1AD01EE02A4651462046FFF70D
:1050A00014F9616A19B104F1240000F09FFA20B1EB
:1050B0003E60BFF34F8FBFF36F8FFFF7FBFC012004
:1050C00006B0BDE8F087FFF7F5FC22E06846FFF781
:1050D000CFFD4FF00108FFF7EDFCFFF74FFEFFF7A4
:1050E000C9FC94F94400401C01D184F8449094F91F
:1050F0004500401C01D184F84590FFF7DBFC04A972
:10510000684600F029F930B12046FFF79DFB00F01A
:10511000A5FA0020D4E7FFF7ADFCA06BE16B884255
:1051200013D1FFF7C7FC04F110000499FFF7AEFD9F
:105130002046FFF789FB00F091FA00289ED13E60DF
:10514000BFF34F8FBFF36F8F98E7FFF7B3FC204695
:10515000FFF77AFB00F082FA90E7000004ED00E030
:105160002DE9F0471F4690468946040003D0B9F167
:10517000000F08D011E0502080F31188BFF34F8F4B
:10518000BFF36F8FFEE7206C38B1502080F3118899
:10519000BFF34F8FBFF36F8FFEE7022F0AD1E06B93
:1051A000012807D0502080F31188BFF34F8FBFF341
:1051B0006F8FFEE7FFF7D6FC5020EFF3118680F3E8
:1051C0001188BFF34F8FBFF36F8FA06BE16B8842E5
:1051D00006D3022F04D0002086F31188BDE8F087A3
:1051E00094F94550A06B3A4649462046FFF76DF8C2
:1051F000681C04D06D1C84F845500120ECE7606AFF
:105200000028FAD004F1240000F0F0F90028F4D0CE
:10521000B8F1000FF1D00121C8F80010EDE700004F
:105220002DE9F747002683B08A46040003D0BAF17F
:10523000000F08D011E0502080F31188BFF34F8F8A
:10524000BFF36F8FFEE7206C38B1502080F31188D8
:10525000BFF34F8FBFF36F8FFEE700F00FF9DFF85A
:10526000F4804FF000094FF0805748B9059838B1E5
:10527000502080F31188BFF34F8FBFF36F8FFEE78D
:10528000FFF7F8FBA56BC5B151462046FFF70AF8BA
:105290006D1EA563206950B104F1100000F0A6F95D
:1052A00028B1C8F80070BFF34F8FBFF36F8FFFF7BF
:1052B00001FC012006B0BDE8F087059808B11EB1D9
:1052C00006E0FFF7F7FB27E06846FFF7D1FC012671
:1052D000FFF7F0FBFFF752FDFFF7CCFB94F944001A
:1052E000401C01D184F8449094F94500401C01D140
:1052F00084F84590FFF7DEFB05A9684600F02CF81E
:10530000002820460AD0FFF79FFA00F0A7F92046B0
:10531000FFF72EF90028B3D00020CBE7FFF728F9DC
:1053200090B104F124000599FFF7B0FC2046FFF787
:105330008BFA00F093F90028A2D1C8F80070BFF3EF
:105340004F8FBFF36F8F9BE72046FFF77DFA00F08A
:1053500085F995E704ED00E02DE9F0410C460500E4
:1053600011D0C4B1FFF786FB174BDA686E6820686E
:10537000911B471C17D02F681B6A9F4219D0964279
:1053800017D8012410E0502080F31188BFF34F8F0D
:10539000BFF36F8FFEE7502080F31188BFF34F8F6C
:1053A000BFF36F8FFEE70024FFF784FB2046BDE8C4
:1053B000F081884205D9401A20602846FFF758FC42
:1053C000F1E700202060DCE71C0000202DE9FF5FF2
:1053D0008346DDE90E87994616468A469000FFF718
:1053E00069FA05001CD05C20FFF764FA040014D0B1
:1053F0000020256384F85900CDE90240CDE90087FB
:105400004B46324651465846FFF718F82046FEF7FD
:10541000B5FE012004B0BDE8F09F2846FFF75EFB13
:105420004FF0FF30F6E7F0B585B0DDE90B640A9D7B
:10543000A6B1DCB15C2700972663022684F8596088
:10544000002604AFCDE90246CDE90057FEF7F6FF8E
:105450002046FEF793FE049805B0F0BD502080F37F
:105460001188BFF34F8FBFF36F8FFEE7502080F39B
:105470001188BFF34F8FBFF36F8FFEE70548416977
:1054800019B1006B18B1002070470120704702204D
:10549000704700001C0000200148C06870470000F1
:1054A0001C0000202DE9F0412E4C0027206B28B174
:1054B000A069401CA0613846BDE8F081E668761C12
:1054C000E66013D1606B006838B1502080F311881A
:1054D000BFF34F8FBFF36F8FFEE7606BA16B61630C
:1054E000A063206A401C2062FFF72EF9A06ADFF853
:1054F0007880864209D3606B0068A0B1606BC06899
:10550000C5686868864211D2A0622068C06A00EB54
:10551000800158F82100012800D90127E0690028FE
:10552000C9D00127C7E74FF0FF30EDE7281DFFF78F
:1055300045FAA86A18B105F11800FFF73FFAE86AC2
:105540002169884200D9206100EB800108EB8100CD
:10555000291DFFF783FAE86A2168C96A8842CAD31D
:105560000127C8E71C0000206002002070B504007D
:105570004FF0000133D01B4D2868844207D05020E3
:1055800080F31188BFF34F8FBFF36F8FFEE7206D5D
:1055900038B1401E2065E36CE26A9A421FD040B1E8
:1055A0001DE0502080F31188BFF34F8FBFF36F8F42
:1055B000FEE7201DFFF702FAE06CE062C0F1380060
:1055C000A061E06A2969884200D92861064900EB98
:1055D000800001EB8000211DFFF740FA0121084601
:1055E00070BD00001C0000206002002070B5C06883
:1055F000C46854B104F118000646FFF7DFF9144DF2
:10560000286B50B13146134815E0502080F31188C3
:10561000BFF34F8FBFF36F8FFEE7201DFFF7CEF96B
:10562000E06A2969884200D928610B4900EB8000B3
:1056300001EB8000211DFFF711FAE06A2968C96AB1
:10564000884202D90120E86170BD002070BD0000D1
:105650001C000020E8060020600200202DE9F04731
:105660002C4D00242746286B38B1FFF703FA286B2E
:10567000401E2863286B40B146E0502080F311881B
:10568000BFF34F8FBFF36F8FFEE7A968224E012053
:10569000D1B3A6F5916980463068E0B1F068C4687E
:1056A00004F11800FFF78AF9201DFFF787F9E06A77
:1056B0002969884200D9286100EB800109EB81004B
:1056C000211DFFF7CBF9E06A2968C96A8842E3D354
:1056D000C5F81C80E0E70CB1FFF736F8AC694CB1B7
:1056E0004FEA0806FFF7DEFE00B1EE61641EF9D155
:1056F0000020A861E86938B1084901273807086027
:10570000BFF34F8FBFF36F8FFFF7D4F93846BDE873
:10571000F08700001C000020E806002004ED00E0F7
:1057200010B586B0FEF792FD114C2068B8B100208C
:105730000390049005AA04A903A8FFF75DF9DDE929
:10574000032102208DE8070000230AA10B48059AD7
:10575000FFF769FE606010B106B0012010BD502057
:1057600080F31188BFF34F8FBFF36F8FFEE7000008
:1057700058000020546D72205376630025480008BD
:105780002DE9FF411E46134602000A9D4FF000001E
:1057900016D0144C2768002F0FD0CDE900130292C9
:1057A000062917DAFFF76AFE02284FF000030FD030
:1057B000002269462068FFF723FC04B0BDE8F081B1
:1057C000502080F31188BFF34F8FBFF36F8FFEE738
:1057D0002A46EEE70023324669463846FFF7C0FC0A
:1057E000EBE70000580000203058000800000000DF
:1057F00000000000000000000000000000020000A7
:10580000180000000000000000000000FFFF00F88A
:105810001F00E007308407FC0000000000000000CB
:105820000102030406070809000000000102030446
:1058300064656661756C745461736B005C58000834
:10584000000000209C000000E8360008F85800081E
:105850009C0000205C4E0000F836000800000000AC
:105860000100000010000000000000000024F4000F
:105870000000000000000000000000000000000028
:105880000000000000000000000000000000000018
:105890000000000000000000000000000000000008
:1058A00000000000000000000000000000000000F8
:1058B00000000000000000000000000000000000E8
:1058C00000000000000000000000000000000000D8
:1058D00000000000000000000000000000000000C8
:1058E00000000000000000000000000000000000B8
:0858F000AAAAAAAA0000000008
:040000050800018965
:00000001FF
