:020000040800F2
:1000000060080020590200088F390008B930000844
:100010008D39000869200008C3480008000000006E
:100020000000000000000000000000003D45000846
:10003000FD20000800000000114400083F450008B2
:1000400073020008730200087302000873020008BC
:1000500073020008730200087302000873020008AC
:10006000730200087302000873020008730200089C
:10007000730200087302000873020008730200088C
:10008000730200087302000873020008730200087C
:10009000730200087302000873020008730200086C
:1000A000730200087302000873020008730200085C
:1000B000730200087302000873020008730200084C
:1000C000730200087302000873020008730200083C
:1000D000730200087302000873020008730200082C
:1000E000730200087302000873020008730200081C
:1000F000730200087302000873020008730200080C
:1001000073020008730200087302000873020008FB
:1001100073020008730200087302000873020008EB
:1001200073020008730200087302000873020008DB
:1001300073020008730200087302000873020008CB
:1001400073020008730200087302000873020008BB
:1001500073020008730200087302000873020008AB
:10016000730200087302000873020008730200089B
:100170007302000873020008730200080000000008
:10018000730200087302000800F002F800F054F84F
:100190000AA090E8000C82448344AAF10107DA45E2
:1001A00001D100F049F8AFF2090EBAE80F0013F0E0
:1001B000010F18BFFB1A43F00103184760960000B7
:1001C00080960000103A24BF78C878C1FAD8520748
:1001D00024BF30C830C144BF04680C6070470000C1
:1001E0000023002400250026103A28BF78C1FBD840
:1001F000520728BF30C148BF0B607047662904F022
:10020000E483642900F03681002070471FB504F0B4
:10021000D7FB9DE8030000F0C3FA00F0C5FD040021
:100220000020002104F0B6FBE06000F0D7FE1FBD07
:1002300010B500F03CFF10BD00F0A7FF1146FFF71E
:10024000E5FF04F091FB01F06FF903B4FFF7F0FF55
:1002500003BC01F0E7F9000009488047094800475E
:10026000FEE7FEE7FEE7FEE7FEE7FEE7FEE7FEE766
:10027000FEE7FEE704480549054A064B70470000C3
:10028000D9450008890100086002002060080020AC
:10029000600400206004002070B5064600F064FA97
:1002A000056806F10B0020F00704B4429CBF002053
:1002B00070BD2B466A68BAB11068A04210D304F131
:1002C000080188423CBF5068586007D35168101934
:1002D00041601168091B016058601460101D70BDF9
:1002E00013465268002AE7D12146284600F044FA16
:1002F0000028DED170BD70B50446051F00F034FA49
:100300000068002C14BF446870BD002C18BFAC42BC
:100310003CBF20466468F8D301680A18AA4218BF97
:10032000456003D12A6805461144016028684119D7
:10033000A1421CBF6C6070BD61686960216808449F
:10034000286070BD53EA020C00F069802DE9F04B83
:100350004FF00006002B1FBFB3FA83F503FA05F434
:1003600024FA05F65E4012BF1643B2FA82F502FA8D
:1003700005F4C5F120051EBF22FA05FC44EA0C0471
:10038000203556EA044C4FEA144418BF641C4FF061
:1003900000084FF00009904271EB030C39D300299B
:1003A00019BFB1FA81F701FA07F6B0FA80F700FA3F
:1003B00007F6C7F120071EBF20FA07FC46EA0C0625
:1003C0002037B6FBF4FCA7EB0507103F07F01F0B27
:1003D000CBF120060CFA0BFB2CFA06F644BFB34611
:1003E0000026202FA4BF5E464FF0000B5BEA060CF0
:1003F00008BF4FF0010B19EB0B09ABFB027C48EB7C
:100400000608C01B06FB02CC0BFB03CC71EB0C01F6
:10041000C1E70B46024641464846BDE8F08B13B59E
:100420004FF000004FF00001AFF30080BDE81C402A
:10043000704700000FB4044910B503AA029800F0F9
:100440006BFC10BC5DF814FB580100200FB41CB508
:10045000074B06AA7B4469460090059800F043FCD0
:100460000020694600F052FC1CBC5DF814FB000043
:10047000B50800002DE9F0410646002410687529F2
:10048000314616A510D0AFF30080002802DA4042B2
:1004900013A507E031688A0701D512A502E04907D4
:1004A00004D511A5012401E0AFF3008000210A2248
:1004B00006F1240709E0B0FBF2FCB0FBF2F302FB0B
:1004C0001C00303078541846491C0028F3D12346CC
:1004D0002A463046BDE8F04100F098B9000000001F
:1004E0002D0000002B000000200000002DE9F04747
:1004F0004FF0000A89460446C0F820A02046E16873
:100500008847002876D0252806D0D4E901219047D5
:10051000206A401C2062F1E7E168204600268847F7
:10052000C4F81CA005460027C4F818A02A2D09D03D
:10053000284604F0EFF938B304EB8708303DC8F8DB
:10054000185019E059F8041B204604EB870291610A
:10055000E1688847012F054618D1E069002820DAB4
:1005600026F020061DE0D8F8180000EB800005EB0F
:1005700040003038C8F818002046E1688847054632
:1005800004F0C8F90028EED1012F0AD02E2D08D191
:100590002046E16888477F1C0546022F46F020066A
:1005A000C4DBA069002803DA404246F00106A061DE
:1005B000F00701D026F010066C2D0AD0682D08D067
:1005C0004C2D39D06A2D35D0742D35D07A2D33D0BD
:1005D00016E0E1682F4620468847B84205460AD112
:1005E0006C2F27D04FF48060E1680643204688478F
:1005F000054605E027E06C2F1AD04FF480700643C3
:100600000DB3A5F14100192802D8203546F4006643
:100610004A462946204626604E46FFF7EFFD80B148
:1006200001280BD0F61D26F0070000F1080965E748
:100630004020E4E78020D7E70020D5E706F1040951
:100640005CE7284661E7206ABDE8F08710B5431CE7
:1006500002E010F8011B71B18107FAD14FF00132AD
:1006600002C88C1A8C4314EAC211F9D0C01A0A06C7
:1006700003D0C01E10BDC01A10BD0A0401D0801ED8
:1006800010BD0902FCD0401E10BD032A40F230808C
:1006900010F0030C00F0158011F8013BBCF1020FC3
:1006A000624498BF11F801CB00F8013B38BF11F844
:1006B000013BA2F1040298BF00F801CB38BF00F85B
:1006C000013B11F0030300F03983083AC0F00880C1
:1006D00051F8043B083A51F804CBA0E80810F5E7BC
:1006E000121D5CBF51F8043B40F8043BAFF300809F
:1006F000D20724BF11F8013B11F801CB48BF11F814
:10070000012B24BF00F8013B00F801CB48BF00F8E3
:10071000012B70474FF0000200B5134694469646F1
:10072000203922BFA0E80C50A0E80C50B1F1200104
:10073000BFF4F7AF090728BFA0E80C5048BF0CC0B2
:100740005DF804EB890028BF40F8042B08BF704710
:1007500048BF20F8022B11F0804F18BF00F8012B82
:100760007047704770477047004870470802002084
:10077000704770477047704738B504460A460020F6
:100780006946AFF30080002808BF38BD02460099D3
:10079000204600F00DFB012038BD012000F0BABC5E
:1007A000F8B5AFF30080054600200C46102000BFCE
:1007B0000646A819A0420DD9324669460020AFF37B
:1007C0000080070008BF00F0A5FC0098A04218BFF9
:1007D0000546C419FFF7C8FF05600746F01D20F065
:1007E00007004619284600F00AF8B44208BFF8BDD1
:1007F000A21B31463868BDE8F84000F0D9BA0021A4
:100800000160C0E901107047102070472DE9F047E2
:100810000D4699469246044600F124080168880670
:1008200004D5E06921F01001216000E00120A84218
:1008300001DD471B00E00027A1697A1902EB0900DE
:10084000081AA0612078C00602D42046AFF30080C9
:10085000002608E0D4E901211AF806009047206A32
:10086000401C761C20624E45F4DB2078C0060AD579
:100870002046AFF3008006E0D4E901213020904704
:10088000206A401C2062381EA7F10107F4DC07E053
:10089000D4E9012118F805009047206A401C206225
:1008A000281EA5F10105F3DC2046AFF30080207877
:1008B000000602D50220BDE8F0870120FBE7704763
:1008C0002DE9FF4F0C461E464FF0FF378BB0D2E9A3
:1008D0000001DDF860800A908A46C1F30A5505B927
:1008E0003D46002108464FF00000BAF1000F00F429
:1008F000400005DA00EB80004FF4400101EA5000AF
:100900004FEA9059B9F1010F00DDB9460A9850EA53
:100910004A000ED044F61050A5F2FF3545432F147F
:10092000B8F1000F1ED07542291E1EDDC9F100026C
:100930001CE0B8F1010F4FF0000001D0302103E0BE
:10094000F24305E02154401CB042FBDB304600225C
:10095000002121540B99C1F80880C1E900200FB093
:10096000BDE8F08FBD1B6D1CDEE74A4600DA694228
:1009700006A800F0BDFA06AB93E8070003AB83E8D6
:10098000070050460A9900F0A7FF8DE80700A0F580
:1009900000501F3800900398002D0ADD42F21F011D
:1009A0004A460844002303A90390684601F010FA60
:1009B00009E0A0F500504A461F38002303A9039020
:1009C000684601F01AFA8DE807000004000C03D015
:1009D0004FF0FF30410800E01046B8F1000F03D09F
:1009E0000022009215461EE0751E05D400F0FAF9AB
:1009F000303262556D1EF9D5B3460122084302D04C
:100A000000227F1C04E02078302801D100227F1EC4
:100A1000002A099784D01DE0112D07DA00F0E2F9D1
:100A2000303262556D1C50EA0102F5D1084302D004
:100A30000098C8B10EE00021681E05E0235C625CEE
:100A400063542254401E491C8142F7DBAB46A81B6D
:100A5000401E0990002004F80B000B98099AC0F87A
:100A60000880C0E9002B7AE711264FF0000857E70D
:100A70002DE9F04F88460446D21D22F0070191B0BF
:100A8000D1E90001CDE90A0103F01CFF02460B98F1
:100A9000C00F01D02D2007E02068810701D52B2051
:100AA00002E0202101EAC000032A099001D0072AB0
:100AB00005DB03464146204600F0DAF90BE12078D9
:100AC000800601D5E06900E00620B8F1650F814697
:100AD00006D0B8F1660F18D0B8F1670F70D131E0C9
:100AE0000020B9F1110F009001DB112301E009F1A1
:100AF00001030AAA01A90CA8FFF7E2FEDDE90C70C8
:100B0000002609F10105834647E001204B4600908D
:100B10004FF000470AAA01A90CA8FFF7D1FEDDE9B2
:100B20000DB00C995D46002610B909F101000D18B1
:100B3000B9EB050003D4C0F1FF3609F10105A5EBBF
:100B400009002BE0B9F1010F01DA4FF00109002093
:100B5000B9F1110F0090484601DD112300E0034672
:100B60000AAA01A90CA8FFF7ABFEDDE90C704D46FF
:100B700000268346207800070AD4AB4500DA5D469C
:100B800001A8012D04DD411911F8011C302907D0FD
:100B90004F4502DA17F1040F04DA012082460FE014
:100BA0006D1EEEE7002F02DCED1B3E4403E0781CD7
:100BB000A84200DD7D1CB81B00F1010A4FF0004780
:100BC0002078000703D4AA4501DB4FF0FF3A00214B
:100BD000B7F1004F0DF143088DF8431024D00220E7
:100BE0002B23002F01DA7F422D230A21021EA0F1C0
:100BF000010000DC5FB197FBF1FC97FBF1F201FB18
:100C00001C7C17460CF1300C08F801CDEEE7A8F17A
:100C1000010003702188090501D5452100E0652107
:100C2000A0F1010800F8011C09980FA9A1EB080721
:100C3000FF1D00B10120411901EBEA70A1693844A0
:100C4000081A401EA0612078C00602D42046AFF3E7
:100C50000080099828B1D4E901219047206A401CFE
:100C600020622078C00622D52046AFF300801EE027
:100C7000002E04DBB34502DD01A8805D00E03020DA
:100C8000D4E901219047206A401C2062761CAAF119
:100C900001005FEA000A0AD100F086F8C068016826
:100CA000405CD4E901219047206A401C2062281E44
:100CB000A5F10105DCDC07E0D4E9012118F8010BFE
:100CC0009047206A401C2062381EA7F10107F3DC20
:100CD0002046AFF30080032011B041E601694A1CB1
:100CE00002610878704700B58FB0CDE9013100216D
:100CF000059105497944CDE9031011466846FFF78F
:100D0000F5FB0FB000BD0000E5FFFFFF0A6802F829
:100D1000010B0A6070470000074B70B50D467B441D
:100D2000FFF7E1FF0446284600F054F910B14FF0F8
:100D3000FF3070BD204670BD013C000010B5203A68
:100D4000C0F00B80B1E81850203AA0E81850B1E884
:100D50001850A0E81850BFF4F5AF5FEA027C24BF3A
:100D6000B1E81850A0E8185044BF18C918C0BDE831
:100D700010405FEA827C24BF51F8043B40F8043BFA
:100D800008BF7047D20728BF31F8023B48BF11F8AF
:100D9000012B28BF20F8023B48BF00F8012B704709
:100DA00000487047000200200048704720020020E1
:100DB000034640688C46002818BF88423CBF034663
:100DC0004068F8D318681844884207D00CF1030033
:100DD00020F00700001D411A521A0146081D0A6042
:100DE000FFF789BA30B5B0F10A024FEA900E71F1FF
:100DF00000034EEA817EB0EB0E0061EB91014FEAF9
:100E0000101E4EEA017E10EB0E0041EB11114FEA6D
:100E1000102E4EEA016E10EB0E0041EB11214FEA4D
:100E2000104E4EEA014E10EB0E0041EB11414018FE
:100E300041F100014FEAD00040EA41704FEAD10190
:100E400010EB80054FEA810444EA907444EB0104FE
:100E50006D1944EB0404521BA3414FF0000348BF3B
:100E60000A3200D530BD401C41F1000130BD000008
:100E70002DE9F0411F46044603260168072A01F4C4
:100E8000006004DB08B116A505E016A503E008B173
:100E900015A500E015A521F010002060A069C01E76
:100EA000A0610FB1401EA0612046AFF300804FB19A
:100EB000D4E9012138469047206A401C2062C01CBA
:100EC000206206E0206AFAE7D4E9012115F8010B57
:100ED0009047761EF8D22046AFF30080BDE8F0813F
:100EE0004E414E006E616E00494E4600696E6600CE
:100EF0002DE9F047814616468AB0354878440DC83A
:100F00008DE80D0032487844801C03AC0DC884E89D
:100F10000D0041F69B300844372190FBF1F290FB25
:100F2000F1F5A5F1800501FB12041B3C02D56442DA
:100F3000012000E00020DFF898A080460027FA4456
:100F4000AAF1BE0A0EE0E0070AD03246684607EB77
:100F5000470101230AEB810100F04FFF8DE80700F4
:100F600064107F1C002CEED1194F7F44AE3F19E076
:100F7000E80715D007EB04100DF1180A90E80E00F1
:100F80008AE80E00C068F04201D1981908903246F4
:100F9000012306A903A800F030FF03AB83E8070094
:100FA0006D10641C002DE3D14FF0010332466946F9
:100FB000B8F1000F03A802D000F00AFF01E000F032
:100FC0001CFFC9E90001C9F808200AB0BDE8F08794
:100FD00028880000007B00F08000704710B5424870
:100FE0005421FFF797FB41485421FFF793FB4048FA
:100FF0005421FFF78FFB3F493B483C4A3F4B086079
:101000003D490A603A491960531C0365481C106544
:10101000012008653B48344A39A1784400F0E8F9DA
:1010200020B9384878440A3800F08CFA37482F4AFB
:1010300035A1784400F0DCF920B9344878440A3806
:1010400000F080FA32482A4A2FA1784400F0D0F903
:1010500020B92F4878440A3800F074FA4023224817
:10106000DC000021224600F0A0F920B12548784498
:10107000543800F067FA1D4822464023002100F052
:1010800094F920B121487844543800F05BFA1848AC
:1010900022461023002100F088F9002806D01C48C1
:1010A0007844BDE81040563800F04CBA10BD1048E6
:1010B00070B5006D20F001040B4800F00FFA0B48EA
:1010C00000F00CFA0A4800F009FA09E0206D20F05F
:1010D0000105204600F002FA2046FFF70CF92C46E5
:1010E000002CF3D170BD0000040100205801002045
:1010F000AC010020400000204400002048000020F7
:101100007200000022870000770000000E870000B8
:10111000FA86000010B500F01DFABDE8104000F09E
:101120000CBA0EB5CDE90001FFF790FA02906946BE
:101130000120ABBE0EBD08B5694600900220ABBED3
:1011400008BD1FB58DE8070069460520ABBE04B099
:1011500010BD1FB58DE80F0069460620ABBEF6E74F
:1011600008B5694600900920ABBE08BD1CB5CDE9A5
:10117000000169460A20ABBE1CBD704708B5694630
:1011800000900C20ABBE08BD70477546FFF708FE07
:10119000AE4605006946534620F00700854618B064
:1011A00020B5FFF767F8BDE820404FF000064FF08C
:1011B00000074FF000084FF0000B21F00701AC468C
:1011C000ACE8C009ACE8C009ACE8C009ACE8C009AB
:1011D0008D4670472DE9F04705460C46C86820F457
:1011E000201040F48000C860800602D5084600F058
:1011F000F2FAE06841F282014FF0FF390140022922
:1012000003D0204600F090FAB5E000F42041B1F59B
:10121000004F0FD1C00306D56168E06A884200D84C
:101220000846606006E02069E06260606069FFF780
:10123000A5FFA061A0680022EEB200280DDAE168E7
:101240008B050AD4C043A06041F490302260E06076
:101250006068411C61600670A5E0E068904622600D
:1012600040F40050E060206968BB6069FFF778FFD8
:10127000012704F12405A0B1A08910F4407F08D013
:10128000E069FFF709F8206118B1E06840F40060F8
:1012900016E0E7612561E06820F4407040F480606A
:1012A0000EE0E069FEF7F8FF00282061F1D0E06869
:1012B00040F4006010F4407FE06002D140F48070A0
:1012C000E06020696060E06825696FF0010AC1058F
:1012D0001FD56168E06A884200D80846411B04D0E7
:1012E0002246284600F02AFAF0BBE068010203D546
:1012F000E562C4E9015854E0691CE1626160E1699A
:1013000040F48030491EC4E9021030462E70BDE81A
:10131000F087010202D500F480320AE06068411CC7
:1013200061600670E0680A2E40F48030E06006D00C
:101330000022E16A6068814203D90B4602E0012283
:10134000F7E70346A7895B1B7F0503D4E7699F4244
:1013500000DDE2B1814200D80146E5620F1AC4E91E
:101360000158002B09DD00E005E022461946284619
:1013700000F0E4F908B14846C9E747B1A069E56261
:101380006560C01BA061E06840F01000E060E068AC
:10139000000208D56168A069E562491B08446560E0
:1013A000A0615046B3E73046B1E770B5C468A50701
:1013B00013D0650211D4B2F5807F09D0B2F5007F59
:1013C00006D0B2F5806F08D1012300F1240106E0B8
:1013D0005D1E6FF07F46B54201D3012070BD0161F3
:1013E000C361416024F470611143C160002070BD8D
:1013F0002DE9F0410C4607461646104600F06EF8FF
:101400002078611C61280AD0722802D077283CD14C
:1014100002E00125002405E00225042402E008245E
:1014200048F2020511F8010B2B2806D0622809D0DA
:1014300011F8010C74280AD00BE045F0030544F0C4
:101440000204EFE745F0040544F00104EAE744F044
:10145000100438462146FFF764FE411C15D00021D8
:10146000316171604FF40071F560F16170612007C6
:1014700004D530460222002100F0DAF8306D40F049
:10148000010030653046BDE8F0810020FBE72DE922
:10149000F0410D460646104C206DC10704D04108AE
:1014A00004D020F00104F7E722460EE05420FEF7B6
:1014B000F3FE07000ED0206D47F0010108435421D0
:1014C00020653846FFF726F93A4629463046BDE8FA
:1014D000F0418DE70020D6E7040100202DE9F04718
:1014E00004464FF000094FF0FF37C568D4E9048681
:1014F000A80707D0204600F04BF93046FFF71BFE47
:10150000002802DA3846BDE8F087280502D54046B3
:10151000FEF7F1FE4C212046FFF7FCF8206D20F08D
:10152000010020654846EEE710B50446AFF30080A1
:101530002046BDE81040FEF788BE002801D000F02C
:1015400071B8704710B500F081F9BDE81040FFF7A1
:10155000F4BF000010B5012805D0002103A000F061
:101560005BF9012010BD09A1F8E70000534947527B
:10157000544D454D3A204F7574206F662068656163
:1015800070206D656D6F7279000000003A2048652B
:101590006170206D656D6F727920636F7272757006
:1015A000746564004FF0013C50F8042B51F8043B83
:1015B0009A4221D1A2EB0C03934313EACC1317D127
:1015C00050F8042B51F8043B9A4215D1A2EB0C03BE
:1015D000934313EACC130BD150F8042B51F8043B7E
:1015E0009A4209D1A2EB0C03934313EACC13DBD04C
:1015F0004FF00000704700BFD01A01BAB1FA81F174
:1016000001F0180122FA01F0CB40C1F12001DBB258
:10161000C0B2C01A2CFA01F3D11A914311EAC311D6
:10162000E6D1704701491820ABBEFEE72600020054
:101630002DE9F041044616460D464769007B8007B8
:101640002ED03846FFF78CFD50BB3EB3012E02D0A2
:10165000022E25D104E0204600F019F905441DE0D2
:101660003846FFF78BFDE168002841F01001E1608A
:1016700005DA204600F058F80120BDE8F081C903E2
:101680000BD56268E16A914200D81146A269114403
:101690002269891A814200DD08460544002D01DADD
:1016A0000220EAE7E16A6068E268814206D29103BB
:1016B000E06203D522F4003141F01002A669002750
:1016C000AE4213DCE16A814201D90B4600E00346D9
:1016D00003EB060C2369ACEB030CAC4506DD814241
:1016E00001D98C4600E084469C4505D1A76027605F
:1016F00042F02000A5620DE0AD1BE669AE1B814201
:10170000A66000D90846C01A281A206058196060DF
:1017100022F0200003490840E060002084F848706F
:10172000ABE70000BFCFD7FFC16821F4001141F043
:101730008001C16000218160016070472DE9F047A0
:10174000814614460E464FF0FF383248D568576937
:10175000054209D03846A169FFF708FD002811DBD2
:101760002C48C0430540E5602B4632464946384682
:10177000FFF7E7FCA16920F00042B21A11440028EB
:10178000A16103D02046FFF7CFFF4046BDE8F087B8
:1017900070B504460569C06A6168884200D8084689
:1017A000E16821F42011E160C90312D5A84208D0F4
:1017B0002246411B2846FFF7C1FF10B14FF0FF3012
:1017C00070BD0020E562C4E90150E06820F480307B
:1017D000E060002070BD10B50446C06820F0200015
:1017E000E060A16AA06988420DD02046FFF7D0FFD3
:1017F000E06820F4405040F01000E060A06AA06172
:101800002069E062606044F24001E0688843E06083
:1018100010BD00001000020070B505460C460A20FD
:1018200000E06D1C00F02CF835B128780028F8D1C4
:1018300002E0641C00F024F814B120780028F8D1EC
:10184000BDE870400A2000F01BB8000010B501464A
:1018500002A0FFF7E1FF012010BD000053494752ED
:10186000545245443A2052656469726563743A2063
:1018700063616E2774206F70656E3A20000000006F
:1018800008B569468DF800000320ABBE08BD10B551
:101890000146C268900703D0900607D5886A0AE01F
:1018A00000F016F801210160881E10BD8B694868A0
:1018B00018440B69C01A91F848301BB191F84910CF
:1018C000401A10BD1103FCD50028FADD401E10BDE2
:1018D00000487047000200205FEA400C08BF91F00A
:1018E000000F4FEA8C234FEAC12243EA51514FEADD
:1018F0001C5018BF00F5F0404FEA300018BF41F00F
:1019000000415FEA6C5C00F02980BCF1FF3F08BF3A
:1019100040F080407047130C06BF12044FF0100CCB
:101920004FF0000C130E04BF12020CF1080C130F41
:1019300004BF12010CF1040C930F04BF92000CF1D0
:10194000020CD30F04BF52000CF1010C11464FF0F2
:101950000002A0F11F00A0EB0C00704711F0004F37
:1019600008BF704731F000413FF4D5AF0B0C06BF04
:1019700009044FF0100C4FF0000C0B0E04BF0902CD
:101980000CF1080C0B0F04BF09010CF1040C8B0FB8
:1019900004BF89000CF1020CCB0F04BF49000CF10D
:1019A000010CCCF12003A0EB0C0022FA03F302FAA5
:1019B0000CF241EA030100F10100704720F07F4C76
:1019C00080EA030023F07F47ACEB070303F57C5369
:1019D00000F0004003F1FF032DE980494FEA154B69
:1019E00009B44FEA144325EA0B4E24EA03480FF2E8
:1019F000042606EB132749083E785FEA320203FB10
:101A00000667C7F5000707FB06F64FEA54374FEAAB
:101A1000D64606F1020607FB066CCCF1005C4FEAE5
:101A20001C472CEA074C07FB06F40CFB06F504EBFD
:101A300015464FEA961634BF00204FF000404FEA9B
:101A4000D13706FB07FC4FEA1C4C0CFB0BF7D21BF3
:101A500003FB0CF761EB07010CFB0EF7B0EB074043
:101A600072EB17420CFB08F734BFA2EB0742B2EB54
:101A7000074261EB17414FEA0C444FEA910706FB1E
:101A800007FC4FEA1C4C0CFB0BF7B0EBC74072EBAA
:101A9000573203FB0CF734BFA2EBC742B2EBC7428D
:101AA00061EB57310CFB0EF7B0EBC70072EB5772CE
:101AB0000CFB08F734BFA2EBC702B2EBC70261EB25
:101AC0005771039F4FEA816141EA921104EBCC0404
:101AD0004FEAD1374FEA826206FB07FC42EA9012D6
:101AE0004FEA80604FEA1C4C0CFB0BF7D21B03FB48
:101AF0000CF761EB07010CFB0EF7B0EB074072EB44
:101B000017420CFB08F734BFA2EB0742B2EB0742C7
:101B100061EB17414FEA8C554FEA910704EB9C2487
:101B200006FB07FC4FEA1C4C0CFB0BF7B0EBC74065
:101B300072EB573203FB0CF734BFA2EBC742B2EB98
:101B4000C74261EB57310CFB0EF7B0EBC70072EBED
:101B500057720CFB08F734BFA2EBC702B2EBC70207
:101B600061EB577115EB4C254FEA816141EA921107
:101B70004FEA82624FEAD13742EA901206FB07FC35
:101B800044F100044FEA80604FEA1C4C0CFB0BF759
:101B9000D21B03FB0CF761EB07010CFB0EF7B0EB5C
:101BA000074072EB17420CFB08F734BFA2EB074269
:101BB000B2EB074261EB174115EB1C154FEA81317F
:101BC00041EA92414FEA823242EA90424FEA803043
:101BD0004FEA0C7644F1000448EA03434EEA0B480E
:101BE0004FF0000EB2EB080C71EB030724BF624606
:101BF00039464EEB0E0E4FF0000B00185241494192
:101C00004BEB0B0BB2EB080C71EB03077BF1000BFA
:101C100024BF624639464EEB0E0E4FF0000B001803
:101C2000524149414BEB0B0BB2EB080C71EB030734
:101C30007BF1000B24BF624639464EEB0E0E51EA93
:101C4000020718BF46F0010616EB0E7655F10002AA
:101C500054F1000103D5BDE88901BDE80088BDE865
:101C60008901BDE80048B619524141EB0101A3F1D9
:101C70000103704780807F7E7D7C7B7A79787776E0
:101C800076757473727171706F6E6E6D6C6C6B6A59
:101C90006A696868676666656464636362616160F7
:101CA000605F5F5E5E5D5D5C5C5B5B5A5A59595874
:101CB00058575756565555555454535352525251DE
:101CC000515050504F4F4F4E4E4D4D4D4C4C4C4B34
:101CD0004B4B4A4A4A49494948484847474747467B
:101CE00046464545454444444443434343424242B7
:101CF00042414141002B9C4630D477002BD01CB58B
:101D00004FEA370703B44FF010004FF01001BAF15B
:101D1000000F06D0BCF1000FDCBF40F0080040F01F
:101D200008014FF000000FBCBDE810400BF1010BA3
:101D3000BBF1010F08BF5FEA170722BF12F10102D2
:101D400011F101014FF0004143F1000300F00040A8
:101D500043EA00007047F9D35708D0E746EA064641
:101D600013F1400F4FEA16461FDD13F1200FDFBFBE
:101D700016430A46002120335B42BED0C3F1200740
:101D800046EA064602FA07F74FEA164646EA07060B
:101D9000C3F1200722FA03F201FA07F721FA03F14F
:101DA0004FF0000342EA0702A7E746EA020646EAC6
:101DB00006464FEA164646EA0106BCBF46EA064614
:101DC000360C4FF000034FF000024FF0000194E793
:101DD0002DE9804C9A46934670B491E8380007C8C4
:101DE00031EA400C48BF34EA430C03D5FFF7E6FD67
:101DF000FFF780FFF0BCBDE8008C2DE9804C9A46CF
:101E0000934670B491E8380007C810F0804F08BFBF
:101E100013F0804F03D100F005F8FFF76BFFF0BC23
:101E2000BDE8008C20F07F4780EA030023F07F4C60
:101E300007EB0C03A3F57C5300F00040A3F1FE0375
:101E400092F0000F00F0B38095F0000F00F0778063
:101E50002DE901494FEA11404FEA144621EA0048B2
:101E600000FB06FC24EA064708FB06F607FB08F819
:101E700000FB07F718EB06484CEB164C4FEA124BE9
:101E800018EB07484FEA15464CEB174022EA0B4E79
:101E90000BFB06FC25EA06470EFB06F607FB0EFECB
:101EA0000BFB07F71EEB064E4CEB164C4FF00006F3
:101EB0001EEB074E4CEB174B18EB0B0840F10000E4
:101EC00018EB0E0B58EB000840F100008F1A4FF092
:101ED00000013CBFC943661B14BFB5EB040C0021D5
:101EE0003CBFC943F61B4FEA17444EEA8E0E27EA61
:101EF00004454FEA1C4704FB07622CEA074C05FB2C
:101F000007F70CFB05F604FB0CFC16EB074642EB4F
:101F1000174216EB0C4642EB1C421BEB060658EB35
:101F20000202414146EA9E0601D5BDE80189B61983
:101F3000524141EB0101A3F10103BDE801894FEAE0
:101F400014454FEA114724EA054621EA074C05FBF0
:101F500007F406FB07F70CFB06F105FB0CFC11EB85
:101F6000074144EB17444FEA124711EB0C4144EB95
:101F70001C4422EA074C05FB07F206FB07F70CFBA3
:101F800006F605FB0CFC16EB074642EB174216EB78
:101F90000C4642EB1C456A1854F1000148BF7047DB
:101FA000B619524141EB0101A3F10103704795F0CD
:101FB000000F37D04FEA11424FEA144721EA024698
:101FC00024EA074C02FB07F106FB07F70CFB06F4BB
:101FD00002FB0CFC14EB074441EB17414FEA154799
:101FE00014EB0C4441EB1C4125EA074C02FB07F5BE
:101FF00006FB07F70CFB06F602FB0CFC16EB07468C
:1020000045EB174516EB0C4645EB1C42121951F1F6
:10201000000148BF7047B619524141EB0101A3F1DD
:10202000010370474FEA14454FEA114724EA054679
:1020300021EA074C05FB07F106FB07F70CFB06F24C
:102040004FF0000605FB0CFC12EB074241EB174179
:1020500012EB0C4251EB1C4148BF7047921841EB08
:102060000101A3F101037047FEE7000010B5002253
:1020700010210A4800F058F9094C0022012120469D
:1020800000F052F900220221204600F04DF9BDE88F
:1020900010400421034800F0D1BF000000000240BE
:1020A00000040240A400002010B5012210210A48BB
:1020B00000F03AF9094C01221146204600F034F9AB
:1020C00001220221204600F02FF90421044800F0EB
:1020D00051FF002010BD000000000240000402403B
:1020E000A400002001B54FF4FA73012269460248AA
:1020F00000F0C4FC08BD00004C000020704772B620
:10210000FEE7000070B5044600F014F90546601CB7
:1021100002D004480078044400F00CF9401BA042AF
:10212000FAD370BD040000202DE9F84FDFF8BCA100
:102130000022012503264FF00F090AF1040BAAF132
:10214000040E00BF0B6805FA02F42340A34270D1CD
:102150000F7907F00307012F01D0022F16D18768EE
:102160004FEA420806FA08FC27EA0C07D1F80CC02F
:102170000CFA08FC4CEA070CC0F808C04768A743F3
:102180000C79C4F3001494403C4344600C79E4435C
:10219000A4070AD0C4684FEA420C06FA0CF7BC4305
:1021A0008F6807FA0CF72743C7600C7904F0030423
:1021B000022C12D1D40800EB840CDCF82040570725
:1021C000FF0E09FA07F824EA0804D1F8108008FA8B
:1021D00007F848EA0408CCF8208004684FEA420C6B
:1021E00006FA0CF7BC430F7907F0030707FA0CF760
:1021F000274307604C6814F4403F70D03C4C27687C
:1022000047F480472760246822F0030704F48044E1
:102210000094384C07EB040CDCF8084897074FEAA9
:10222000177809FA08F7BC43334FB84202D10027A8
:1022300024E054E0314FB84201D101271EE0304F75
:10224000B84201D1022719E02E4FB84201D103272D
:1022500014E02D4FB84201D104270FE02B4FB842B4
:1022600001D105270AE02A4FB84201D1062705E02F
:10227000284FB84201D1072700E0082707FA08F7DE
:102280002743CCF80878DAF800405746D1F804C064
:102290009C435FEACC2C00D51C433C60DBF800403B
:1022A0005F46D1F804C09C435FEA8C2C00D51C43E8
:1022B0003C60DEF800407746D1F804C09C435FEAFA
:1022C0008C3C00D51C433C60084F083F3C68D1F86B
:1022D00004C09C435FEACC3C00D51C433C60521CCC
:1022E000102AFFF42FAFBDE8F88F0000083C014032
:1022F0004438024000300140000002400004024027
:1023000000080240000C024000100240001402408D
:1023100000180240001C0240426921EA02030A4000
:1023200043EA0241816170470AB181617047090443
:10233000FBE70000014880687047000004000020AF
:1023400002488168027811448160704704000020CF
:102350000B4810B5016841F400710160016841F457
:1023600080610160016841F480710160032000F028
:1023700061F80F2000F006F800F024F8002010BDEE
:10238000003C024070B50D4D04464FF47A71287838
:10239000B1FBF0F00A490968B1FBF0F000F021FC54
:1023A00048B9102C07D200222146501E00F022F816
:1023B00000206C6070BD012070BD00000400002092
:1023C000100000200A4808B5016841F4804101600E
:1023D000006800F4804000900548001F016841F04B
:1023E00080510160006800F08050009008BD00003E
:1023F00044380240F0B40E4B1B680C46C3F3022372
:10240000C3F10705042D00D90425191D072901D2A0
:10241000002300E0DB1E012606FA05F1491E2140DB
:1024200099409E40761E16403143F0BC02F062BADD
:102430000CED00E0064900F0070208684FF6FF03C4
:10244000184040EA0220034A104308607047000029
:102450000CED00E00000FA052DE9F0470E460500FE
:1024600065D0DFF81481D8F80000F7B200F007005B
:10247000B04207D288F80070D8F8000000F00700DA
:10248000B04254D128683D4C810712D5400703D58E
:10249000206840F4E05020602878000703D52068C9
:1024A00040F4604020602068A96820F0F0000843F4
:1024B00020602878C0072DD0304968680839012885
:1024C00012D0022813D0032811D0096889070029E7
:1024D0002DDA216821F0030101432160FFF72AFF73
:1024E000814641F2883A0EE009688903EFE70968FE
:1024F0008901ECE7FFF71EFFA0EB0901514502D966
:102500000320BDE8F0872068696800F00C00B0EB9C
:10251000810FEFD1D8F80010404601F00701B14219
:1025200007D90770006800F00700B04201D0012011
:10253000E7E72878400705D52068E96820F4E050EF
:10254000084320602878000706D52068296920F410
:10255000604040EAC100206000F018F82168084A95
:10256000C1F30311515CC840064908600648006881
:10257000FFF708FF0020C4E7003C02400838024093
:10258000CE4900081000002008000020154810B5B2
:10259000006810F00C02144813D04110042A0FD028
:1025A000082A0ED10F4C241F2268236802F03F0234
:1025B0005B0207D52068C0F38810A0FB010106E08C
:1025C000084610BD2168C1F38811A1FB000100235A
:1025D000FDF7B8FE2168C1F30141491C4900B0FB79
:1025E000F1F010BD083802400024F4002DE9F84F46
:1025F00004006ED02078DFF84C93C007A9F10405E1
:102600004AD009F104000168C1F38101012908D011
:102610000068C0F3810002280AD1D9F80000400206
:1026200006D52868800337D560680028E1D033E0FC
:102630006068B0F5803F10D0B0F5A02F286810D0AA
:1026400020F480302860286820F4802028606068AA
:10265000A8B1FFF76FFE06460DE0286840F4803011
:10266000F4E740F480202860F7E700BFFFF762FE40
:10267000801B642873D828688003F7D50CE0FFF727
:1026800059FE064605E000BFFFF754FE801B642894
:10269000F0D828688003F7D42078DFF8AC82800770
:1026A0004FF0000A3ED5A748001D016811F00C0F3D
:1026B00008D00068C0F3810002280BD1D9F80000CF
:1026C000400207D42868800716D5E068012800D1A9
:1026D00012E033E1E068B8B10120C8F80000FFF76C
:1026E00029FE064605E000BFFFF724FE801B0228F6
:1026F000C0D828688007F7D52868216920F0F8003D
:1027000040EAC10028600DE0C8F800A0FFF712FE03
:10271000064604E0FFF70EFE801B02281FD828683B
:102720008007F7D42078000722D5864F8748616953
:10273000703771B101210160FFF7FCFD064604E02E
:10274000FFF7F8FD801B022809D838688007F7D505
:102750000EE0C0F800A0FFF7EDFD064605E082E0C0
:10276000FFF7E8FD801B02287DD838688007F7D482
:102770002078400768D5DFF8CCB100270BF13C0B7F
:10278000DBF80000C0000BD4DBF8001041F08051F2
:10279000CBF80010DBF80000012700F0805000901B
:1027A0006B4E3068C00510D4306840F480703060E3
:1027B000FFF7C0FD009005E0FFF7BCFD0099401A4F
:1027C000022850D83068C005F6D55E4EA0686C3639
:1027D00001280FD00528306810D020F001003060AB
:1027E000306820F004003060A068B8B1FFF7A2FDA7
:1027F00000900FE0306840F00100F4E740F0040082
:102800003060F7E7FFF796FD0099411A41F28830F2
:10281000814266D830688007F4D50EE0FFF78AFD64
:10282000009007E0FFF786FD0099411A41F28830D9
:10283000814256D830688007F4D42FB1DBF80010FD
:1028400021F08051CBF80010A069C8B33D49091DA3
:102850000968C1F3810102294AD00228504607D0F5
:10286000C8F8600000E03CE0FFF764FD04463BE090
:102870004746C8F86000FFF75DFD064605E000BF6B
:10288000FFF758FD801B02282BD828688001F7D459
:10289000D4E907010843A16A2E4A490802EB014125
:1028A000626A41EA8211084394F82C1040EA0161FF
:1028B000C9F8001001203866FFF73CFD044606E029
:1028C0003EE000BFFFF736FD001B022809D828684C
:1028D0008001F7D534E000BFFFF72CFD001B022874
:1028E00002D90320BDE8F88F28688001F4D427E0DE
:1028F0000128F7D0D9F80000E26900F48001914284
:102900001CD1226A00F03F01914217D147F6C071F5
:10291000626A0140B1EB821F10D1A26A4FF0FF330F
:1029200000F4403103EB5202B1EB024F06D194F8B0
:102930002C1000F07060B0EB016F01D00120D1E7E6
:102940000020CFE70438024000004742800E474293
:10295000007000400000FFFF70B5040009D0606AFD
:10296000002540B125616561A56294F8510040B130
:102970000CE0012070BD6068B0F5827FF4D0E561A5
:10298000F2E784F85050204600F044F8022084F822
:1029900051002068016821F040010160A088218970
:1029A00000F4827001F404410843A18901F400613C
:1029B0000843217C01F002010843217D01F001015F
:1029C0000843218B01F400710843217F01F0380195
:1029D000084394F8201001F080010843218D01F490
:1029E0000051084321680860A069042101EA1040F1
:1029F00094F8241001F01001084321684860206811
:102A0000C16921F40061C1616565012084F851004C
:102A1000002070BD10B586B0044614216846FDF74D
:102A200079FE13492068884220D1124800210268AB
:102A300042F480520260006800F4805005900D4816
:102A40001438026842F001020260006800F00100E0
:102A50000590A02000900220CDE901010320039001
:102A60000520049069460448FFF75EFB06B010BDE0
:102A70000030014044380240000002402DE9F84F88
:102A8000984616468A460446FFF754FC814694F859
:102A9000510001281ED1BAF1000F73D0002E71D061
:102AA00094F85000012815D0012784F850700320B5
:102AB00084F8510000256565C4F830A0A686E68636
:102AC000A563A587E58765642564A068B0F5004F18
:102AD00003D00CE00220BDE8F88F2068016821F0E7
:102AE000400101602068016841F480410160206874
:102AF0000168490603D4016841F040010160E068C3
:102B0000B0F5006F606803D048B3012E27D047E0CE
:102B100008B1012E1FD1206B21680088C86006E033
:102B200020688168890709D5216B0988C160206BFD
:102B3000801C2063E08E401EE0860CE0FFF7FAFB6D
:102B4000A0EB0901414503D3B8F1FF3F03D035E0C5
:102B5000B8F1000F32D0E08E0028E1D123E0206BE5
:102B600021680078087306E02068816889070AD523
:102B7000216B09780173206B401C2063E08E401E9E
:102B8000E0860DE02BE0FFF7D5FBA0EB0901414506
:102B900003D3B8F1FF3F03D010E0B8F1000F0DD020
:102BA000E08E0028E0D14A464146204601F032FC42
:102BB00008B120206065A06830B109E084F8517048
:102BC00084F85050032086E72068C1688068009030
:102BD00084F8517004F8505F60680028F3D0012039
:102BE00079E710B5401EB0F1807F01D3012010BD00
:102BF0004FF0E02460610F21601701F07BFE0020A0
:102C0000A06107202061002010BD000070B590F881
:102C10003C20012A32D0012480F83C40022280F876
:102C20003D2003685A689D6822F070060A683243A6
:102C30005A60134B02689A4214D0B2F1804F11D0FF
:102C4000104B9A420ED0104B9A420BD00F4B9A4227
:102C500008D00F4B9A4205D00E4B9A4202D00E4B31
:102C60009A4204D1496825F080031943916080F8A5
:102C70003D40002180F83C10084670BD022070BD28
:102C8000000001400004004000080040000C00402B
:102C900000040140004001400018004010B504004D
:102CA00003D094F83D0010B107E0012010BD0020D2
:102CB00084F83C00204600F01FF8022084F83D0014
:102CC000211D206801F090FC012084F8460084F862
:102CD0003E0084F83F0084F8400084F8410084F806
:102CE000420084F8430084F8440084F8450084F8E6
:102CF0003D00002010BD000008B50068064988426C
:102D000008D10648016841F002010160006800F046
:102D10000200009008BD000000040040403802405E
:102D200070B5044690F83C000025012817D0012614
:102D300084F83C60022084F83D002068826822F01C
:102D4000770222F47F4282600868502838D00DDC78
:102D500020284FD005DC90B3102811D14AE0022082
:102D600070BD302846D040280AD13BE060282FD0E3
:102D700070280DD0B0F5805F03D0B0F5005F12D0A1
:102D8000012584F83D60002084F83C00284670BD91
:102D9000CB68D1E90121206801F09BFC20688168A3
:102DA00041F0770109E0CB68D1E90121206801F009
:102DB00090FC2068816841F480418160E1E719E07E
:102DC000CA684968206801F059FD5021206806E072
:102DD000CA684968206801F062FD6021206801F03E
:102DE00082FCCEE7CA684968206801F047FD4021AF
:102DF0002068F4E7226801461046F0E710B586B077
:102E0000044614216846FDF785FC0D492068884278
:102E100014D10C480021026842F0040202600068EC
:102E200000F004000590402000900220CDE901014F
:102E3000CDE9031069460448FFF776F906B010BDE6
:102E400000040040303802400008024070B50446DB
:102E500090F83C0000260D4601280FD0012084F890
:102E60003C006AB1042A1DD0082A2FD00C2A3FD07A
:102E70000126002084F83C00304670BD022070BD61
:102E8000206801F039FC2068816941F00801816106
:102E90002068816921F004018161206881692A69C3
:102EA000114311E0206801F057FC2068816941F46A
:102EB000006181612068816921F4806181612068FD
:102EC00081692A6941EA02218161D2E7206801F023
:102ED00079FC2068C16941F00801C1612068C169BD
:102EE00021F00401C1612068C1692A69114311E020
:102EF000206801F09BFC2068C16941F40061C16158
:102F00002068C16921F48061C1612068C1692A69B2
:102F100041EA0221C161ACE710B5040003D094F886
:102F20003D0010B107E0012010BD002084F83C00F6
:102F3000204600F01EF8022084F83D00211D206884
:102F400001F052FB012084F8460084F83E0084F82A
:102F50003F0084F8400084F8410084F8420084F87F
:102F6000430084F8440084F8450084F83D000020C4
:102F700010BD704710B50446022249B104290ED095
:102F8000082913D094F84100012816D0012010BD63
:102F900094F83E000128F9D184F83E200FE094F81F
:102FA0003F000128F2D184F83F2008E094F8400067
:102FB0000128EBD184F8402001E084F8412001226F
:102FC000206801F079FB16492068164A884201D032
:102FD000904203D1436C43F4004343642068884229
:102FE00013D0B0F1804F10D00F4988420DD00F4957
:102FF00088420AD00E49884207D0904205D00D4938
:10300000884202D00C49884204D1816801F007014E
:10301000062903D0016841F001010160002010BDC4
:10302000000001400004014000040040000800408E
:10303000000C0040004001400018004030B504463C
:103040000D460068002201F037FB194B41F21111C7
:1030500020688A10984202D0164B984209D1036A20
:103060000B4206D1036A134203D1436C23F400439D
:1030700043642068036A0B4206D1016A114203D1FE
:10308000016821F00101016001203DB1042D08D04B
:10309000082D09D084F84100002030BD84F83E009E
:1030A000FAE784F83F00F7E784F84000F4E700000F
:1030B0000000014000040140FEE700002DE9F0415E
:1030C00006461148002143880288084600F06EF940
:1030D000012210210D48FFF727F900254FF48C77C6
:1030E0004FEA162800244046FEF7FCFFF0B2FEF738
:1030F000F9FF641CA4B2BC42F5D36D1CADB2F02D37
:10310000F0D3BDE8F0810000140000200000024070
:1031100070B514460B46024600F048F90122102112
:103120000A48FFF701F90A4D002201212846FFF75E
:10313000FBF8200AFEF7D6FFE0B2FEF7D3FF2846E1
:10314000BDE8704001221146FFF7EEB800000240D2
:103150000004024070B5184D0446012202212846A1
:10316000FFF7E2F86420FEF7CDFF00220221284697
:10317000FFF7DAF86420FEF7C5FF01220221284696
:10318000FFF7D2F86420FEF7BDFF0C490025F020C0
:103190000C714FF48C725CB14A800880362000F0CC
:1031A000DBF8284600F0EEF8BDE8704000F008B803
:1031B00048800A807025F1E70004024014000020D6
:1031C00010B5362000F0C8F8002000F0DBF83A20F7
:1031D00000F0C2F8052000F0D5F8B22000F0BCF8ED
:1031E0000B2000F0CFF80B2000F0CCF8002000F00E
:1031F000C9F8332000F0C6F8352000F0C3F8B72036
:1032000000F0AAF8112000F0BDF8BB2000F0A4F8EF
:10321000352000F0B7F8C02000F09EF82C2000F018
:10322000B1F8C22000F098F8012000F0ABF8C320FC
:1032300000F092F80D2000F0A5F8C42000F08CF802
:10324000202000F09FF8C62000F086F8132000F040
:1032500099F8D02000F080F8A42000F093F8A12085
:1032600000F090F8D62000F077F8A12000F08AF85E
:10327000E02000F071F8F02000F084F8062000F063
:1032800081F80B2000F07EF80A2000F07BF809207E
:1032900000F078F8262000F075F8292000F072F888
:1032A000332000F06FF8412000F06CF8182000F097
:1032B00069F8162000F066F8152000F063F8292060
:1032C00000F060F82D2000F05DF8E12000F044F8F7
:1032D000F02000F057F8042000F054F8082000F027
:1032E00051F8082000F04EF8072000F04BF80320BA
:1032F00000F048F8282000F045F8322000F042F8AD
:10330000402000F03FF83B2000F03CF8192000F08E
:1033100039F8182000F036F82A2000F033F82E2073
:1033200000F030F8E42000F017F8252000F02AF82B
:10333000002000F027F8002000F024F8212000F001
:103340000BF8112000F008F87820FEF7DBFEBDE84E
:1033500010402920AFF3008010B504460022102150
:103360000648FEF7E1FF002201210548FEF7DCFFD9
:103370002046BDE81040FEF7B5BE00000000024048
:103380000004024010B50446012210210348FEF754
:10339000CBFF2046BDE81040FEF7A4BE000002406F
:1033A0000149096848637047A40000202DE9F041F5
:1033B000064627481C46154600790F4601284FF05F
:1033C0002A0027D0FFF7C8FF1436C6F30720FFF7FF
:1033D000D9FFF0B2FFF7D6FF1335C5F30720FFF78B
:1033E000D1FFE8B2FFF7CEFF2B20FFF7B5FF380A79
:1033F000FFF7C8FFF8B2FFF7C5FF641EC4F307204C
:10340000FFF7C0FFE0B2FFF7BDFFBDE8F0412C20A1
:10341000FFF7A2BFFFF7A0FF300AFFF7B3FFF0B23C
:10342000FFF7B0FF6D1EC5F30720FFF7ABFFE8B253
:10343000FFF7A8FF2B20FFF78FFF1437C7F30720F4
:10344000FFF7A0FFF8B2FFF79DFF1334D6E70000A7
:10345000140000202DE9F04FAFA02DED028B83B0BA
:10346000FCF7E8FFFEF720FEB0A0FCF7E3FF4FF407
:103470007A70FFF795FF0120FFF76CFE4FF6FF769D
:103480003046FFF71BFEB1A0FCF7D4FF3346002205
:103490004FF48C71F02000F0DFFEB1A0FCF7CAFF02
:1034A000B74800F00BFFB74800F00EFFB6A0FCF7DE
:1034B000C1FF304600F06CFA6420FEF723FEB6A090
:1034C000FCF7B8FFB42000F069FF4FF478474FF6DF
:1034D000E07ACDE900A7B44BB4A20A211E2000F087
:1034E0007DFE47F6FF7B4FF01F08CDE9008BAE4B0A
:1034F000AFA222211E2000F071FE0024AD4B03225A
:103500009FEDAD8BCDE90064B0EE480AF0EE680A9D
:103510003A211E2000F0D0FBCDE90068A84BA9A2FB
:1035200082211E2000F08EFD3C20034600904622A2
:103530001E21A74800F004FC02250097CDE90154A4
:103540003A2340F21D120A21B92000F007FD4FF680
:103550001F09CDF80090CDE901543A2340F21D1225
:103560000A21B92000F01CFCCDF80090CDE90154EF
:103570003A23B9220A2140F21D1000F011FCCDE9D6
:1035800000541F2319223C21782000F087FACDE94E
:103590000054002319223C21962000F07FFACDE947
:1035A00000543B4619223C21BE2000F077FACDE9B9
:1035B0000054534619225521912000F06FFACDE9AD
:1035C00000544FF4FC6319225521A52000F066FA3F
:1035D00040F6B830FEF796FD5CA0FCF72BFF3346B3
:1035E0005A224FF48C71F02000F036FE5CA0FCF7FC
:1035F00021FF634800F062FE624800F065FE62A0B1
:10360000FCF718FF304600F0C3F96420FEF77AFD9E
:1036100061A0FCF70FFFCDE900A7634B63A20A216D
:103620001E2000F0DBFDCDE9008B5F4B60A2222164
:103630001E2000F0D3FDCDE900645E4B0322B0EE06
:10364000480AF0EE680A3A211E2000F035FBCDE969
:1036500000685B4B5BA282211E2000F0F3FC3C2043
:103660000346009046221E21594800F069FB00974E
:10367000CDE901547823A0221421642000F06EFCCF
:10368000CDF80090CDE901547823A02214216420C4
:1036900000F086FBCDF80090CDE901541423A02260
:1036A0007821642000F07CFBCDE900541F2319220F
:1036B0003C21BE2000F0F2F9CDE90054002319228C
:1036C0003C21DC2000F0EAF9CDE900543B46192208
:1036D0003C21FA2000F0E2F9CDE9005453461922CA
:1036E0005521CD2000F0DAF9CDE900544FF4FC6308
:1036F00019225521EB2000F0D1F940F6B830FEF741
:1037000001FD34A0FCF796FE03B0BDEC028BBDE8D2
:10371000F04FFEF7ABBC00004C43445F31494E36DE
:10372000392044656D6F0D0A000000004C43445F72
:1037300031494E36395F20496E697420616E6420CC
:10374000436C6561722E2E2E0D0A00005061696E69
:10375000745F4E6577496D6167650D0A0000000072
:1037600053657420436C65617220616E6420446906
:1037700073706C61792046756E74696F6E0D0A0006
:10378000BD300008113100085061696E745F436CF0
:103790006561720D0A00000064726177696E672EC0
:1037A0002E2E0D0A000000002C00002031323300C4
:1037B0004142430024000020B000A60C3CDD8E40B6
:1037C00034000020CEA2D1A9B5E7D7D30000000075
:1037D000DE490008717569742E2E2E0D0A00000056
:1037E0002DE9F04186B014216846FCF793FF2A4882
:1037F0000024016841F004010160016801F0040146
:103800000591016841F080010160016801F08001CB
:103810000591016841F001010160016801F00101B9
:103820000591016841F00201016000681B4E00F043
:1038300002004FF400550590002229463046FEF75D
:1038400073FD174F002210213846FEF76DFDDFF89B
:103850005480002203214046FEF766FD00950125B5
:10386000CDE90154694630460394FEF75DFC102013
:103870000090CDE90154694638460394FEF754FCA4
:1038800003200090CDE90154694640460394FEF7B9
:103890004BFC06B0BDE8F081303802400008024021
:1038A0000000024000040240104810B50E490160BB
:1038B0004FF4827141604FF4004181600021C1608A
:1038C0004FF400720161C0E90512C16101624162F9
:1038D00081620A21C162FFF73FF8002803D0BDE8EA
:1038E0001040FEF70CBC10BD003001404C00002021
:1038F00010B58EB000240794089409940A940B9490
:103900001C2168460C94FCF705FF1F481D49016007
:10391000A721C0E9011440F6B731C0E9031484615E
:10392000FFF7BCF908B1FEF7EAFB4FF480500790AF
:1039300007A91548FFF7F4F908B1FEF7E0FB1248B4
:10394000FFF7EAFA08B1FEF7DAFB0B940BA90E4871
:103950000C94FFF75BF908B1FEF7D1FB60200090F3
:1039600040F2DC50CDE90104002269460648049487
:10397000FFF76CFA08B1FEF7C2FB0348FFF73EFA07
:103980000EB010BD00040040A4000020FEE7FEE7DA
:1039900001494968084700001C0000202DE9F05F3C
:1039A00081462D481E46DDF828B0838888464B4561
:1039B00002D3C188414504D2BDE8F05F27A0FCF7DF
:1039C00039BDB088410700D0012101EBD000203A79
:1039D00010FB02F0F1884FF0800A484331680F185D
:1039E000002534E0002429E0ABF57F41FF3907D002
:1039F000387804F007022AFA02F1084207D10EE0F3
:103A0000397804F007022AFA02F0014210D008EBDC
:103A1000050081B209EB040080B20B9A06E008EBC6
:103A2000050081B209EB040080B25A4600F052FC56
:103A3000E043400700D17F1C641CA4B2B088A042C0
:103A4000D2D83079400700D07F1C6D1CADB2F08811
:103A5000A842C7D8BDE8F09FEC000020446562751D
:103A600067203A205061696E745F447261774368E1
:103A7000617220496E707574206578636565647342
:103A800020746865206E6F726D616C20646973705C
:103A90006C61792072616E67650D0A002DE9FF4F38
:103AA0008046834885B00F4684881399444502D3E5
:103AB000C088B84205D809B07E48BDE8F04FFCF791
:103AC000B9BC03200024A0EB420015B20FFA80FA23
:103AD00001297AD0E9E0264661E000BF4FF00109F4
:103AE00008EB040007EB060B02901FFA8BF1CDF8F0
:103AF000009080B24B46089A00F0DCF9A8EB040075
:103B000004901FFA8BF1CDF8009080B20123089A3F
:103B100000F0D0F93819CDE9009081B2A8EB060B7E
:103B20001FFA8BF00123089A00F0C4F9381B0390A8
:103B300081B2CDF800901FFA8BF00123089A00F0B3
:103B4000B9F90498A7EB060B1FFA8BF1CDF800909A
:103B500080B20123089A00F0ADF902981FFA8BF1A8
:103B6000CDF8009080B20123089A00F0A3F90398E1
:103B700008EB060B81B2CDF800901FFA8BF0012301
:103B8000089A00F097F90198CDF8009081B21FFAD9
:103B90008BF00123089A00F08DF9761C36B2AE4204
:103BA0009CDDBAF1000F06DA0AEB8400801D0FFAE3
:103BB00080FA08E009E0611B0AEB81000A306D1E03
:103BC0000FFA80FA2DB2641C24B2AC4283DD09B036
:103BD000BDE8F08F08EB0400012607EB0509029011
:103BE0001FFA89F1009680B2129B089A00F062F9E0
:103BF000A8EB040003901FFA89F1009680B2129B93
:103C0000089A00F057F93819CDE9006081B2A8EBA5
:103C100005091FFA89F0129B089A00F04BF9A7EBEF
:103C2000040B1FFA8BF11FFA89F00096129B089A79
:103C300000F040F90398A7EB05091FFA89F10096F7
:103C400080B2129B089A00F035F902981FFA89F1A8
:103C5000009680B2129B089A00F02CF908EB050937
:103C60001FFA8BF11FFA89F00096129B089A00F058
:103C700021F90198009681B21FFA89F0129B089AE7
:103C800000F018F9BAF1000F05DA0AEB8400801D84
:103C90000FFA80FA07E0611B0AEB81000A306D1E03
:103CA0000FFA80FA2DB2641C24B2AC4292DD8EE78A
:103CB000EC000020949700082DE9F047C2B0894637
:103CC000DDE94A65824698468DED000B1AA102A8EF
:103CD000921CFCF7BBFB02A8FCF7B8FCFCF7DCFA73
:103CE000044602A8FCF7B2FC821E02A92046FCF79B
:103CF000CCFC02A8FCF7AAFC2044002700F8017CB9
:103D000002A8FCF7A3FC204410F8030C2E2805D1D0
:103D100002A8FCF79BFC204400F8037CCDE9005688
:103D2000434622464946504600F058FA2046FCF7E2
:103D3000E2FA42B0BDE8F087252E2A6C660000004A
:103D40002DE9FF5F1E468A460024DFF85090DDF81B
:103D500038801EE0029800250719009904FB06F040
:103D600001EB400B12E000BFB9F808100AEB0503A5
:103D700048468B4209DA4089874206DA0BEB450058
:103D8000B9B2028898B200F0A5FA6D1CB542EBDB1F
:103D9000641C4445DEDBBDE8FF9F0000EC00002012
:103DA0002DE9FE4F1646324A1D469388834208D3BA
:103DB000D3888B4205D39388B34202D3D288AA42D8
:103DC00004D2BDE8FE4F2BA0FCF734BB83468A46E5
:103DD000321A00D5821B91466A1A002A00DD4A1B5E
:103DE00090464FF0FF32B34501D2012000E010466B
:103DF0000290AA4500D2012209EB08040027019293
:103E00007F1C0E98FFB2012805D10320B7FBF0F10B
:103E100000FB1170F8B10120DDE90C230090514640
:103E2000584600F047F800BFB8EB440F07DCB34535
:103E30001CD0029944440BEB01001FFA80FBB9EB44
:103E4000440FDDDBAA4511D001994C440AEB010077
:103E50001FFA80FAD4E7012000904FF6FF72514616
:103E600058460D9B00F026F80027DDE7BDE8FE8FE1
:103E7000EC0000204465627567203A205061696E4D
:103E8000745F447261774C696E6520496E70757419
:103E9000206578636565647320746865206E6F7251
:103EA0006D616C20646973706C61792072616E67FA
:103EB000650D0A002DE9F05F814626481C468846BC
:103EC00083880A9993464B4502D3C288424504D25F
:103ED000BDE8F05F2048FCF7ADBA012901D000260B
:103EE00034E00025681E00EB440718E009EB0500EC
:103EF0000026A0EB040A0EE0BAF1000F0DD408EB87
:103F00000600001B09D481B21FFA8AF05A4600F05D
:103F1000E1F9761C36B2B742EEDC6D1C2DB2AF4231
:103F2000E4DCBDE8F09F002509EB06077F1E09E0F1
:103F300008EB0500401E81B2B8B25A4600F0CAF93B
:103F40006D1C2DB2A542F3DB761C36B2A642EADB2D
:103F5000E7E70000EC000020D89700082DE9FE4FAD
:103F600082462A480C461F46DDE90D5183880C9E87
:103F70009146534509D3C288A24206D383884A4654
:103F80004B4502D3C088B84204D2BDE8FE4F20A002
:103F9000FCF750BA0020804661B90FE0CDE900651A
:103FA00023464A4619465046CDF80880FFF7F8FEEA
:103FB000641CA4B2BC42F1D3BDE8FE8FCDE900651C
:103FC000234619465046CDF80880FFF7E9FECDE9B3
:103FD000006552463B4621461046CDF80880FFF763
:103FE000DFFECDE900654A46234639461046CDF846
:103FF0000880FFF7D5FECDE900653B4652461946DD
:104000004846CDF80880FFF7CBFED5E7EC0000204E
:104010004465627567203A20496E70757420657832
:10402000636565647320746865206E6F726D616C82
:1040300020646973706C61792072616E67650D0A26
:10404000000000002DE9F05F1D46904606468A46B6
:10405000DDF828B0B9E07F294FF0000056D8AA88D3
:104060004EE053232C68434314F813308B4246D15F
:1040700053214843022101EB400004EB00090027D3
:1040800039E000242EE000BFABF57F40FF384FEA57
:10409000E47004EB507020F00700A4EB000299F8E4
:1040A00000104FF0800020FA02F001EA000101D078
:1040B00009B907E071B10AEB070081B2301980B28B
:1040C0000B9A05E00AEB070081B2301980B25A461C
:1040D00000F000F9404804EA0001072901D109F184
:1040E0000109641C2889A042CEDC287A400701D04F
:1040F00009F101097F1C6889B842C2DC02E0401C5A
:104100008242AEDC08F10108E8885DE00127AA8858
:1041100055E053232C68434314F813C08C454DD10C
:1041200007EB4303E45C98F801309C4246D15321ED
:10413000484302212A6801EB400002EB00090027F6
:1041400038E000242DE000BFABF57F40FF384FEA98
:10415000E47004EB507020F00700A4EB000299F823
:1041600000104FF0800020FA02F001EA000101D0B7
:1041700009B907E071B10AEB070081B2301980B2CA
:104180000B9A05E00AEB070081B2301980B25A465B
:1041900000F0A0F810482040072801D109F10109DA
:1041A000641C2889A042CFDC287A400701D009F19D
:1041B00001097F1C6889B842C3DC02E0401C8242CE
:1041C000A7DC288908F10208064498F800100029A5
:1041D0007FF441AFBDE8F09F070000802DE9FC5F50
:1041E00080461B4889460D468188DDF834B01E465E
:1041F00017464446A14203D3C1888246A94222D22F
:10420000BDE8FC5F1348FCF715B9B088BAF8043074
:1042100001195046994203D9F188444629448DB288
:10422000F188C0882944814201D944464D460C9901
:10423000CDE9001B334629462046FFF7AFFBB08887
:104240007F1C204484B23A78002ADED1BDE8FC9F6E
:10425000EC0000204C9700082DE9F0410D4C17466A
:104260000D46064620816181A3816082A182A28AD7
:10427000618A09A0FCF7DEF8E781002020822FB1D7
:10428000B42F03D0A580E680BDE8F081A680E5804C
:10429000FAE70000EC000020576964746842797402
:1042A00065203D2025642C20486569676874427943
:1042B0007465203D2025640D0A0000000149486016
:1042C000704700001C000020014908607047000092
:1042D0001C00002030B4044624488388A3423AD30B
:1042E000C3888B4237D3C389E3B15A2B1CD0B42B7C
:1042F00020D0B3F5877F37D10B464189091B491E72
:1043000089B2048A0CB3012C1BD0022C05D0032CDB
:104310002AD10489E31A5B1E9BB24489611A491EA3
:1043200089B212E02346ECE70389591A491E8BB281
:104330002146E6E703891B1B5B1E44899BB2611A79
:10434000DDE70489E31A5B1E9BB204899C4202D319
:104350004089884203D230BC05A0FCF76BB81846F0
:104360000D4B1B6830BC184730BC7047EC00002078
:104370004465627567203A20457863656564696EB7
:104380006720646973706C617920626F756E646117
:10439000726965730D0A00001C00002010B504004E
:1043A0000BD05A2C09D0B42C07D0B4F5877F04D099
:1043B000BDE8104004A0FCF73DB801460BA0FCF797
:1043C00039F81248C48110BD4465627567203A20EF
:1043D000726F74617465203D20302C2039302C20A0
:1043E0003138302C203237300D0A000044656275B8
:1043F00067203A2053657420696D61676520526FAC
:10440000746174652025640D0A000000EC00002032
:1044100070470000F8B515460E460B46009204465C
:104420000122022100F02CF8A0B9134813490068BA
:10443000B0FBF1F04FF47A71484300906068B0F53A
:10444000827F0DD13346002280212046009500F066
:1044500017F870B1606D40F0200060650320F8BD72
:10446000009830B1401E009020688068C04300066C
:10447000F6D50020F8BD00001000002000366E01C7
:104480002DE9F8431E46914688460446089DFDF7EF
:1044900051FF401B351AFDF74DFF074626480068BF
:1044A000C0F3CB3068430AE0701C09D0FDF742FF2F
:1044B000C01BA8420FD275B10098B8B3401E00903F
:1044C0002068816838EA010033D000214945EBD1EA
:1044D0000020BDE8F8832068416821F0E0014160D8
:1044E0006068B0F5827F0BD1A068B0F5004F02D0B4
:1044F000B0F5806F04D12068016821F040010160AF
:10450000A06AB0F5005F09D12068016821F400516C
:1045100001602068016841F400510160012084F8C5
:104520005100002084F850000320D2E7FFE7002567
:10453000C6E70121CAE70000100000207047FDF720
:10454000FFBE000030B593B030216846FCF7E2F8BA
:1045500014210CA8FCF7DEF81D480025016841F085
:1045600080510160006800F0805011901948016886
:1045700041F4804101600068022400F48040119001
:1045800001200090000401908001CDE9064008AAB6
:104590000420A82182E813000B906846FEF726F855
:1045A00008B172B6FEE70CA90F2081E831004FF484
:1045B000A0500F904FF48050109005210CA8FDF7EB
:1045C0004BFF002801D072B6FEE713B030BD0000EB
:1045D00040380240007000400248016841F4700118
:1045E0000160704788ED00E0F0B50268274B284D68
:1045F000284E294F294C4FF0804C984209D06045F5
:1046000007D0A84205D0B04203D0B84201D0A042A2
:1046100004D122F0700E4A6842EA0E0298421BD082
:10462000604519D0A84217D0B04215D0B84213D077
:10463000A04211D01A4DA8420ED01A4DA8420BD05C
:10464000194DA84208D0194DA84205D0184DA842CE
:1046500002D0184DA84203D122F44075CA682A43FB
:104660004D6922F080022A438D68C5620D6885621B
:10467000984201D0A04201D109690163016841F06B
:1046800004010160012141610260F0BD00000140B0
:104690000004004000080040000C004000040140FD
:1046A0000040014000440140004801400018004023
:1046B000001C00400020004010B501F01F03012144
:1046C000046A99408C430462016A9A401143016272
:1046D00010BD10B5846842EA032224F47F440A43E3
:1046E0002243826010BD826822F070020A4342F0C9
:1046F0000701816070470000F0B5036A026A22F08A
:104700000102026242688469124E24F073050C684B
:104710002C4323F002058B682B430D4DA84201D09A
:10472000B04205D123F00807CB683B4323F00403D4
:10473000A84201D0B04205D14D6922F44072154320
:104740008A692A4342608461496841630362F0BD1B
:104750000000014000040140F0B5026A036A23F042
:1047600010030362436884690D6824F4E64444EA54
:1047700005248D6822F0200242EA05120F4D104EEA
:10478000A84201D0B04206D1CF6822F0800242EAAE
:10479000071222F04002A84201D0B04207D14D6971
:1047A00023F4406343EA85038D6943EA850343604C
:1047B0008461496881630262F0BD0000000001402D
:1047C00000040140F0B5026A036A23F480730362B7
:1047D0004368C46922F4007224F073050C68124E19
:1047E0002C438D6842EA05220E4DA84201D0B0420A
:1047F00006D1CF6822F4006242EA072222F48062E6
:10480000A84201D0B04207D14D6923F4405343EA96
:1048100005138D6943EA05134360C4614968C163A8
:104820000262F0BD000001400004014030B5046A9E
:10483000026A22F4805202624268C3690D6823F45E
:10484000E64343EA05238D6824F4005444EA053422
:10485000084DA84202D0084DA84204D14D6922F467
:10486000804242EA85124260C36149680164046281
:1048700030BD0000000001400004014010B5036A93
:10488000046A24F001040462846924F0F00444EA18
:10489000021423F00A020A438461026210BD10B5BB
:1048A000036A046A24F010040462846923F0A003FC
:1048B00024F4704444EA023243EA01118261016245
:1048C00010BDFEE703B401984100009850EAC120F2
:1048D00018BF04204A0D18BF40F0010040F2FF72DB
:1048E000B2EB515F08BF40F00200012808BF05206D
:1048F00002B070470907090E002804DB00F1E02030
:1049000080F80014704700F00F0000F1E02080F8FC
:10491000141D704730380A2801D20120704700204A
:1049200070478A68002A01DCFCF754BC521E8A607A
:104930004A68C0B2531C4B601070704770B5FDF7E9
:10494000F9FC074D04462868201AB0F5FA7F05D314
:104950004FF400510348FDF7DFFC2C6070BD0000F0
:104960000000002000080240FDF7F2FCFFF7EAFD1E
:10497000FEF736FFFEF7BCFFFEF796FF0021044866
:10498000FEF7F8FAFEF766FDFFF7D8FFFCE7000038
:10499000A400002010B500290AD00878002807D00C
:1049A00005487844FCF7FEFD002801D0002010BD2A
:1049B0000248784410BD00009A4E0000924E00005C
:1049C0004FF04070E1EE100A7047FCF751B800005C
:1049D0000000000000000102030406070809FFFFB1
:1049E000FFFFFFFFFFFFFFFFFFFFFFFFFFFFFFFFD7
:1049F000FFFFFFFFFFFFFFFFFFFFFFFFFFFFFFFFC7
:104A0000FFFFFFFFFFFFFFFFFFFFFFFFFFFFFFFFB6
:104A1000FFFFFFFFFFFFFFFFFFFFFFFFFFFFFFFFA6
:104C4000FFFFF60B160C160C160C160C160C160C99
:104C5000160C160C160C160C160C160C160C160C44
:104C6000160C160C160C160C160C160C160C160C34
:104C7000160C160C160C160C160C160C595DFFFFB4
:104C8000FFFFFFFFFFFFFFFFFFFFFFFFFFFFFFFF34
:104C9000FFFFFFFFFFFFFFFFFFFFFFFFFFFFFFFF24
:104CA000FFFFFFFFFFFFFFFFFFFFFFFFFFFFFFFF14
:104CB000FFFFFFFFFFFFFFFFFFFFF60B160C160CB9
:104CC000160C160C160C160C160C160C160C160CD4
:104CD000160C160C160C160C160C160C160C160CC4
:104CE000160C160C160C160C160C160C160C160CB4
:104CF000160C160C160C160C160C160C9CAEFFFFA0
:104D0000FFFFFFFFFFFFFFFFFFFFFFFFFFFFFFFFB3
:104D1000FFFFFFFFFFFFFFFFFFFFFFFFFFFFFFFFA3
:104D2000FFFFFFFFFFFFFFFFFFFFFFFFFFFFFFFF93
:104D3000FFFFF60B160C160C160C160C160C160CA8
:104D4000160C160C160C160C160C160C160C160C53
:104D5000160C160C160C160C160C160C160C160C43
:104D6000160C160C160C160C160C160C160C160C33
:104D7000160C160C160C160C1614FFFFFFFFFFFF87
:104D8000FFFFFFFFFFFFFFFFFFFFFFFFFFFFFFFF33
:104D9000FFFFFFFFFFFFFFFFFFFFFFFFFFFFFFFF23
:104DA000FFFFFFFFFFFFFFFFFFFFF60B160C160CC8
:104DB000160C160C160C160C160C160C160C160CE3
:104DC000160C160C160C160C160C160C160C160CD3
:104DD000160C160C160C160C160C160C160C160CC3
:104DE000160C160C160C160C160C160C160C160CB3
:104DF000160C160C194DFFFFFFFFFFFFFFFFFFFF13
:104E0000FFFFFFFFFFFFFFFFFFFFFFFFFFFFFFFFB2
:104E1000FFFFFFFFFFFFFFFFFFFFFFFFFFFFFFFFA2
:104E2000FFFFF60B160C160C160C160C160C160CB7
:104E3000160C160C160C160C160C160C160C160C62
:104E4000160C160C160C160C160C160C160C160C52
:104E5000160C160C160C160C160C160C160C160C42
:104E6000160CD83C160C160C160C160C160C160C40
:104E7000FFFFFFFFFFFFFFFFFFFFFFFFFFFFFFFF42
:104E8000FFFFFFFFFFFFFFFFFFFFFFFFFFFFFFFF32
:104E9000FFFFFFFFFFFFFFFFFFFFF60B160C160CD7
:104EA000160C160C160C160C160C160C160C160CF2
:104EB000160C160C160C160C160C160C160C160CE2
:104EC000160C160C160C160C160C160C160C160CD2
:104ED000160C160C160C160CDFF7982C160C160C6C
:104EE000160C160C160C160C160C1B86FFFFFFFF7B
:104EF000FFFFFFFFFFFFFFFFFFFFFFFFFFFFFFFFC2
:104F0000FFFFFFFFFFFFFFFFFFFFFFFFFFFFFFFFB1
:104F1000FFFFF60B160C160C160C160C160C160CC6
:104F2000160C160C160C160C160C160C160C160C71
:104F3000160C160C160C160C160C160C160C160C61
:104F4000160C160C160C160C160C160C160CDFF79D
:104F5000FFFF982C160C160C160C160C160C160CC3
:104F6000160C160C1714FFFFFFFFFFFFFFFFFFFFDC
:104F7000FFFFFFFFFFFFFFFFFFFFFFFFFFFFFFFF41
:104F8000FFFFFFFFFFFFFFFFFFFFF60B160C160CE6
:104F9000160C160C160C160C160C160C160C160C01
:104FA000160C160C160C160C160C160C160C160CF1
:104FB000160C160C160C160C160C160C160C160CE1
:104FC000160C160C9FEFFFFFFFFF982C160C160C0B
:104FD000160C160C160C160C160C160C160C160CC1
:104FE000FFFFFFFFFFFFFFFFFFFFFFFFFFFFFFFFD1
:104FF000FFFFFFFFFFFFFFFFFFFFFFFFFFFFFFFFC1
:10500000FFFFF60B160C160C160C160C160C160CD5
:10501000160C160C160C160C160C160C160C160C80
:10502000160C160C160C160C160C160C160C160C70
:10503000160C160C160C160C160C7EDFFFFFFFFF6D
:10504000FFFF982C160C160C160C160C160C160CD2
:10505000160C160C160C160C371CFFFFFFFFFFFF7B
:10506000FFFFFFFFFFFFFFFFFFFFFFFFFFFFFFFF50
:10507000FFFFFFFFFFFFFFFFFFFFF60B160C160CF5
:10508000160C160C160C160C160C160C160C160C10
:10509000160C160C160C160C160C160C160C160C00
:1050A000160C160C160C160C160C160C160C160CF0
:1050B0005EDFFFFFFFFFFFFFFFFF982C160C160CB3
:1050C000160C160C160C160C160C160C160C160CD0
:1050D000160CFDBEFFFFFFFFFFFFFFFFFFFFFFFFFF
:1050E000FFFFFFFFFFFFFFFFFFFFFFFFFFFFFFFFD0
:1050F000FFFFF60B160C160C160C160C160C160CE5
:10510000160C160C160C160C160C160C160C160C8F
:10511000160C160C160C160C160C160C160C160C7F
:10512000160C160C160CFDC6FFFFFFFFFFFFFFFF5E
:10513000FFFF982C160C160C160C160C160C160CE1
:10514000160C160C160C160C160C160CFFFFFFFF97
:10515000FFFFFFFFFFFFFFFFFFFFFFFFFFFFFFFF5F
:10516000FFFFFFFFFFFFFFFFFFFFF60B160C160C04
:10517000160C160C160C160C160C160C160C160C1F
:10518000160C160C160C160C160C160C160C160C0F
:10519000160C160C160C160C160C160C9CA6FFFF03
:1051A000FFFFFFFFFFFFFFFFFFFF982C160C160C01
:1051B000160C160C160C160C160C160C160C160CDF
:1051C000160C160C160CFFFFFFFFFFFFFFFFFFFF83
:1051D000FFFFFFFFFFFFFFFFFFFFFFFFFFFFFFFFDF
:1051E000FFFFF60B160C160C160C160C160C160CF4
:1051F000160C160C160C160C160C160C160C160C9F
:10520000160C160C160C160C160C160C160C160C8E
:10521000160CF83C7CA6FFFFFFFFFFFFFFFFFFFF20
:10522000FFFF982C160C160C160C160C160C160CF0
:10523000160C160C160C160C160C160C160C3ECF73
:10524000FFFFFFFFFFFFFFFFFFFFFFFFFFFFFFFF6E
:10525000FFFFFFFFFFFFFFFFFFFFF60B160C160C13
:10526000160C160C160C160C160C160C160C160C2E
:10527000160C160C160C160C160C160C160C160C1E
:10528000160C160C160C160C160C160C160CFFFF32
:10529000FFFFFFFFFFFFFFFFFFFF982C160C160C10
:1052A000160C160C160C160C160C160C160C160CEE
:1052B000160C160C160C160CFFFFFFFFFFFFFFFF6E
:1052C000FFFFFFFFFFFFFFFFFFFFFFFFFFFFFFFFEE
:1052D000FFFFF60B160C160CFFFFFFFFFFFFFFFF93
:1052E000FFFFFFFFFFFF160C160C160C160C160C1A
:1052F000FFFFFFFFFFFFFFFF160C160C160C160C2E
:10530000160C160C3ECFFFFFFFFFFFFFFFFFFFFF56
:10531000FFFF982C160C160C160CFFFFFFFFFFFF6B
:10532000FFFF160C160C160C160C160C160C160C91
:105330001B86FFFFFFFFFFFFFFFFFFFFFFFFFFFFDA
:10534000FFFFFFFFFFFFFFFFFFFFF60B160C160C22
:10535000595DFFFFFFFFFFFFFFFFFFFFFFFF160C81
:10536000160C160C160C7724FFFFFFFFFFFFFFFF44
:10537000FFFF160C160C160C160C160CFFFFFFFF89
:10538000FFFFFFFFFFFFFFFF160C982C160C160CFB
:10539000FFFFFFFFFFFFFFFFFFFF571C160C160C60
:1053A000160C160C160C160C160CFFFFFFFFFFFF59
:1053B000FFFFFFFFFFFFFFFFFFFFFFFFFFFFFFFFFD
:1053C000FFFFF60B160C160C160CFFFFFFFFFFFF7E
:1053D000FFFFFFFFFFFF394D160C160C160CFFFFE9
:1053E000FFFFFFFFFFFFFFFFFFFF160C160C160C61
:1053F000160C771CFFFFFFFFFFFFFFFFFFFF160CE0
:10540000160C160C160C160CFFFFFFFFFFFFFFFF1C
:10541000FFFFFFFF160C160C160C160C160C160CC4
:10542000160CFFFFFFFFFFFFFFFFFFFFFFFFFFFF68
:10543000FFFFFFFFFFFFFFFFFFFFF60B160C160C31
:10544000160CFFFFFFFFFFFFFFFFFFFFFFFFFFFF48
:10545000160C160C160CFFFFFFFFFFFFFFFFFFFFF0
:10546000FFFFF944160C160C160CFFFFFFFFFFFFA1
:10547000FFFFFFFFFFFF160C160C160C160C5ED775
:10548000FFFFFFFFFFFFFFFFFFFFFFFF571C160C93
:10549000160C160C160C160C160C3714FFFFFFFF1B
:1054A000FFFFFFFFFFFFFFFFFFFFFFFFFFFFFFFF0C
:1054B000FFFFF60B160C160C160CD834FFFFFFFF7F
:1054C000FFFFFFFFFFFFFFFF160C160CDA7DFFFF4B
:1054D000FFFFFFFFFFFFFFFFFFFFFFFF160C160C94
:1054E000160CFFFFFFFFFFFFFFFFFFFF7CA6160C60
:1054F000160C160C160CFFFFFFFFFFFFFFFFFFFF50
:10550000FFFFFFFFFFFF160C160C160C160C160CF7
:10551000160C160CFFFFFFFFFFFFFFFFFFFFFFFF53
:10552000FFFFFFFFFFFFFFFFFFFFF60B160C160C40
:10553000160C160CFFFFFFFFFFFFFFFFFFFFFFFF33
:10554000DA7D160CFFFFFFFFFFFFFFFFFFFFFFFFEE
:10555000FFFFFFFF160C160CFFFFFFFFFFFFFFFF13
:10556000FFFFFFFF160C160C160C160C595DFFFF03
:10557000FFFFFFFFFFFFFFFFFFFFFFFFFFFF370CF6
:10558000160C160C160C160C160C160CFFFFFFFF53
:10559000FFFFFFFFFFFFFFFFFFFFFFFFFFFFFFFF1B
:1055A000FFFFF60B160C160C160C160CFFFFFFFF78
:1055B000FFFFFFFFFFFFFFFFFFFF160CFFFFFFFFD7
:1055C000FFFFFFFFFFFFFFFFFFFFFFFFFDBE160C0A
:1055D000FFFFFFFFFFFFFFFFFFFFDFF7FFFF160CDF
:1055E000160C160CFFFFFFFFFFFFFFFFFFFFFFFF83
:1055F000FFFFFFFFFFFFFFFF160C160C160C160C2B
:10560000160C160CFFFFFFFFFFFFFFFFFFFFFFFF62
:10561000FFFFFFFFFFFFFFFFFFFFF60B160C160C4F
:10562000160C160C982CFFFFFFFFFFFFFFFFFFFF7C
:10563000FFFF5EDFFFFFFFFFFFFFFFFFFFFFFFFF3B
:10564000FFFFFFFFFFFF3955FFFFFFFFFFFFFFFFDA
:10565000FFFF160CD83C160C160C160CFFFFFFFFB4
:10566000FFFFFFFFFFFFFFFFFFFFFFFFFFFFFFFF4A
:10567000160C160C160C160C160C160CDDB6FFFFCD
:10568000FFFFFFFFFFFFFFFFFFFFFFFFFFFFFFFF2A
:10569000FFFFF60B160C160C160C160C160CFFFF63
:1056A000FFFFFFFFFFFFFFFFFFFFFFFFFFFFFFFF0A
:1056B000FFFFFFFFFFFFFFFFFFFFFFFFFFFFFFFFFA
:1056C000FFFFFFFFFFFFFFFFFFFF7EDF9FEF7C9EDF
:1056D000160CFFFFFFFFFFFFFFFFFFFFFFFFFFFFB6
:1056E000FFFFFFFFFFFFFFFFFFFF160C160C160C5E
:1056F000160C160C371CFFFFFFFFFFFFFFFFFFFF1D
:10570000FFFFFFFFFFFFFFFFFFFFF60B160C160C5E
:10571000160C160C160CFFFFFFFFFFFFFFFFFFFF2D
:10572000FFFFFFFFFFFFFFFFFFFFF944FFFFFFFF4A
:10573000FFFFFFFFFFFFFFFFFFFFFFFFFFFFFFFF79
:1057400037147EDF3ED75ED7160CFFFFFFFFFFFF4B
:10575000FFFFFFFFFFFFFFFFFFFFFFFFFFFFFFFF59
:10576000FFFFF60B160C160C160C160C160CFFFF92
:10577000FFFFFFFFFFFFFFFFFFFFFFFFFFFFFFFF39
:10578000FFFFF60B160C160C160C160C160C795D9A
:10579000FFFFFFFFFFFFFFFFFFFFFFFFFFFFFFFF19
:1057A000FFFF160CFFFFFFFFFFFFFFFFFFFFFFFFE5
:1057B000FFFFFFFFFFFFFFFF571C77243714160C76
:1057C000BFF7FFFFFFFFFFFFFFFFFFFF160C160CE9
:1057D000FFFFFFFFFFFFFFFFFFFFFFFF160C160C91
:1057E000160C160C160CFFFFFFFFFFFFFFFFFFFF5D
:1057F000FFFFFFFFFFFFFFFFFFFF160C160C160C4D
:10580000160C160C160C160CFFFFFFFFFFFFFFFF18
:10581000FFFFFFFFFFFFFFFFFFFF160CD83CFFFF5E
:10582000FFFFFFFFFFFFFFFFFFFFFFFFFFFF7EDF29
:10583000FFFFFFFFFFFFFFFFFFFFFFFFFFFFFFFF78
:10584000FFFFFFFF160C160CFFFFFFFFFFFFFFFF20
:10585000FFFFFFFF160C160C160C160C160CFFFFA4
:10586000FFFFFFFFFFFFFFFFFFFFFFFFFFFFFFFF48
:10587000FFFF571C160C160C160C160C160C160CEB
:10588000FFFFFFFFFFFFFFFFFFFFFFFFFFFFFFFF28
:105890003714160C160CFFFFFFFFFFFFFFFFFFFF83
:1058A000FFFFFFFFFFFF160CF603160CF603FFFFCA
:1058B000FFFFFFFFFFFFFFFFFFFF370C160C160C6B
:1058C000160CFFFFFFFFFFFFFFFFFFFFFFFF160CA0
:1058D000160C160C160CFFFFFFFFFFFFFFFFFFFF6C
:1058E000FFFFFFFFFFFFFFFFFFFFBA75160C160C4F
:1058F000160C160C160C160CD83CFFFFFFFFFFFF12
:10590000FFFFFFFFFFFFFFFF160C160C160CFFFF3B
:10591000FFFFFFFFFFFFFFFFFFFFFFFFFFFF160C73
:10592000FFFFDFF7BFF7FFFFFFFFFFFFFFFFFFFFF7
:10593000FFFF160C160C160C160CFFFFFFFFFFFFE7
:10594000FFFFFFFFFFFF160C160C160C160CFFFFD7
:10595000FFFFFFFFFFFFFFFFFFFFFFFFFFFFFFFF57
:10596000FFFFFFFF160C160C160C160C160C160C6F
:10597000160CFFFFFFFFFFFFFFFFFFFFFFFFFFFF13
:10598000160C160C160C160CFFFFFFFFFFFFFFFF97
:10599000FFFFFFFF160C160C7724595DFFFFFFFF7A
:1059A000FFFFFFFFFFFFFFFF5C9E160C160C160C9F
:1059B000160CFFFFFFFFFFFFFFFFFFFF9A6D160CA6
:1059C000160C160C160CFFFFFFFFFFFFFFFFFFFF7B
:1059D000FFFFFFFFFFFFFFFFFFFFFFFF160C160C8F
:1059E000160C160C160C160C160CFFFFFFFFFFFF13
:1059F000FFFFFFFFFFFFF60B160C160C160C160C24
:105A0000FFFFFFFFFFFFFFFFFFFFFFFF160C160C5E
:105A1000160C1B86FFFFFFFFFFFFFFFFFFFFFFFFCF
:105A2000160C160C160C160C194DFFFFFFFFFFFF8E
:105A3000FFFFFFFF160C160C160C160C160CFFFFC2
:105A4000FFFFFFFFFFFFFFFFFFFFFFFFFFFFFFFF66
:105A5000FFFFFFFF160C160C160C160C160C160C7E
:105A6000160C982CFFFFFFFFFFFFFFFFFFFF160C38
:105A7000160C160C160C160CBFEFFFFFFFFFFFFFF6
:105A8000FFFF7A65160C160C160CFFFFFFFFFFFFD9
:105A9000FFFFFFFFFFFFDFF7160C160C160C160CAE
:105AA000FFFFFFFFFFFFFFFFFFFF5ED7160C160C87
:105AB000160C160C160CFFFFFFFFFFFFFFFFFFFF8A
:105AC000FFFFFFFFFFFFFFFFFFFFFFFF160C160C9E
:105AD000160C160C160C160C160C160CFFFFFFFFFE
:105AE000FFFFFFFFDFF7160C160C160C160C160C3A
:105AF000160CFFFFFFFFFFFFFFFF160C160C160C26
:105B0000160CF944FFFFFFFFFFFFFFFFFFFF160C1E
:105B1000160C160C160C160CFFFFFFFFFFFFFFFF05
:105B2000FFFF160C160C160C160C160C160CFFFFAD
:105B3000FFFFFFFFFFFFFFFFFFFFFFFFFFFFFFFF75
:105B4000FFFFFFFFDFF7160C160C160C160C160CD9
:105B5000160C160CFFFFFFFFFFFFFFFF160C160CC5
:105B6000160C160C160C160C160CFFFFFFFFFFFF91
:105B7000FFFF160C160C160C160C160CFFFFFFFF81
:105B8000FFFFFFFFFFFF160C160C160C160CDFF7BD
:105B9000FFFFFFFFFFFFFFFF5ED7160C160C160C72
:105BA000160C160C160CFFFFFFFFFFFFFFFFFFFF99
:105BB000FFFFFFFFFFFFFFFFFFFFFFFFFFFF160CD1
:105BC000160C160C160C160C160C160C160C160CC5
:105BD000160C160C160C160C160C160C160C160CB5
:105BE000160C160C160C160C160C160C160C160CA5
:105BF000160C160C160C160C160C160C160C160C95
:105C0000160CFFFF371CFFFFFFFFFFFFFFFFFFFF2B
:105C1000160C160C160C160C160C160C160CFFFF98
:105C2000FFFFFFFFFFFFFFFFFFFFFFFFFFFFFFFF84
:105C3000FFFFFFFFFFFF7724160C160C160C160C47
:105C4000160C160C160C160C160C160C160C160C44
:105C5000160C160C160C160C160C160C160C160C34
:105C6000160C160C160C160C160C160C160C160C24
:105C7000160C160C160C160C160CFFFFFFFFFFFF80
:105C8000FFFFFFFFFFFF1DCF160C160C160C160CA6
:105C9000160C160C160CFFFFFFFFFFFFFFFFFFFFA8
:105CA000FFFFFFFFFFFFFFFFFFFFFFFFFFFFFFFF04
:105CB000160C160C160C160C160C160C160C160CD4
:105CC000160C160C160C160C160C160C160C160CC4
:105CD000160C160C160C160C160C160C160C160CB4
:105CE000160C160C160C160C160C160C160C160CA4
:105CF000160CFFFFFFFFFFFFFFFFFFFFFFFF160C6C
