:020000040800F2
:10000000580500209D010008C31B0008E1150008E9
:10001000C11B0008A90200084322000800000000DC
:10002000000000000000000000000000F11C0008BB
:100030000103000800000000C51B0008F31C0008B5
:10004000B7010008B7010008B7010008B7010008B0
:10005000B7010008B7010008B7010008B7010008A0
:10006000B7010008B7010008B7010008B701000890
:10007000B7010008B7010008B7010008B701000880
:10008000B7010008B7010008B7010008B701000870
:10009000B7010008B7010008B7010008B701000860
:1000A000B7010008B7010008B7010008B701000850
:1000B000B7010008B7010008B7010008B701000840
:1000C000B7010008B7010008B7010008B701000830
:1000D000B7010008B7010008B7010008B701000820
:1000E000B7010008B7010008B7010008B701000810
:1000F000B7010008B7010008B7010008B701000800
:10010000B7010008B7010008B7010008B7010008EF
:10011000B7010008B7010008B7010008B7010008DF
:10012000B7010008B7010008B7010008B7010008CF
:10013000B7010008B7010008B7010008B7010008BF
:10014000B7010008B7010008B7010008B7010008AF
:10015000B7010008B7010008B7010008B70100089F
:10016000B7010008B7010008B7010008B70100088F
:10017000B7010008B7010008B7010008000000003F
:10018000B7010008B7010008DFF80CD000F07AF8DA
:1001900000480047B1220008580500200648804763
:1001A00006480047FEE7FEE7FEE7FEE7FEE7FEE75C
:1001B000FEE7FEE7FEE7FEE78D1D00088901000867
:1001C0002DE9F05F0546002092469B46884606468C
:1001D000814640241BE0284641464746224600F01F
:1001E00041F853465A46C01A914110D31146184659
:1001F000224600F028F82D1A67EB01084F462246E8
:100200000120002100F01FF817EB00094E41201ECD
:10021000A4F10104DFDC484631462A464346BDE8E6
:10022000F09FD2B201E000F8012B491EFBD27047CB
:100230000022F6E710B513460A4604461946FFF7B2
:10024000F0FF204610BD202A04DB203A00FA02F11C
:10025000002070479140C2F1200320FA03F31943B4
:1002600090407047202A04DB203A21FA02F0002156
:10027000704721FA02F3D040C2F1200291400843B6
:1002800019467047064C074D06E0E06840F0010350
:1002900094E8070098471034AC42F6D3FFF778FF94
:1002A000B0230008D0230008FEE7000010B50122AB
:1002B00010210A4800F03AF9094C01221146204663
:1002C00000F034F901220221204600F02FF9042128
:1002D000044801F069F8002010BD00000000024051
:1002E00000040240C800002001B54FF4FA73012257
:1002F0006946024800F0DCFD08BD000070000020E7
:10030000704772B6FEE7000070B5044600F014F9BD
:100310000546601C02D004480078044400F00CF943
:10032000401BA042FAD370BD040000202DE9F84F15
:10033000DFF8BCA10022012503264FF00F090AF1C6
:10034000040BAAF1040E00BF0B6805FA02F4234067
:10035000A34270D10F7907F00307012F01D0022FBC
:1003600016D187684FEA420806FA08FC27EA0C070C
:10037000D1F80CC00CFA08FC4CEA070CC0F808C015
:100380004768A7430C79C4F3001494403C4344608D
:100390000C79E443A4070AD0C4684FEA420C06FA79
:1003A0000CF7BC438F6807FA0CF72743C7600C793A
:1003B00004F00304022C12D1D40800EB840CDCF806
:1003C00020405707FF0E09FA07F824EA0804D1F87D
:1003D000108008FA07F848EA0408CCF8208004687E
:1003E0004FEA420C06FA0CF7BC430F7907F00307FB
:1003F00007FA0CF7274307604C6814F4403F70D0AD
:100400003C4C276847F480472760246822F00307A4
:1004100004F480440094384C07EB040CDCF80848E2
:1004200097074FEA177809FA08F7BC43334FB842E9
:1004300002D1002724E054E0314FB84201D1012716
:100440001EE0304FB84201D1022719E02E4FB842CA
:1004500001D1032714E02D4FB84201D104270FE04A
:100460002B4FB84201D105270AE02A4FB84201D1EB
:10047000062705E0284FB84201D1072700E00827EA
:1004800007FA08F72743CCF80878DAF8004057460F
:10049000D1F804C09C435FEACC2C00D51C433C60DF
:1004A000DBF800405F46D1F804C09C435FEA8C2C27
:1004B00000D51C433C60DEF800407746D1F804C00C
:1004C0009C435FEA8C3C00D51C433C60084F083FCE
:1004D0003C68D1F804C09C435FEACC3C00D51C4387
:1004E0003C60521C102AFFF42FAFBDE8F88F0000CB
:1004F000083C014044380240003001400000024006
:100500000004024000080240000C024000100240BB
:100510000014024000180240001C0240426921EA17
:1005200002030A4043EA0241816170470AB18161D6
:1005300070470904FBE7000001488068704700002D
:100540000400002070B5040025D094F83D0000257B
:1005500020B984F83C50204600F0B8F8242084F8F4
:100560003D002068016821F00101016020680168F8
:1005700041F4004101602068016821F400410160FC
:1005800000F0FEF94D4A6168914201D84C4900E003
:100590004C49884201D2012070BD4B492368B0FB11
:1005A000F1F15E6826F03F060E435E606368934299
:1005B00006D94FF4967359434FF47A73B1FBF3F1B4
:1005C0002368491C1E6A26F03F06314319626168A0
:1005D000914210D84900401EB0FBF1F2521CC2F308
:1005E0000B02042A01D2042022E0B0FBF1F0401CEF
:1005F000C0F30B001CE0A268F2B301EBC10303EBF4
:100600000116431EB3FBF6F35B1C43F480431B054A
:1006100049D092B301EBC10202EB0111401EB0FBC5
:10062000F1F0401CC0F30B0040F4804040F4004067
:100630002168CA694CF6FF739A431043C861D4E934
:10064000071001432068026822F0C00211430160D4
:10065000D4E9030101432068826848F2FF339A43DA
:1006600011438160D4E9050108432168CA6822F07A
:10067000FF021043C86001E00EE016E02068016848
:1006800041F0010101602564202084F83D002563CC
:1006900084F83E50002070BD01EB4106431EB3FBC1
:1006A000F6F35B1CB3E70120C2E701EB4101401EFA
:1006B000B0FBF1F0401CC0F30B00B7E7A0860100CF
:1006C00080841E0000093D0040420F0010B586B036
:1006D000044614216846FFF7ABFD134920688842A1
:1006E00020D112480021026842F002020260006834
:1006F00000F002000590C02000901220CDE9010119
:10070000032003900420049069460948FFF70EFE79
:1007100006481030016841F400110160006800F4DF
:100720000010059006B010BD005400403038024063
:1007300000040240024881680278114481607047D9
:10074000040000200B4810B5016841F400710160FD
:10075000016841F480610160016841F480710160C9
:10076000032000F061F80F2000F006F800F024F8F4
:10077000002010BD003C024070B50D4D04464FF402
:100780007A712878B1FBF0F00A490968B1FBF0F002
:1007900000F041FC48B9102C07D200222146501E1F
:1007A00000F022F800206C6070BD012070BD0000D8
:1007B00004000020100000200A4808B5016841F438
:1007C00080410160006800F4804000900548001FEF
:1007D000016841F080510160006800F08050009095
:1007E00008BD000044380240F0B40E4B1B680C46B4
:1007F000C3F30223C3F10705042D00D90425191DF5
:10080000072901D2002300E0DB1E012606FA05F1CC
:10081000491E214099409E40761E16403143F0BC4F
:1008200001F010BD0CED00E0064900F00702086879
:100830004FF6FF03184040EA0220034A10430860C5
:10084000704700000CED00E00000FA052DE9F047CC
:100850000E46050065D0DFF81481D8F80000F7B225
:1008600000F00700B04207D288F80070D8F8000006
:1008700000F00700B04254D128683D4C810712D5E2
:10088000400703D5206840F4E05020602878000736
:1008900003D5206840F4604020602068A96820F0FB
:1008A000F000084320602878C0072DD030496868E0
:1008B0000839012812D0022813D0032811D0096862
:1008C000890700292DDA216821F003010143216005
:1008D000FFF732FE814641F2883A0EE0096889034B
:1008E000EFE709688901ECE7FFF726FEA0EB0901B5
:1008F000514502D90320BDE8F0872068696800F0FF
:100900000C00B0EB810FEFD1D8F80010404601F099
:100910000701B14207D90770006800F00700B04234
:1009200001D00120E7E72878400705D52068E9686D
:1009300020F4E050084320602878000706D520689E
:10094000296920F4604040EAC100206000F038F8D6
:100950002168084AC1F30311515CC8400649086088
:1009600006480068FFF708FF0020C4E7003C02408B
:1009700008380240982300081000002008000020DA
:100980000448054900680968044AC1F38221515CA2
:10099000C84070471000002008380240A823000813
:1009A0000448054900680968044AC1F34231515CB2
:1009B000C84070471000002008380240A8230008F3
:1009C000154810B5006810F00C02144813D04110FF
:1009D000042A0FD0082A0ED10F4C241F2268236846
:1009E00002F03F025B0207D52068C0F38810A0FB2D
:1009F000010106E0084610BD2168C1F38811A1FB82
:100A000000010023FFF7DCFB2168C1F30141491C11
:100A10004900B0FBF1F010BD083802400024F4009A
:100A20002DE9F84F04006ED02078DFF84C93C00712
:100A3000A9F104054AD009F104000168C1F381015C
:100A4000012908D00068C0F3810002280AD1D9F832
:100A50000000400206D52868800337D5606800286A
:100A6000E1D033E06068B0F5803F10D0B0F5A02F42
:100A7000286810D020F480302860286820F4802076
:100A800028606068A8B1FFF757FD06460DE02868AA
:100A900040F48030F4E740F480202860F7E700BF9E
:100AA000FFF74AFD801B642873D828688003F7D5B8
:100AB0000CE0FFF741FD064605E000BFFFF73CFDF7
:100AC000801B6428F0D828688003F7D42078DFF8EA
:100AD000AC8280074FF0000A3ED5A748001D016890
:100AE00011F00C0F08D00068C0F3810002280BD170
:100AF000D9F80000400207D42868800716D5E068BE
:100B0000012800D112E033E1E068B8B10120C8F853
:100B10000000FFF711FD064605E000BFFFF70CFDE2
:100B2000801B0228C0D828688007F7D5286821696B
:100B300020F0F80040EAC10028600DE0C8F800A0ED
:100B4000FFF7FAFC064604E0FFF7F6FC801B0228DC
:100B50001FD828688007F7D42078000722D5864F51
:100B600087486169703771B101210160FFF7E4FCCA
:100B7000064604E0FFF7E0FC801B022809D838682D
:100B80008007F7D50EE0C0F800A0FFF7D5FC0646B9
:100B900005E082E0FFF7D0FC801B02287DD8386892
:100BA0008007F7D42078400768D5DFF8CCB100275C
:100BB0000BF13C0BDBF80000C0000BD4DBF800109D
:100BC00041F08051CBF80010DBF80000012700F065
:100BD000805000906B4E3068C00510D4306840F4EF
:100BE00080703060FFF7A8FC009005E0FFF7A4FCE0
:100BF0000099401A022850D83068C005F6D55E4EDC
:100C0000A0686C3601280FD00528306810D020F07D
:100C100001003060306820F004003060A068B8B196
:100C2000FFF78AFC00900FE0306840F00100F4E725
:100C300040F004003060F7E7FFF77EFC0099411AAE
:100C400041F28830814266D830688007F4D50EE0E2
:100C5000FFF772FC009007E0FFF76EFC0099411A65
:100C600041F28830814256D830688007F4D42FB1E1
:100C7000DBF8001021F08051CBF80010A069C8B358
:100C80003D49091D0968C1F3810102294AD00228A2
:100C9000504607D0C8F8600000E03CE0FFF74CFC8D
:100CA00004463BE04746C8F86000FFF745FC0646AF
:100CB00005E000BFFFF740FC801B02282BD8286806
:100CC0008001F7D4D4E907010843A16A2E4A4908F4
:100CD00002EB0141626A41EA8211084394F82C1048
:100CE00040EA0161C9F8001001203866FFF724FCD2
:100CF000044606E03EE000BFFFF71EFC001B022892
:100D000009D828688001F7D534E000BFFFF714FC4C
:100D1000001B022802D90320BDE8F88F2868800153
:100D2000F4D427E00128F7D0D9F80000E26900F4F4
:100D3000800191421CD1226A00F03F01914217D1FB
:100D400047F6C071626A0140B1EB821F10D1A26AFE
:100D50004FF0FF3300F4403103EB5202B1EB024F8E
:100D600006D194F82C1000F07060B0EB016F01D048
:100D70000120D1E70020CFE70438024000004742BD
:100D8000800E4742007000400000FFFF70B5040075
:100D900009D0606A002540B125616561A56294F8BB
:100DA000510040B10CE0012070BD6068B0F5827F59
:100DB000F4D0E561F2E784F85050204600F044F8A2
:100DC000022084F851002068016821F04001016090
:100DD000A088218900F4827001F404410843A189AC
:100DE00001F400610843217C01F002010843217DE8
:100DF00001F001010843218B01F400710843217FB8
:100E000001F03801084394F8201001F080010843F4
:100E1000218D01F40051084321680860A069042174
:100E200001EA104094F8241001F0100108432168F1
:100E300048602068C16921F40061C16165650120D5
:100E400084F85100002070BD10B586B0044614210E
:100E50006846FFF7EDF913492068884220D112480F
:100E60000021026842F480520260006800F4805061
:100E700005900D481438026842F0010202600068D3
:100E800000F001000590A02000900220CDE90101B2
:100E9000032003900520049069460448FFF746FAB2
:100EA00006B010BD0030014044380240000002404E
:100EB0002DE9F84F984616468A460446FFF73CFB54
:100EC000814694F8510001281ED1BAF1000F73D069
:100ED000002E71D094F85000012815D0012784F815
:100EE0005070032084F8510000256565C4F830A0D7
:100EF000A686E686A563A587E58765642564A06860
:100F0000B0F5004F03D00CE00220BDE8F88F206858
:100F1000016821F0400101602068016841F48041CE
:100F2000016020680168490603D4016841F040016E
:100F30000160E068B0F5006F606803D048B3012E2F
:100F400027D047E008B1012E1FD1206B216800880F
:100F5000C86006E020688168890709D5216B098887
:100F6000C160206B801C2063E08E401EE0860CE098
:100F7000FFF7E2FAA0EB0901414503D3B8F1FF3FC7
:100F800003D035E0B8F1000F32D0E08E0028E1D177
:100F900023E0206B21680078087306E020688168F0
:100FA00089070AD5216B09780173206B401C2063E7
:100FB000E08E401EE0860DE02BE0FFF7BDFAA0EBCF
:100FC0000901414503D3B8F1FF3F03D010E0B8F168
:100FD000000F0DD0E08E0028E0D14A464146204661
:100FE00000F0F2FD08B120206065A06830B109E092
:100FF00084F8517084F85050032086E72068C16857
:101000008068009084F8517004F8505F6068002890
:10101000F3D0012079E710B5401EB0F1807F01D3F5
:10102000012010BD4FF0E02460610F21601701F036
:1010300009F90020A06107202061002010BD0000F8
:1010400070B590F83C20012A32D0012480F83C4051
:10105000022280F83D2003685A689D6822F07006DD
:101060000A6832435A60134B02689A4214D0B2F1B4
:10107000804F11D0104B9A420ED0104B9A420BD099
:101080000F4B9A4208D00F4B9A4205D00E4B9A4212
:1010900002D00E4B9A4204D1496825F080031943CF
:1010A000916080F83D40002180F83C10084670BDFA
:1010B000022070BD00000140000400400008004014
:1010C000000C0040000401400040014000180040B6
:1010D00010B5040003D094F83D0010B107E00120E2
:1010E00010BD002084F83C00204600F01FF80220CC
:1010F00084F83D00211D206800F050FE012084F896
:10110000460084F83E0084F83F0084F8400084F8EC
:10111000410084F8420084F8430084F8440084F8D5
:10112000450084F83D00002010BD000008B50068AF
:101130000649884208D10648016841F00201016071
:10114000006800F00200009008BD000000040040AC
:101150004038024070B5044690F83C000025012854
:1011600017D0012684F83C60022084F83D002068F6
:10117000826822F0770222F47F4282600868502859
:1011800038D00DDC20284FD005DC90B3102811D1C9
:101190004AE0022070BD302846D040280AD13BE00A
:1011A00060282FD070280DD0B0F5805F03D0B0F547
:1011B000005F12D0012584F83D60002084F83C00D7
:1011C000284670BDCB68D1E90121206800F05BFEA4
:1011D0002068816841F0770109E0CB68D1E90121FD
:1011E000206800F050FE2068816841F480418160F1
:1011F000E1E719E0CA684968206800F019FF50214A
:10120000206806E0CA684968206800F022FF602173
:10121000206800F042FECEE7CA684968206800F006
:1012200007FF40212068F4E7226801461046F0E7F6
:1012300010B586B0044614216846FEF7F9FF0D4943
:101240002068884214D10C480021026842F0040250
:101250000260006800F00400059040200090022029
:10126000CDE90101CDE9031069460448FFF75EF8B6
:1012700006B010BD000400403038024000080240B3
:1012800070B5044690F83C0000260D4601280FD0AA
:10129000012084F83C006AB1042A1DD0082A2FD00E
:1012A0000C2A3FD00126002084F83C00304670BD57
:1012B000022070BD206800F0F9FD2068816941F0CE
:1012C000080181612068816921F004018161206841
:1012D00081692A69114311E0206800F017FE206837
:1012E000816941F4006181612068816921F4806134
:1012F0008161206881692A6941EA02218161D2E71E
:10130000206800F039FE2068C16941F00801C16120
:101310002068C16921F00401C1612068C1692A699E
:10132000114311E0206800F05BFE2068C16941F4C0
:101330000061C1612068C16921F48061C1612068D8
:10134000C1692A6941EA0221C161ACE710B5040014
:1013500003D094F83D0010B107E0012010BD00203B
:1013600084F83C00204600F01EF8022084F83D007E
:10137000211D206800F012FD012084F8460084F849
:101380003E0084F83F0084F8400084F8410084F86F
:10139000420084F8430084F8440084F8450084F84F
:1013A0003D00002010BD704710B50446022249B12F
:1013B00004290ED0082913D094F84100012816D032
:1013C000012010BD94F83E000128F9D184F83E2098
:1013D0000FE094F83F000128F2D184F83F2008E0A4
:1013E00094F840000128EBD184F8402001E084F813
:1013F00041200122206800F039FD16492068164A74
:10140000884201D0904203D1436C43F400434364CB
:101410002068884213D0B0F1804F10D00F49884225
:101420000DD00F4988420AD00E49884207D0904219
:1014300005D00D49884202D00C49884204D1816808
:1014400001F00701062903D0016841F001010160A4
:10145000002010BD000001400004014000040040D5
:1014600000080040000C004000400140001800400F
:1014700070B5040004D094F84100002510B106E0D6
:10148000012070BD84F84050204600F023F824204D
:1014900084F841002068C16821F40051C1602046F1
:1014A00000F010FE2068016921F49041016120687C
:1014B000416921F02A0141612068C16841F400516D
:1014C000C1606564202084F8410084F842006563AF
:1014D000002070BD10B586B0044614216846FEF7A2
:1014E000A7FE14492068884221D1134800210268D0
:1014F00042F010020260006800F0100005900E48F3
:101500001438026842F001020260006800F0010035
:1015100005904FF4C06000900220CDE90101032046
:1015200003900720049069460448FEF7FFFE06B0CA
:1015300010BD00000010014044380240000002408D
:101540002DE9F843044690F84100984616460D46AA
:10155000202802D00220BDE8F88385B17EB10020AA
:101560006064212084F84100FEF7E6FFA6848146EE
:10157000E684A0682027B0F5805F02D003E0012058
:10158000E9E7206910B12E4600250EE000260CE0A8
:101590008021204600F01CFEA8B9C6B116F8010B48
:1015A00021684860E08C401EE084E08C4B464FF0A0
:1015B0000002CDF800800028EAD14FF0400120461B
:1015C00000F006FE40B184F841700320C3E735F80F
:1015D000020BC0F30800E3E784F841700020BAE78B
:1015E000FEE700002DE9F04106461148002143883E
:1015F0000288084600F04CF9012210210D48FEF740
:1016000095FF00254FF48C774FEA162800244046BA
:10161000FEF76AFEF0B2FEF767FE641CA4B2BC429D
:10162000F5D36D1CADB2F02DF0D3BDE8F081000014
:10163000140000200000024070B5184D044601223D
:1016400002212846FEF772FF6420FEF75DFE0022AD
:1016500002212846FEF76AFF6420FEF755FE0122AC
:1016600002212846FEF762FF6420FEF74DFE0C497A
:101670000025F0200C714FF48C725CB14A80088018
:10168000362000F0DBF8284600F0EEF8BDE87040A8
:1016900000F008B848800A807025F1E70004024095
:1016A0001400002010B5362000F0C8F8002000F02B
:1016B000DBF83A2000F0C2F8052000F0D5F8B2209F
:1016C00000F0BCF80B2000F0CFF80B2000F0CCF8B5
:1016D000002000F0C9F8332000F0C6F8352000F0F3
:1016E000C3F8B72000F0AAF8112000F0BDF8BB2025
:1016F00000F0A4F8352000F0B7F8C02000F09EF804
:101700002C2000F0B1F8C22000F098F8012000F081
:10171000ABF8C32000F092F80D2000F0A5F8C4202B
:1017200000F08CF8202000F09FF8C62000F086F82A
:10173000132000F099F8D02000F080F8A42000F0E9
:1017400093F8A12000F090F8D62000F077F8A120BF
:1017500000F08AF8E02000F071F8F02000F084F842
:10176000062000F081F80B2000F07EF80A2000F03F
:101770007BF8092000F078F8262000F075F8292081
:1017800000F072F8332000F06FF8412000F06CF8A0
:10179000182000F069F8162000F066F8152000F017
:1017A00063F8292000F060F82D2000F05DF8E120BA
:1017B00000F044F8F02000F057F8042000F054F84E
:1017C000082000F051F8082000F04EF8072000F043
:1017D0004BF8032000F048F8282000F045F83220AC
:1017E00000F042F8402000F03FF83B2000F03CF8C9
:1017F000192000F039F8182000F036F82A2000F0FF
:1018000033F82E2000F030F8E42000F017F82520FF
:1018100000F02AF8002000F027F8002000F024F85B
:10182000212000F00BF8112000F008F87820FEF7D6
:101830006BFDBDE810402920AFF3008010B50446D1
:10184000002210210648FEF771FE00220121054802
:10185000FEF76CFE2046BDE81040FEF745BD0000D7
:10186000000002400004024010B50446012210218D
:101870000348FEF75BFE2046BDE81040FEF734BD8E
:10188000000002400149096848637047C800002011
:101890002DE9F041064627481C46154600790F46BB
:1018A00001284FF02A0027D0FFF7C8FF1436C6F3EF
:1018B0000720FFF7D9FFF0B2FFF7D6FF1335C5F3C6
:1018C0000720FFF7D1FFE8B2FFF7CEFF2B20FFF78D
:1018D000B5FF380AFFF7C8FFF8B2FFF7C5FF641E6F
:1018E000C4F30720FFF7C0FFE0B2FFF7BDFFBDE87C
:1018F000F0412C20FFF7A2BFFFF7A0FF300AFFF74F
:10190000B3FFF0B2FFF7B0FF6D1EC5F30720FFF77E
:10191000ABFFE8B2FFF7A8FF2B20FFF78FFF1437CC
:10192000C7F30720FFF7A0FFF8B2FFF79DFF1334BE
:10193000D6E70000140000202DE9F047151AAEB2DA
:101940005D1AAFB2089CFFF7A3FF012210210D48DA
:10195000FEF7ECFD4FEA142904F0FF0800250DE026
:10196000002407E04846FEF7BFFC4046FEF7BCFCFB
:10197000641CA4B2B442F5D36D1CADB2BD42EFD32A
:10198000BDE8F087000002402DE9F04387B0142144
:101990006846FEF74DFC2F480024016841F0040121
:1019A0000160016801F004010591016841F08001C6
:1019B0000160016801F080010591016841F00101B9
:1019C0000160016801F001010591016841F0020127
:1019D00001600068204F00F002004FF400550590B0
:1019E000002229463846FEF7A1FDDFF8708000226C
:1019F00010214046FEF79AFDDFF8649040F203168E
:101A0000002231464846FEF791FD00950125CDE9BB
:101A10000154694638460394FEF788FC1020009074
:101A2000CDE90154694640460394FEF77FFC0096D9
:101A3000CDE90154694648460394FEF777FC20201F
:101A4000CDE90004694648460294FEF76FFC07B0F2
:101A5000BDE8F08330380240000802400000024038
:101A6000000402400D4810B50B4901600C4941606B
:101A700000214FF480428160C0E90312416181611D
:101A8000C1610162FEF75EFD002803D0BDE8104091
:101A9000FEF737BC10BD0000005400401C000020C1
:101AA000A0860100104810B50E4901604FF4827104
:101AB00041604FF4004181600021C1604FF4007229
:101AC0000161C0E90512C1610162416281620A21BE
:101AD000C162FFF75BF9002803D0BDE81040FEF7B4
:101AE00010BC10BD003001407000002010B58EB059
:101AF00000240794089409940A940B941C216846C6
:101B00000C94FEF795FB1F481D490160A721C0E911
:101B1000011440F6B731C0E903148461FFF7D8FA25
:101B200008B1FEF7EEFB4FF48050079007A9154867
:101B3000FFF710FB08B1FEF7E4FB1248FFF706FCC5
:101B400008B1FEF7DEFB0B940BA90E480C94FFF7CF
:101B500077FA08B1FEF7D5FB6020009040F2DC5028
:101B6000CDE901040022694606480494FFF788FB8A
:101B700008B1FEF7C6FB0348FFF75AFB0EB010BDD5
:101B800000040040C80000200C4810B50A4901605C
:101B90004FF4E1314160002181600C22C160C0E955
:101BA00004128161C161FFF763FC002803D0BDE826
:101BB0001040FEF7A6BB10BD001001401001002030
:101BC000FEE7FEE770470000F8B515460E460B46E7
:101BD000009204460122022100F02CF8A0B913481B
:101BE00013490068B0FBF1F04FF47A71484300905C
:101BF0006068B0F5827F0DD13346002280212046F7
:101C0000009500F017F870B1606D40F0200060653D
:101C10000320F8BD009830B1401E00902068806815
:101C2000C0430006F6D50020F8BD000010000020DB
:101C300000366E012DE9F8431E469146884604465B
:101C4000089DFEF779FC401B351AFEF775FC074628
:101C500026480068C0F3CB3068430AE0701C09D006
:101C6000FEF76AFCC01BA8420FD275B10098B8B34A
:101C7000401E00902068816838EA010033D00021BE
:101C80004945EBD10020BDE8F8832068416821F088
:101C9000E00141606068B0F5827F0BD1A068B0F5CB
:101CA000004F02D0B0F5806F04D12068016821F0A8
:101CB00040010160A06AB0F5005F09D120680168A9
:101CC00021F4005101602068016841F40051016075
:101CD000012084F85100002084F850000320D2E74E
:101CE000FFE70025C6E70121CAE700001000002039
:101CF0007047FEF71FBD000030B593B03021684635
:101D0000FEF796FA14210CA8FEF792FA1D4800255A
:101D1000016841F080510160006800F0805011902E
:101D20001948016841F4804101600068022400F410
:101D30008040119001200090000401908001CDE9C5
:101D4000064008AA0420A82182E813000B906846E8
:101D5000FEF766FE08B172B6FEE70CA90F2081E817
:101D600031004FF4A0500F904FF480501090052197
:101D70000CA8FEF76BFD002801D072B6FEE713B089
:101D800030BD000040380240007000400248016849
:101D900041F470010160704788ED00E0F0B5026821
:101DA000274B284D284E294F294C4FF0804C984204
:101DB00009D0604507D0A84205D0B04203D0B84250
:101DC00001D0A04204D122F0700E4A6842EA0E020D
:101DD00098421BD0604519D0A84217D0B04215D008
:101DE000B84213D0A04211D01A4DA8420ED01A4DBD
:101DF000A8420BD0194DA84208D0194DA84205D0D1
:101E0000184DA84202D0184DA84203D122F44075C3
:101E1000CA682A434D6922F080022A438D68C56250
:101E20000D688562984201D0A04201D10969016321
:101E3000016841F004010160012141610260F0BDCF
:101E4000000001400004004000080040000C004079
:101E500000040140004001400044014000480140AE
:101E600000180040001C00400020004010B501F0A8
:101E70001F030121046A99408C430462016A9A405D
:101E80001143016210BD10B5846842EA032224F4B4
:101E90007F440A432243826010BD826822F07002B0
:101EA0000A4342F00701816070470000F0B5036A01
:101EB000026A22F00102026242688469124E24F032
:101EC00073050C682C4323F002058B682B430D4DE2
:101ED000A84201D0B04205D123F00807CB683B43AC
:101EE00023F00403A84201D0B04205D14D6922F489
:101EF000407215438A692A4342608461496841639C
:101F00000362F0BD0000014000040140F0B5026A28
:101F1000036A23F010030362436884690D6824F4A4
:101F2000E64444EA05248D6822F0200242EA0512C4
:101F30000F4D104EA84201D0B04206D1CF6822F01A
:101F4000800242EA071222F04002A84201D0B042C9
:101F500007D14D6923F4406343EA85038D6943EA61
:101F6000850343608461496881630262F0BD0000BB
:101F70000000014000040140F0B5026A036A23F446
:101F8000807303624368C46922F4007224F073050D
:101F90000C68124E2C438D6842EA05220E4DA84271
:101FA00001D0B04206D1CF6822F4006242EA072293
:101FB00022F48062A84201D0B04207D14D6923F4D7
:101FC000405343EA05138D6943EA05134360C46136
:101FD0004968C1630262F0BD000001400004014095
:101FE00030B5046A026A22F4805202624268C36910
:101FF0000D6823F4E64343EA05238D6824F4005476
:1020000044EA0534084DA84202D0084DA84204D144
:102010004D6922F4804242EA85124260C3614968F8
:102020000164046230BD0000000001400004014072
:1020300010B5036A046A24F001040462846924F080
:10204000F00444EA021423F00A020A4384610262A3
:1020500010BD10B5036A046A24F010040462846998
:1020600023F0A00324F4704444EA023243EA01114D
:102070008261016210BD01680C3151E8002F22F429
:10208000907241E80023002BF5D10168143151E82A
:10209000002F22F0010241E80023002BF5D1016B53
:1020A000012909D101680C3151E8002F22F01002FA
:1020B00041E80023002BF5D1202180F842100021B7
:1020C0000163704770B5044600680169E26821F455
:1020D0004051114301612169A068E26908436169C7
:1020E000114308432168CA6849F20C639A430243CA
:1020F000CA6020684169A26921F4407111434161BD
:1021000031492068884202D03049884202D1FEF726
:1021100047FC01E0FEF734FCE26900231921642545
:102120003226B2F5004F626828D0A0FB0101930F60
:102130009200FEF745F80146B0FBF5F06FF018028B
:10214000504301EB800006EB0010B0FBF5F000F00F
:10215000F002B1FBF5F002EB0012B1FBF5F06FF00D
:102160001803584301EB800006EB0010B0FBF5F0BC
:1021700000F00F0021681044886070BDA0FB0101D1
:1021800092185B41FEF71CF80146B0FBF5F0020126
:10219000B1FBF5F06FF01803584301EB800006EB3C
:1021A000C000B0FBF5F000F0F80002EB4002B1FB1C
:1021B000F5F0584301EB800006EBC000B0FBF5F0F2
:1021C00000F00700D6E700000010014000140140B5
:1021D0002DE9F843984617460D460446089E24E02C
:1021E000701C22D0FEF7A8F9A0EB0800B0421AD864
:1021F000CEB12068C168490717D5802D15D0402D74
:1022000013D00168C94309070FD40168002540684D
:1022100000902046FFF72FFF0820606484F84050AC
:102220000120BDE8F8830320FBE72068006835EA59
:10223000000004D00020B842D2D00020F1E70120F5
:10224000F9E7FEE70907090E002804DB00F1E020AA
:1022500080F80014704700F00F0000F1E02080F8D3
:10226000141D704702E008C8121F08C1002AFAD1E5
:1022700070477047002001E001C1121F002AFBD106
:102280007047000070B5FEF757F9074D04462868FF
:10229000201AB0F5FA7F05D34FF400510348FEF73A
:1022A0003DF92C6070BD00000000002000080240D5
:1022B00008B5FEF747FAFFF71FFDFFF765FBFFF7CD
:1022C00015FCFFF7EFFBFFF7CDFBFFF75DFC0021EF
:1022D0002D48FFF769F80A2305222CA12D48FFF7A6
:1022E0002FF9FDF7E3FF4FF47A70FFF7CBFA0120E7
:1022F000FFF7A2F94FF6FF752846FFF773F94FF085
:10230000000B4FF48C744FF478461F274FF4FC6891
:1023100048F230494FF6074A00212346F02208468A
:10232000CDF800B0FFF708FB00212346F022084655
:102330000095FFF701FB00212346F0220846009696
:10234000FFF7FAFA00212346F02208460097FFF72C
:10235000F3FA00212346F0220846CDF80080FFF76B
:10236000EBFA00212346F0220846CDF80090FFF753
:10237000E3FA00212346F0220846CDF800A0FFF73B
:10238000DBFAFFF77FFFC7E7C800002068656C6CC9
:102390006F0000001001002000000000000000009D
:1023A00001020304060708090000000001020304FB
:1023B000D0230008000000201C0000006422000858
:1023C000EC2300081C0000203C05000074220008DB
:1023D00000000000010000001000000000000000EC
:0C23E0000024F4000000000000000000D9
:040000050800018965
:00000001FF
